:020000040000FA
:04000000C1EF1AF042
:1008000000257320416C65727461206465204C750D
:100810006D696E6F73696461643A20257320506F4F
:10082000726369656E746F200D0A00257320416C38
:10083000657274612064652054656D7065726174C1
:100840007572613A2025732047200D0A0025732018
:10085000416C657274612064652044697374616ED3
:100860006369613A20257320436D200D0A005469A5
:100870006D653A2025783A25783A257820414D0053
:1008800054696D653A2025783A25783A25782050C4
:100890004D00446174653A2025782F25782F2578FE
:1008A000200054696D653A2025783A25783A2578F4
:1008B0002000443A543A4C3A002564636D002564A4
:0D08C0004700256450002020002564000042
:1008CE002B50800B346E2B502B24366E2AAE72EFCB
:1008DE0004F074EF04F075EF04F036803650D8B49F
:1008EE007BEF04F07DEF04F092EF04F03628D8A4ED
:1008FE0083EF04F085EF04F08DEF04F0000E286E08
:10090E00000E296E000E2A6E000E2B6E2A8E000E21
:10091E002B6E9AEF04F0000E286E000E296E000E5C
:10092E002A6E000E2B6E2F50800B356E34503518FC
:10093E00D8B4A4EF04F0A6EF04F0A7EF04F0348CC3
:10094E002F502F24356E2EAEAFEF04F0B1EF04F022
:10095E00B2EF04F035803550D8B4B8EF04F0BAEFEA
:10096E0004F0CFEF04F03528D8A4C0EF04F0C2EFA6
:10097E0004F0CAEF04F0000E2C6E000E2D6E000E69
:10098E002E6E000E2F6E2E8E000E2F6ED7EF04F0F1
:10099E00000E2C6E000E2D6E000E2E6E000E2F6EA3
:1009AE003650355CD8B0DEEF04F0E0EF04F007EF20
:1009BE0005F034ACE5EF04F0E7EF04F0E9EF04F0F6
:1009CE00800E341A36C037F035C036F037C035F0E9
:1009DE0028C037F02CC028F037C02CF029C037F0D3
:1009EE002DC029F037C02DF02AC037F02EC02AF0C6
:1009FE0037C02EF02BC037F02FC02BF037C02FF0A2
:100A0E00000E376E365035C030F0316A305E000E53
:100A1E00315A31BE1CEF05F0315009E11A0E305C2F
:100A2E00D8A01CEF05F01EEF05F055EF05F028508D
:100A3E0029102A102B10D8A427EF05F02AEF05F065
:100A4E00010E2BEF05F0000E376E000E286E000E15
:100A5E00296E000E2A6E000E2B6E35C036F05EEF3C
:100A6E0005F037A03DEF05F03FEF05F045EF05F03F
:100A7E00D89037300109376E47EF05F0D8903732EE
:100A8E0028A04CEF05F04EEF05F04FEF05F0378E36
:100A9E002B342B322A3229322832362A3550365C04
:100AAE00D8A05CEF05F05EEF05F038EF05F034BC32
:100ABE0063EF05F065EF05F0A5EF05F03650D8A40D
:100ACE006BEF05F06DEF05F077EF05F0000E286E79
:100ADE00000E296E000E2A6E000E2B6EC6EF06F06B
:100AEE002C5028262D5029222E502A222F502B22D0
:100AFE002BA084EF05F086EF05F032EF06F037A05D
:100B0E008BEF05F08DEF05F093EF05F0D8903730B1
:100B1E000109376E95EF05F0D890373228A09AEF7D
:100B2E0005F09CEF05F09DEF05F0378E2B342B3240
:100B3E002A3229322832362A32EF06F02C50285C1F
:100B4E002D5029582E502A582B50800A306E2F5077
:100B5E00800A3058D8B0B6EF05F0B8EF05F0E3EFE5
:100B6E0005F028502C5C306E29502D58316E2A50CD
:100B7E002E58326E2B502F58336EFF0E3024286EA7
:100B8E00FF0E3120296EFF0E32202A6EFF0E33200B
:100B9E002B6E800E341A376C3750D8A4D9EF05F06F
:100BAE00DBEF05F0EBEF05F0010E2826000E2922F3
:100BBE002A222B22EBEF05F02C50285E2D50295ABD
:100BCE002E502A5A2F502B5A285029102A102B10EB
:100BDE00D8A4F4EF05F0F6EF05F02BEF06F0375042
:100BEE00D8A4FCEF05F0FEEF05F02BEF06F0000E9B
:100BFE00286E000E296E000E2A6E000E2B6EC6EFAA
:100C0E0006F0D890283629362A362B3637AE12EF14
:100C1E0006F014EF06F015EF06F0288037A01AEF55
:100C2E0006F01CEF06F020EF06F0D880373622EFE4
:100C3E0006F0D89037363650D8B428EF06F02AEFA3
:100C4E0006F02BEF06F036062AAE30EF06F032EF46
:100C5E0006F008EF06F0000E356E37AE39EF06F0EF
:100C6E003BEF06F053EF06F037C030F07F0E301634
:100C7E00D8B444EF06F046EF06F04AEF06F0010E48
:100C8E00356E53EF06F028A04FEF06F051EF06F049
:100C9E0053EF06F046EF06F03550D8B459EF06F094
:100CAE005BEF06F086EF06F0010E2826000E2922D5
:100CBE002A222B222BA066EF06F068EF06F086EFB5
:100CCE0006F028C030F029C031F02AC032F02BC017
:100CDE0033F03334333232323132303230C028F0E6
:100CEE0031C029F032C02AF033C02BF03628D8B4E8
:100CFE0083EF06F085EF06F086EF06F0362A3628EB
:100D0E00D8B48CEF06F08EEF06F096EF06F0365064
:100D1E00D8A494EF06F096EF06F0A8EF06F0000EBA
:100D2E00286E000E296E000E2A6E000E2B6E3650A7
:100D3E00D8A4A4EF06F0A6EF06F0A8EF06F0000E7A
:100D4E00346E36A0ADEF06F0AFEF06F0B2EF06F060
:100D5E002A8EB3EF06F02A9ED89036302B6E34AE24
:100D6E00BBEF06F0BDEF06F0BEEF06F02B8E28C0EF
:100D7E0028F029C029F02AC02AF02BC02BF012002F
:100D8E001250800B1B6E12501224216E11AED2EF38
:100D9E0006F0D4EF06F0D5EF06F021802150D8B43E
:100DAE00DBEF06F0DDEF06F0F0EF06F02128D8A419
:100DBE00E3EF06F0E5EF06F0EDEF06F0000E0F6E36
:100DCE00000E106E000E116E000E126E118EF8EFE8
:100DDE0006F0000E0F6E000E106E000E116E000E5D
:100DEE00126E1650800B1B1A16501624206E15AE5E
:100DFE0003EF07F005EF07F006EF07F02080205015
:100E0E00D8B40CEF07F00EEF07F021EF07F0202813
:100E1E00D8A414EF07F016EF07F01EEF07F0000E40
:100E2E00136E000E146E000E156E000E166E158EDD
:100E3E0029EF07F0000E136E000E146E000E156EE5
:100E4E00000E166E2050D8B42FEF07F031EF07F0DA
:100E5E0039EF07F02150D8A437EF07F039EF07F03C
:100E6E0043EF07F0000E0F6E000E106E000E116EA7
:100E7E00000E126EDBEF08F015500F02F3CF26F0C6
:100E8E00F4CF27F026501C6E1D6A1E6A1F6A27506B
:100E9E00226E236A246A256A14501002F3CF26F0BC
:100EAE00F4CF27F026501C26000E1D221E221F22D4
:100EBE0027502226000E232224222522135011020F
:100ECE00F3CF26F0F4CF27F026501C26000E1D225D
:100EDE001E221F2227502226000E232224222522E4
:100EEE001EC01FF01DC01EF01CC01DF01C6A13504A
:100EFE001002F3CF26F0F4CF27F026501C262750F1
:100F0E001D22000E1E22000E1F2214500F02F3CFC0
:100F1E0026F0F4CF27F026501C2627501D22000E57
:100F2E001E22000E1F221EC01FF01DC01EF01CC070
:100F3E001DF01C6A13500F02F3CF26F0F4CF27F0EA
:100F4E0026501C2627501D22000E1E22000E1F2288
:100F5E0015501002F3CF26F0F4CF27F0265022269C
:100F6E0027502322000E2422000E25221450110297
:100F7E00F3CF26F0F4CF27F0265022262750232237
:100F8E00000E2422000E252215501102F3CF26F05A
:100F9E00F4CF27F02650176E2750186E196A1A6A6A
:100FAE0019C01AF018C019F017C018F0176A1750A8
:100FBE00222618502322195024221A5025221CC0F2
:100FCE0017F01DC018F01EC019F01FC01AF0190E30
:100FDE00F6EF07F0D8901A32193218321732E82E7F
:100FEE00F1EF07F017502226185023221950242211
:100FFE001A5025221EC01FF01DC01EF01CC01DF071
:10100E001C6A205021C017F0186A1726000E1822ED
:10101E00820E1724266EFF0E1820276E2CEF08F076
:10102E00D89022362336243625361FAE21EF08F00F
:10103E0023EF08F024EF08F02280D8901C361D36DE
:10104E001E361F362606D8A0270624AE31EF08F02E
:10105E0033EF08F017EF08F0000E206E1FAE3AEFD8
:10106E0008F03CEF08F060EF08F0FF0E1C14176E4E
:10107E00FF0E1D14186EFF0E1E14196E7F0E1F1418
:10108E001A6E1750181019101A10D8B451EF08F024
:10109E0053EF08F057EF08F0010E206E60EF08F0E6
:1010AE0022A05CEF08F05EEF08F060EF08F053EF5F
:1010BE0008F02050D8B466EF08F068EF08F08CEF17
:1010CE0008F0010E2226000E23222422252225A01E
:1010DE0073EF08F075EF08F08CEF08F022C017F0F0
:1010EE0023C018F024C019F025C01AF01A341A3291
:1010FE0019321832173217C022F018C023F019C057
:10110E0024F01AC025F0264A272A27BE97EF08F0AA
:10111E00275008E12628D8A097EF08F099EF08F09D
:10112E00A3EF08F0000E226E000E236E800E246ECA
:10113E007F0E256ED1EF08F027BEB0EF08F02750D6
:10114E0006E12604D8B0AEEF08F0B0EF08F0BCEF21
:10115E0008F0000E226E000E236E000E246E000E9E
:10116E00256E000E1B6ED1EF08F026C021F0FF0E8B
:10117E002216FF0E23167F0E2416000E251621A012
:10118E00CBEF08F0CDEF08F0CEEF08F0248ED8901C
:10119E002130256E1B50251222C00FF023C010F0F7
:1011AE0024C011F025C012F012001250800B1F6ED9
:1011BE0012501224266E11AEE7EF08F0E9EF08F098
:1011CE00EAEF08F026802650D8B4F0EF08F0F2EFE0
:1011DE0008F007EF09F02628D8A4F8EF08F0FAEF88
:1011EE0008F002EF09F0000E0F6E000E106E000EEA
:1011FE00116E000E126E118E000E126E0FEF09F0B0
:10120E00000E0F6E000E106E000E116E000E126E9E
:10121E001650800B1F1A16501624276E15AE1AEF95
:10122E0009F01CEF09F01DEF09F027802750D8B404
:10123E0023EF09F025EF09F03AEF09F02728D8A49B
:10124E002BEF09F02DEF09F035EF09F0000E136EBC
:10125E00000E146E000E156E000E166E158E000E1C
:10126E00166E42EF09F0000E136E000E146E000E95
:10127E00156E000E166E1350141015101610D8A4FD
:10128E004BEF09F04DEF09F065EF09F0000E0F6E10
:10129E00000E106E000E116E000E126E800E1112E8
:1012AE007F0E12121F5012120FC00FF010C010F04E
:1012BE0011C011F012C012F0A8EF0AF02650D8A4F7
:1012CE006BEF09F06DEF09F077EF09F0000E0F6E7E
:1012DE00000E106E000E116E000E126EA8EF0AF0C8
:1012EE00275026C017F0186A175E000E185A7F0E88
:1012FE001724206E000E1820216E0FC01BF010C098
:10130E001CF011C01DF012C01EF0000E0F6E000E6C
:10131E00106E000E116E000E126E000E226E000E7A
:10132E00236E000E246E000E256E000E276ED8EF73
:10133E0009F02750D8B4A6EF09F0A8EF09F0BFEFD7
:10134E0009F0D8901B361C361D361E36D8900F3637
:10135E0010361136123625AEB7EF09F0B9EF09F097
:10136E00BAEF09F00F80D890223623362436253670
:10137E0013501B5C14501C5815501D5816501E58F7
:10138E00D8A0CCEF09F0CEEF09F0D7EF09F0258CFD
:10139E0013501B5E14501C5A15501D5A16501E5ACF
:1013AE00272A190E2764DEEF09F0E0EF09F0A0EF0F
:1013BE0009F01B501C101D101E10D8B4E9EF09F0D7
:1013CE00EBEF09F003EF0AF0228003EF0AF0D8905A
:1013DE000F3610361136123625AEF8EF09F0FAEF49
:1013EE0009F0FBEF09F00F80D89022362336243611
:1013FE0025362006D8A0210611AE08EF0AF00AEF16
:10140E000AF0EEEF09F0000E276E25AE11EF0AF08E
:10141E0013EF0AF037EF0AF0FF0E2214176EFF0ECD
:10142E002314186EFF0E2414196E7F0E25141A6ED7
:10143E001750181019101A10D8B428EF0AF02AEF06
:10144E000AF02EEF0AF0010E276E37EF0AF00FA00A
:10145E0033EF0AF035EF0AF037EF0AF02AEF0AF011
:10146E002750D8B43DEF0AF03FEF0AF063EF0AF0D1
:10147E00010E0F26000E10221122122212A04AEF88
:10148E000AF04CEF0AF063EF0AF00FC017F010C02D
:10149E0018F011C019F012C01AF01A341A3219329B
:1014AE001832173217C00FF018C010F019C011F013
:1014BE001AC012F0204A212A21BE6EEF0AF02150E6
:1014CE0008E12028D8A06EEF0AF070EF0AF07BEF4B
:1014DE000AF0000E216E2068000E0F6E000E106EC8
:1014EE00000E116E000E126E21BE88EF0AF0215012
:1014FE0006E12004D8B086EF0AF088EF0AF096EFE6
:10150E000AF0000E216E000E206E000E0F6E000E01
:10151E00106E000E116E000E126E000E1F6E20C0A9
:10152E0026F026A09DEF0AF09FEF0AF0A2EF0AF038
:10153E00118EA3EF0AF0119ED8902630126E59EF3D
:10154E0009F0120045C0D9FF46C0DAFFDECFF6FF24
:10155E00DDCFF7FF0800F550250AD8A4B9EF0AF041
:10156E00BBEF0AF016EF0CF045C0D9FF46C0DAFF0C
:10157E00DE2A000EDD22000E0101CB6F000ECA6FB7
:10158E00CAC1F5F0CBC1F6F0CC69CD6945C0D9FF23
:10159E0046C0DAFFDECFF6FFDDCFF7FF0800F550CD
:1015AE00640AD8B4DDEF0AF0DFEF0AF0F1EF0AF0CB
:1015BE0045C0D9FF46C0DAFFDECFF6FFDDCFF7FF1D
:1015CE000800F550690AD8A4EFEF0AF0F1EF0AF01F
:1015DE0031EF0BF045C0D9FF46C0DAFFDE2A000E10
:1015EE00DD2247C0D9FF48C0DAFFDFCF49F0020E37
:1015FE00DE26DFCF4AF0000EDD2249C0D9FF4AC0F9
:10160E00DAFFDECF4DF0DDCF4EF0000E4EBEFF0EF8
:10161E004F6E506E516E526E536E546E43C01CF030
:10162E0044C01DF04DC01EF04EC01FF04FC020F044
:10163E0050C021F051C022F052C023F053C024F00C
:10164E0054C025F032EC0CF01CC043F01DC044F029
:10165E0031EF0CF045C0D9FF46C0DAFFDECFF6FF02
:10166E00DDCFF7FF0800F550730AD8A441EF0BF059
:10167E0043EF0BF06EEF0BF045C0D9FF46C0DAFF1B
:10168E00DE2A000EDD2247C0D9FF48C0DAFFDFCFC9
:10169E0049F0020EDE26DFCF4AF0000EDD2249C0F1
:1016AE00D9FF4AC0DAFFDECF5DF0DDCF5EF043C07A
:1016BE000AF044C00BF05DC00CF05EC00DF08BEC78
:1016CE0013F00AC043F00BC044F031EF0CF045C0EC
:1016DE00D9FF46C0DAFFDECFF6FFDDCFF7FF0800F9
:1016EE00F550780AD8B47EEF0BF080EF0BF092EF46
:1016FE000BF045C0D9FF46C0DAFFDECFF6FFDDCFD7
:10170E00F7FF0800F550580AD8A490EF0BF092EFAF
:10171E000BF0E0EF0BF045C0D9FF46C0DAFFDECF8D
:10172E00F6FFDDCFF7FF0800F5CF5FF045C0D9FF1C
:10173E0046C0DAFFDE2A000EDD2247C0D9FF48C0C0
:10174E00DAFFDFCF49F0020EDE26DFCF4AF0000EC1
:10175E00DD2249C0D9FF4AC0DAFFDECF4BF0DDCF24
:10176E004CF04BC055F04CC056F0576A586A596A47
:10177E005A6A5B6A5C6A43C01CF044C01DF055C0D7
:10178E001EF056C01FF057C020F058C021F059C0AF
:10179E0022F05AC023F05BC024F05CC025F05FC07D
:1017AE0026F0A7EC0DF01CC043F01DC044F031EF45
:1017BE000CF045C0D9FF46C0DAFFDECFF6FFDDCF15
:1017CE00F7FF0800F550250AD8A4F0EF0BF0F2EF62
:1017DE000BF009EF0CF045C0D9FF46C0DAFFDE2A48
:1017EE00000EDD22000E026E250E016E43C003F0C8
:1017FE0044C004F06DEC17F0000E446E010E436E03
:10180E0031EF0CF045C0D9FF46C0DAFFDE2A000EDC
:10181E00DD22000E446E000E436E31EF0CF045C01B
:10182E00D9FF46C0DAFFDECFF6FFDDCFF7FF0800A7
:10183E00F550016E026A43C003F044C004F06DEC33
:10184E0017F045C0D9FF46C0DAFFDE2A000EDD22B2
:10185E0003EF0CF012001EC036F01FC037F020C090
:10186E0038F021C039F022C03AF023C03BF024C03A
:10187E003CF025C03DF03DBE47EF0CF04AEF0CF0BA
:10188E00010E4BEF0CF0000E346E356A34503510ED
:10189E00D8B454EF0CF056EF0CF066EF0CF03D1E82
:1018AE003C1E3B1E3A1E391E381E371E366C000E6D
:1018BE003722382239223A223B223C223D22010194
:1018CE00CDBF6CEF0CF06EEF0CF070EF0CF0000172
:1018DE00F5930101CDBF7EEF0CF0CD5106E1CC05A5
:1018EE00D8B07CEF0CF07EEF0CF084EF0CF0000E15
:1018FE00316E010E306E88EF0CF0CCC130F0CDC1E0
:10190E0031F0CAC132F0CBC133F034503510D8A407
:10191E0093EF0CF095EF0CF09DEF0CF00001F5A598
:10192E009BEF0CF09DEF0CF0A0EF0CF03206D8A060
:10193E003306000E3F6E1F0E3E6E000E02015D6FEF
:10194E0025EF0DF03E06D8A03F063E0E3E24D96E82
:10195E00020E3F20DA6E36C001F037C002F038C0FA
:10196E0003F039C004F03AC005F03BC006F03CC0AD
:10197E0007F03DC008F00A0E096E000E0A6E000E4A
:10198E000B6E000E0C6E000E0D6E000E0E6E000E27
:10199E000F6E000E106E4EEC14F001C026F002C059
:1019AE0027F003C028F004C029F005C02AF006C0B5
:1019BE002BF007C02CF008C02DF026C013F028C065
:1019CE0014F01EEC1EF01350300FDF6E3006D8A050
:1019DE0031063206D8A0330636C001F037C002F009
:1019EE0038C003F039C004F03AC005F03BC006F031
:1019FE003CC007F03DC008F00A0E096E000E0A6EDC
:101A0E00000E0B6E000E0C6E000E0D6E000E0E6EA6
:101A1E00000E0F6E000E106EC7EC12F001C036F005
:101A2E0002C037F003C038F004C039F005C03AF0F8
:101A3E0006C03BF007C03CF008C03DF03FBE30EFA3
:101A4E000DF03F5008E13E04D8A030EF0DF032EF1C
:101A5E000DF063EF0DF036503710381039103A1084
:101A6E003B103C103D10D8A43FEF0DF041EF0DF0B0
:101A7E00A9EF0CF031BE4EEF0DF0315006E13004FF
:101A8E00D8B04CEF0DF04EEF0DF0A9EF0CF033BEC9
:101A9E0059EF0DF0335008E13204D8A059EF0DF094
:101AAE005BEF0DF063EF0DF00001F5B361EF0DF09C
:101ABE0063EF0DF0A9EF0CF034503510D8A46AEF97
:101ACE000DF06CEF0DF074EF0DF00001F5A572EF57
:101ADE000DF074EF0DF092EF0DF03E06D8A03F061C
:101AEE0034503510D8A47EEF0DF080EF0DF086EF58
:101AFE000DF0000E2F6E2B0E2E6E8AEF0DF0000ED7
:101B0E002F6E2D0E2E6E3E0E3E24D96E020E3F20EF
:101B1E00DA6E2EC0DFFF1CC011F01DC012F03E0E9B
:101B2E003E24136E020E3F20146E32C015F033C0E9
:101B3E0016F0D2EC17F011C01CF012C01DF01200FE
:101B4E000101CDBFADEF0DF0AFEF0DF0B1EF0DF028
:101B5E000001F5930101CDBFBFEF0DF0CD5106E1B0
:101B6E00CC05D8B0BDEF0DF0BFEF0DF0C5EF0DF009
:101B7E00000E346E010E336EC9EF0DF0CCC133F092
:101B8E00CDC134F0CAC135F0CBC136F00001F5A994
:101B9E00D3EF0DF0D5EF0DF0D9EF0DF0FE0E35268B
:101BAE00FF0E36221EC037F01FC038F020C039F0AD
:101BBE0021C03AF022C03BF023C03CF024C03DF0DF
:101BCE0025C03EF0000E406E1F0E3F6E000E02014D
:101BDE005D6FA5EF0EF03F06D8A040060F0E37142E
:101BEE00416E426A42BE05EF0EF0425009E10A0E06
:101BFE00415CD8A005EF0EF007EF0EF00FEF0EF0E0
:101C0E00570E4124416E000E4220426E15EF0EF02B
:101C1E00300E4124416E000E4220426EBF0E276EE2
:101C2E00FF0E286E2650296E2A6A27502926285024
:101C3E002A222A500AE11A0E295CD8A029EF0EF0AA
:101C4E002CEF0EF0010E2DEF0EF0000E2F6E306AFF
:101C5E002F503010D8B436EF0EF038EF0EF068EF8C
:101C6E000EF09F0E276EFF0E286E200E4110296E6D
:101C7E00000E42102A6E2750292628502A222A505A
:101C8E000AE11A0E295CD8A04FEF0EF052EF0EF0BB
:101C9E00010E53EF0EF0000E316E326A31503210DB
:101CAE00D8B45CEF0EF05EEF0EF068EF0EF041C0B0
:101CBE0007F042C008F0D3EC1BF007C041F008C09B
:101CCE0042F03E0E3F24D96E020E4020DA6E41C025
:101CDE00DFFF3306D8A034063506D8A0360637C047
:101CEE0027F038C028F039C029F03AC02AF03BC09E
:101CFE002BF03CC02CF03DC02DF03EC02EF0050E5A
:101D0E0092EF0EF0D8902E322D322C322B322A3208
:101D1E00293228322732E82E89EF0EF027C037F00D
:101D2E0028C038F029C039F02AC03AF02BC03BF059
:101D3E002CC03CF02DC03DF02EC03EF040BEB1EFA9
:101D4E000EF0405009E1020E3F5CD8A0B1EF0EF04C
:101D5E00B3EF0EF0E4EF0EF03750381039103A10A2
:101D6E003B103C103D103E10D8A4C0EF0EF0C2EF59
:101D7E000EF0F2EF0DF034BECFEF0EF0345006E160
:101D8E003304D8B0CDEF0EF0CFEF0EF0F2EF0DF032
:101D9E0036BEDAEF0EF0365008E13504D8A0DAEF91
:101DAE000EF0DCEF0EF0E4EF0EF00001F5B3E2EF13
:101DBE000EF0E4EF0EF0F2EF0DF00001F5A9EAEFF0
:101DCE000EF0ECEF0EF002EF0FF03F06D8A040063B
:101DDE003E0E3F24D96E020E4020DA6E26C0DFFF83
:101DEE003F06D8A040063E0E3F24D96E020E40207C
:101DFE00DA6E300EDF6E1CC011F01DC012F03E0EFA
:101E0E003F24136E020E4020146E35C015F036C0FE
:101E1E0016F0D2EC17F011C01CF012C01DF012001B
:101E2E00000E0201B96F000EB86F0001E8BF29EF76
:101E3E000FF0E85109E1110EE75DD8A029EF0FF080
:101E4E002BEF0FF039EF0FF0E8BF37EF0FF0E8513F
:101E5E0009E11F0EE75DD8A037EF0FF039EF0FF055
:101E6E0076EF0FF002013C510001E7190BE1020180
:101E7E003D510001E819D8B447EF0FF049EF0FF0CC
:101E8E0066EF0FF05E0E686F020E696FC90E6A6F15
:101E9E00080E6B6FE7C06CF0E8C06DF0B1EC1CF093
:101EAE00000E00017E6F010E7D6F5E0E7F6F020EC3
:101EBE00806F14EC16F0E7C03CF2E8C03DF2000172
:101ECE00ED05EE11D8A46EEF0FF070EF0FF073EF7B
:101EDE000FF0050E84EC20F00201B84BB92B000177
:101EEE00EABF85EF0FF0EA5107E1280EE95DD8B0A1
:101EFE0083EF0FF085EF0FF0C2EF0FF002013A51B2
:101F0E000001E9190BE102013B510001EA19D8B4B5
:101F1E0093EF0FF095EF0FF0B2EF0FF07C0E686FAE
:101F2E00020E696FC90E6A6F080E6B6FE9C06CF016
:101F3E00EAC06DF0B1EC1CF0000E00017E6F020ED7
:101F4E007D6F7C0E7F6F020E806F14EC16F0E9C071
:101F5E003AF2EAC03BF20001ED05EE11D8A4BAEF59
:101F6E000FF0BCEF0FF0BFEF0FF0060E84EC20F079
:101F7E000201B84BB92B0001ECBFD1EF0FF0EC51C1
:101F8E0007E13D0EEB5DD8B0CFEF0FF0D1EF0FF0C4
:101F9E00DFEF0FF0ECBFDFEF0FF0EC5107E10A0EB1
:101FAE00EB5DD8B0DDEF0FF0DFEF0FF01CEF10F0B0
:101FBE00020138510001EB190BE102013951000108
:101FCE00EC19D8B4EDEF0FF0EFEF0FF00CEF10F0BF
:101FDE009A0E686F020E696FC90E6A6F080E6B6FEC
:101FEE00EBC06CF0ECC06DF0B1EC1CF0000E00011B
:101FFE007E6F030E7D6F9A0E7F6F020E806F14EC54
:10200E0016F0EBC038F2ECC039F20001ED05EE111E
:10201E00D8A414EF10F016EF10F019EF10F0070E11
:10202E0084EC20F00201B84BB92B0201B851B91162
:10203E00D8A424EF10F026EF10F033EF10F00001CB
:10204E00ED05EE11D8A42EEF10F030EF10F033EFB7
:10205E0010F0040E84EC20F0B8C2E7F0B9C2E8F03C
:10206E0012000D6E87EC1CF0D8B040EF10F042EF6E
:10207E0010F039EF10F0CDEF10F00A2A0001F951EF
:10208E00D8A44CEF10F04EEF10F058EF10F0170EE2
:10209E000A6454EF10F056EF10F058EF10F0000EE7
:1020AE000A6EF905D8A45EEF10F060EF10F06AEF3B
:1020BE0010F03B0E0A6466EF10F068EF10F06AEF56
:1020CE0010F0000E0A6E020EF919D8A471EF10F07E
:1020DE0073EF10F07DEF10F01F0E0A6479EF10F021
:1020EE007BEF10F07DEF10F0010E0A6E030EF91962
:1020FE00D8A484EF10F086EF10F090EF10F00C0ED5
:10210E000A648CEF10F08EEF10F090EF10F0010ECD
:10211E000A6E040EF919D8A497EF10F099EF10F08B
:10212E00A3EF10F0630E0A649FEF10F0A1EF10F012
:10213E00A3EF10F0000E0A6E09C003F00D5022EC52
:10214E001FF00AC001F0026A000E046E0A0E036E42
:10215E0035EC18F00150300FDAEC1CF00AC001F02B
:10216E00026A000E046E0A0E036E97EC18F0015010
:10217E00300FDAEC1CF0040E0C6E0C0E0B6E340EDF
:10218E00E82EFED70B2EFCD70C2EFAD780A6D2EF58
:10219E0010F0D4EF10F044EF10F009C003F00D5022
:1021AE0022EC1FF0C60EDAEC1CF00928036E0D505F
:1021BE0022EC1FF0C60EDAEC1CF098EC1DF009C0F4
:1021CE0003F00D5022EC1FF00AC001F0026A000E5F
:1021DE00046E0A0E036E35EC18F00150300FDAEC77
:1021EE001CF00AC001F0026A000E046E0A0E036EA5
:1021FE0097EC18F00150300FDAEC1CF098EC1DF053
:10220E0080B40CEF11F00EEF11F0CDEF10F087EC63
:10221E001CF0D8A015EF11F017EF11F0CDEF10F064
:10222E000001F92B0A501200096E0950D8B422EFA2
:10223E0011F024EF11F046EF11F004BE2BEF11F068
:10224E0029EF11F046EF11F001C005F002C006F0C3
:10225E0003C007F004C008F0051E061E071E081E68
:10226E00052A000E06220722082205C00BF006C022
:10227E000CF007C00DF008C00EF04EEF11F001C0CB
:10228E000BF002C00CF003C00DF004C00EF00150B4
:10229E00021003100410D8A457EF11F059EF11F0EB
:1022AE0063EF11F0000E016E000E026E000E036E53
:1022BE00000E046EF4EF11F0960E0A6E6DEF11F033
:1022CE000A2AD8900E320D320C320B32000E0B143D
:1022DE00056E000E0C14066E000E0D14076EFE0E2B
:1022EE000E14086E0550061007100810D8A482EFC1
:1022FE0011F084EF11F067EF11F092EF11F00A2A4E
:10230E00010E0B26000E0C220D220E22D8900E323C
:10231E000D320C320B32000E0B14056E000E0C1427
:10232E00066E000E0D14076EFF0E0E14086E05508D
:10233E00061007100810D8A4A7EF11F0A9EF11F09E
:10234E0086EF11F0B1EF11F00A06D8900B360C366D
:10235E000D360E360DBEB6EF11F0B8EF11F0C0EF20
:10236E0011F0020E0A60BEEF11F0C0EF11F0ABEFEC
:10237E0011F00AB0C5EF11F0C7EF11F0C8EF11F070
:10238E000D9ED8900A320AC005F0066A076A086ADE
:10239E0005C008F0076A066A056A05500B1206505A
:1023AE000C1207500D1208500E120950D8B4E2EF5D
:1023BE0011F0E4EF11F0ECEF11F004BEEBEF11F0C1
:1023CE00E9EF11F0ECEF11F00E8E0BC001F00CC026
:1023DE0002F00DC003F00EC004F012000101D8513E
:1023EE006EEC20F00001FD6F0101D6516EEC20F075
:1023FE000001FE6FF7516EEC20F00001FF6F01013E
:10240E00D2516EEC20F00001FA6F0101D0516EEC4A
:10241E0020F00001FB6F0101CE516EEC20F00001A7
:10242E00FC6FFFC001F0026A000E046E0A0E036E0E
:10243E0035EC18F00150300F0101F16FFFC001F0C3
:10244E00026A000E046E0A0E036E97EC18F001502D
:10245E00300F0101F26FFEC001F0026A000E046E31
:10246E000A0E036E35EC18F00150300F0101F46FB7
:10247E00FEC001F0026A000E046E0A0E036E97ECA7
:10248E0018F00150300F0101F56FFDC001F0026A26
:10249E00000E046E0A0E036E35EC18F00150300F6C
:1024AE000101F76FFDC001F0026A000E046E0A0E04
:1024BE00036E97EC18F00150300F0101F86FFAC05F
:1024CE0001F0026A000E046E0A0E036E35EC18F06F
:1024DE000150300F0201E06FFAC001F0026A000EE7
:1024EE00046E0A0E036E97EC18F00150300F0201C5
:1024FE00E16FFBC001F0026A000E046E0A0E036E5D
:10250E0035EC18F00150300F0201E36FFBC001F003
:10251E00026A000E046E0A0E036E97EC18F001505C
:10252E00300F0201E46FFCC001F0026A000E046E6F
:10253E000A0E036E35EC18F00150300F0201E86FF1
:10254E00FCC001F0026A000E046E0A0E036E97ECD8
:10255E0018F00150300F0201E96F000E056EEB0E00
:10256E00066E010E076E010EFEEC1DF0000E056EDE
:10257E00DA0E066E020E076E020EFEEC1DF0120053
:10258E00000E126E10BED0EF12F0CEEF12F0E2EF90
:10259E0012F0101E0F1E0E1E0D1E0C1E0B1E0A1EFE
:1025AE00096C000E0A220B220C220D220E220F2283
:1025BE001022010E126E08BEE9EF12F0E7EF12F0D4
:1025CE00FBEF12F0081E071E061E051E041E031E3C
:1025DE00021E016C000E0222032204220522062294
:1025EE0007220822010E121A20EE13F0070EDE6AE1
:1025FE00E806FDE209500A100B100C100D100E101B
:10260E000F101010D8B40EEF13F010EF13F062EF9E
:10261E0013F0010E116E1EEF13F0D89009360A3624
:10262E000B360C360D360E360F361036112A10AE0E
:10263E0023EF13F025EF13F014EF13F0D8901336A9
:10264E001436153616361736183619361A36095008
:10265E00015C0A5002580B5003580C5004580D5090
:10266E0005580E5006580F50075810500858D8A04D
:10267E0043EF13F045EF13F056EF13F00950015EE0
:10268E000A50025A0B50035A0C50045A0D50055A58
:10269E000E50065A0F50075A1050085A1380D890F1
:1026AE0010320F320E320D320C320B320A32093228
:1026BE00112E25EF13F01250D8B468EF13F06AEF15
:1026CE0013F07AEF13F01A1E191E181E171E161E7F
:1026DE00151E141E136C000E14221522162217221C
:1026EE00182219221A2213C001F014C002F015C0CC
:1026FE0003F016C004F017C005F018C006F019C09C
:10270E0007F01AC008F0120021EEE4F010EE0FF000
:10271E00060EDBCFE3FFE806FCE20CC01AF00DC09C
:10272E001BF01A501B10D8A49FEF13F0A1EF13F05B
:10273E00A5EF13F00F0E1A6E000E1B6E1AC001F0ED
:10274E001BC002F007EC1FF001C01EF002C01FF00C
:10275E00CCC11CF0CDC11DF01DBEB8EF13F0BAEF09
:10276E0013F0CFEF13F01E501C5C1D50800A0E6E3E
:10277E001F50800A0E58D8A0C7EF13F0C9EF13F000
:10278E00CBEF13F0CFEF13F01CC01EF01DC01FF0E7
:10279E001EC01CF01FC01DF0CAC118F0CBC119F02D
:1027AE000001F5B1DDEF13F0DFEF13F0FCEF13F0E6
:1027BE00EDEF13F0000E026E200E016E0AC003F054
:1027CE000BC004F06DEC17F01E4A1F2A18501E5C49
:1027DE001F50800A0E6E1950800A0E58D8A0FAEFBC
:1027EE0013F0FCEF13F0E1EF13F0000E176E000E76
:1027FE00166E15EF14F01AC0D9FF1BC0DAFFDF50AA
:10280E000E6E0E50016E026A0AC003F00BC004F089
:10281E006DEC17F01A4A1B2A164A172A1C50165C22
:10282E001750800A0E6E1D50800A0E58D8A022EF47
:10283E0014F024EF14F002EF14F00001F5A12AEFCA
:10284E0014F02CEF14F049EF14F03AEF14F0000EE0
:10285E00026E200E016E0AC003F00BC004F06DEC88
:10286E0017F01E4A1F2A18501E5C1F50800A0E6E4B
:10287E001950800A0E58D8A047EF14F049EF14F003
:10288E002EEF14F01EC00AF01FC00BF01200000E47
:10289E00126E08BE57EF14F055EF14F069EF14F0F6
:1028AE00081E071E061E051E041E031E021E016CB8
:1028BE00000E0222032204220522062207220822EB
:1028CE00010E126E10BE70EF14F06EEF14F080EF6A
:1028DE0014F0101E0F1E0E1E0D1E0C1E0B1E0A1EB9
:1028EE00096C000E0A220B220C220D220E220F2240
:1028FE00102209500A100B100C100D100E100F1094
:10290E001010D8B48DEF14F08FEF14F0D7EF14F041
:10291E00010E116E9DEF14F0D89009360A360B3663
:10292E000C360D360E360F361036112A10AEA2EFBB
:10293E0014F0A4EF14F093EF14F00950015C0A5058
:10294E0002580B5003580C5004580D5005580E5099
:10295E0006580F50075810500858D8A0B9EF14F069
:10296E00BBEF14F0CBEF14F00950015E0A50025A7F
:10297E000B50035A0C50045A0D50055A0E50065A5D
:10298E000F50075A1050085AD89010320F320E328C
:10299E000D320C320B320A320932112EA4EF14F022
:1029AE001250D8B4DDEF14F0DFEF14F0EFEF14F0A7
:1029BE00081E071E061E051E041E031E021E016CA7
:1029CE00000E0222032204220522062207220822DA
:1029DE0001C001F002C002F003C003F004C004F015
:1029EE0005C005F006C006F007C007F008C008F0E5
:1029FE00120080B405EF15F007EF15F081EF15F01A
:102A0E0087EC1CF0D8A00EEF15F010EF15F081EF4B
:102A1E0015F0000E0001F96F060E096EFFC00AF0E8
:102A2E00010E38EC10F00001FF6F090E096EFEC0AA
:102A3E000AF0010E38EC10F00001FE6F060E096E62
:102A4E00FAC00AF0020E38EC10F00001FA6F090E0F
:102A5E00096EFBC00AF0020E38EC10F00001FB6F9D
:102A6E000E0E096EFCC00AF0020E38EC10F00001DA
:102A7E00FC6F87EC1CF0D8B047EF15F049EF15F05E
:102A8E0040EF15F00001FE5198EC1EF00001FE6FB4
:102A9E00FF5198EC1EF00001FF6FFA5198EC1EF0FA
:102AAE000001FA6FFB5198EC1EF00001FB6FFC5118
:102ABE0098EC1EF00001FC6FFEC003F0FFC004F0A6
:102ACE00050E056E000ECCEC1FF0FAC003F0FBC035
:102ADE0004F0FCC005F0010EE2EC1FF0030E0F6EC9
:102AEE00080E0E6E770EE82EFED70E2EFCD70F2E8A
:102AFE00FAD700F0000E2AEC1DF0030E2FEC1CF09E
:102B0E00F5EC11F0820E0E6EDE0EE82EFED70E2EB6
:102B1E00FCD712002A342B34316E3150D8A49AEFE0
:102B2E0015F09CEF15F0A6EF15F0000E286E000EB6
:102B3E00296E000E2A6E000E2B6E13EF16F028C0B3
:102B4E002CF029C02DF02AC02EF02BC02FF0200E15
:102B5E00B6EF15F0D8902F322E322D322C32E82EC1
:102B6E00B1EF15F02C50306E2A8EFF0E2816FF0E88
:102B7E002916FF0E2A16000E2B16960E315E31BE4A
:102B8E00CDEF15F0CBEF15F0E3EF15F03150800AD5
:102B9E00970FD8B0D5EF15F0D7EF15F0D9EF15F098
:102BAE009CEF15F0D8902B322A3229322832313E42
:102BBE00D9EF15F0FBEF15F01F0E3164E9EF15F0AC
:102BCE00EBEF15F0F3EF15F09CEF15F0D8902836DB
:102BDE0029362A362B3631063150D8A4F9EF15F0A6
:102BEE00FBEF15F0EDEF15F03050D8B401EF16F005
:102BFE0003EF16F00BEF16F02B1E2A1E291E286C63
:102C0E00000E29222A222B2228C028F029C029F0C2
:102C1E002AC02AF02BC02BF0120000017D057E1178
:102C2E00D8A41CEF16F01EEF16F03DEF16F00EECCA
:102C3E0020F07BC0E5F07CC0E6F0810E0001686FED
:102C4E00000E696F2B0E6A6F080E6B6FE5C06CF08D
:102C5E00E6C06DF07FC06EF080C06FF0B1EC1CF07E
:102C6E00810E026E000E036E6FEC1FF0020E00015D
:102C7E007D197E11D8A446EF16F048EF16F067EFD7
:102C8E0016F00EEC20F07BC0E5F07CC0E6F0000EF6
:102C9E000001686F010E696F4D0E6A6F080E6B6F43
:102CAE00E5C06CF0E6C06DF07FC06EF080C06FF0D6
:102CBE00B1EC1CF0000E026E010E036E6FEC1FF0F5
:102CCE00030E00017D197E11D8A470EF16F072EF7D
:102CDE0016F091EF16F00EEC20F07BC0E5F07CC004
:102CEE00E6F0640E0001686F010E696F010E6A6FE7
:102CFE00080E6B6FE5C06CF0E6C06DF07FC06EF035
:102D0E0080C06FF0B1EC1CF0640E026E010E036E0B
:102D1E006FEC1FF01200000E056EB20E066E080E5E
:102D2E00076E000EFEEC1DF020EE82F00F0EDE6A36
:102D3E00E806FDE2820E0001686F000E696FB90EA3
:102D4E006A6F080E6B6F7AC06CF07BC06DF0B1ECE1
:102D5E001CF020EE92F00F0EDE6AE806FDE2920EF7
:102D6E000001686F000E696FBE0E6A6F080E6B6F02
:102D7E007CC06CF07DC06DF0B1EC1CF020EEA2F0CA
:102D8E000F0EDE6AE806FDE2A20E0001686F000E6D
:102D9E00696FC20E6A6F080E6B6F7EC06CF07FC0DB
:102DAE006DF0B1EC1CF0C00E02EC1DF0000E056EC5
:102DBE00820E066E000E076E030EFEEC1DF0060E62
:102DCE00056E920E066E000E076E030EFEEC1DF0E3
:102DDE000B0E056EA20E066E000E076E030EFEECB7
:102DEE001DF00A0E0001816F220E806FA10EE82EDB
:102DFE00FED7802FFCD7812FFAD7D3EC20F012000C
:102E0E00050E00017A6F000E2AEC1DF08FEC20F0FB
:102E1E000001F7AD15EF17F017EF17F052EF17F09F
:102E2E00F7AB1CEF17F01EEF17F03AEF17F01F0E6F
:102E3E00F715F76FF86B780E686F030E696F800EDB
:102E4E006A6F080E6B6FF7C06CF0F8C06DF0D6C1EC
:102E5E006EF0D7C16FF0D8C170F0D9C171F0B1EC7E
:102E6E001CF06CEF17F0780E686F030E696F6E0E24
:102E7E006A6F080E6B6FF7C06CF0F8C06DF0D6C1BC
:102E8E006EF0D7C16FF0D8C170F0D9C171F0B1EC4E
:102E9E001CF06CEF17F03F0EF715F76FF86B780E0E
:102EAE00686F030E696FA20E6A6F080E6B6FF7C024
:102EBE006CF0F8C06DF0D6C16EF0D7C16FF0D8C10E
:102ECE0070F0D9C171F0B1EC1CF012000350041077
:102EDE00D8B474EF17F076EF17F07FEF17F00350BA
:102EEE000410D8A47DEF17F07FEF17F084EF17F0E2
:102EFE000150DAEC20F0D1EF17F020EE04F0035081
:102F0E00D9260450DA22DE50DE10D8B491EF17F035
:102F1E0093EF17F0AEEF17F020EE04F00350D92622
:102F2E000450DA2210EE02F00350E1260450E222A1
:102F3E00DE50E65CE650800A096EDE50800A0958C3
:102F4E00D8B0ACEF17F0AEEF17F0D1EF17F020EED0
:102F5E0002F00350D9260450DA22DECF05F0DDCF81
:102F6E0006F003C0D9FF04C0DAFFDECF07F0DDCFD5
:102F7E0008F005500724D96E06500820DA6E01C0FD
:102F8E00DFFF20EE02F00350D9260450DA22DE2AAB
:102F9E00000EDD2212000001F5A1D8EF17F0DAEFD6
:102FAE0017F0E4EF17F013C00AF014C00BF011C0C5
:102FBE000CF012C00DF0BBEC1DF016BEE9EF17F0D1
:102FCE00EBEF17F0F1EF17F015C01AF016C01BF06B
:102FDE00F5EF17F0000E1B6E000E1A6E000E196E36
:102FEE00000E186E07EF18F0000E026E200E016E26
:102FFE0011C003F012C004F06DEC17F0184A192A34
:10300E001A50185C1950800A176E1B50800A1758F8
:10301E00D8A014EF18F016EF18F0FBEF17F0000120
:10302E00F5B11CEF18F01EEF18F028EF18F013C0D2
:10303E000AF014C00BF011C00CF012C00DF0BBEC76
:10304E001DF013C001F014C002F007EC1FF01A506F
:10305E000124116E1B500220126E1200000E066E1D
:10306E0004BE3EEF18F03CEF18F044EF18F0036C7E
:10307E00041ED8B0042A010E066E02BE4BEF18F0E5
:10308E0049EF18F051EF18F0016C021ED8B0022A69
:10309E00010E061A000E086E000E076E0350041085
:1030AE00D8B45CEF18F05EEF18F086EF18F0010E52
:1030BE00056E66EF18F0D89003360436052A04AE76
:1030CE006BEF18F06DEF18F062EF18F0D89007362E
:1030DE0008360350015C04500258D8A079EF18F05E
:1030EE007BEF18F080EF18F00350015E0450025A87
:1030FE000780D89004320332052E6DEF18F006507B
:10310E00D8B48CEF18F08EEF18F092EF18F0076C21
:10311E00081ED8B0082A07C001F008C002F012003D
:10312E00000E066E02BEA0EF18F09EEF18F0A6EF8E
:10313E0018F0016C021ED8B0022A010E066E04BEF3
:10314E00ADEF18F0ABEF18F0B1EF18F0036C041EF2
:10315E00D8B0042A03500410D8B4B8EF18F0BAEF60
:10316E0018F0DEEF18F0010E056EC2EF18F0D890D1
:10317E0003360436052A04AEC7EF18F0C9EF18F06F
:10318E00BEEF18F00350015C04500258D8A0D2EFE5
:10319E0018F0D4EF18F0D8EF18F00350015E045079
:1031AE00025AD89004320332052EC9EF18F0065099
:1031BE00D8B4E4EF18F0E6EF18F0EAEF18F0016C6F
:1031CE00021ED8B0022A01C001F002C002F01200A5
:1031DE00949C948E38C001F039C002F03AC003F0CE
:1031EE003BC004F0010E1BEC11F001C013F002C045
:1031FE0014F003C015F004C016F0000E0F6E240E6E
:10320E00106EF40E116E470E126EDCEC08F00FC04D
:10321E0028F010C029F011C02AF012C02BF0000EB9
:10322E002C6E000E2D6E800E2E6EBF0E2F6E67EC66
:10323E0004F028C03CF029C03DF02AC03EF02BC05F
:10324E003FF03CC028F03DC029F03EC02AF03FC000
:10325E002BF091EC15F02850AF6E200EAC6E900E48
:10326E00AB6E1200C7EC20F04FEC1DF001C0E2F186
:10327E0002C0E3F10101E35107E1270EE25DD8B090
:10328E004BEF19F04DEF19F05EEF19F0E35109E134
:10329E000D0EE25DD8A056EF19F058EF19F05EEF63
:1032AE0019F0020EE227000EE3237DEF19F0E35131
:1032BE0009E1270EE25DD8A067EF19F069EF19F06A
:1032CE006FEF19F0030EE227000EE3237DEF19F0E6
:1032DE00E35107E10D0EE25DD8B078EF19F07AEF09
:1032EE0019F07DEF19F0E207D8A0E307E2C105F06F
:1032FE00E3C106F0120022EED2F010EE07F0070E38
:10330E00DBCFE3FFE806FCE222EECAF010EE0FF090
:10331E00070EDBCFE3FFE806FCE222EEC2F010EE72
:10332E0017F0070EDBCFE3FFE806FCE222EEBAF061
:10333E0010EE1FF0070EDBCFE3FFE806FCE21F0ED8
:10334E00036E000E046E040E74EC1DF0070E036E79
:10335E00000E046E050E74EC1DF00F0E036E000EC3
:10336E00046E060E74EC1DF0170E036E000E046E46
:10337E00070E74EC1DF012000001EF51F011D8A4ED
:10338E00CBEF19F0CDEF19F0D2EF19F08A8A8A98A7
:10339E008A9603EF1AF0EF05F011D8A4D9EF19F0C1
:1033AE00DBEF19F0E0EF19F08A9A8A888A9603EF1C
:1033BE001AF0F0BFEBEF19F0F05108E1EF05D8A0CD
:1033CE00EBEF19F0EDEF19F000EF1AF0F0BFFBEF95
:1033DE0019F0F05107E1040EEF5DD8B0F9EF19F0D6
:1033EE00FBEF19F000EF1AF08A9A8A988A8603EF9B
:1033FE001AF08A8A8A888A8612009282000E046ED9
:10340E00010E036EBFEC20F0F8EC1FF001C0DCF1F2
:10341E0002C0DDF1DCC101F0DDC102F0000E046E70
:10342E00050E036E23EC20F00A0E106ED8900232B9
:10343E000132102E1DEF1AF001C0DCF102C0DDF1D9
:10344E00DCC101F0DDC102F0000E046E640E036EED
:10345E0023EC20F001C007F002C008F0000E0A6E47
:10346E00050E096E39EC1BF007C0DAF108C0DBF16E
:10347E00DAC10EF0DBC10FF01200800E386E250E91
:10348E00396E000E3A6E000E3B6EEFEC18F047EC04
:10349E0020F03CEC1FF0CEEC20F0000E0201376F56
:1034AE00010E366F80A85EEF1AF060EF1AF06CEF27
:1034BE001AF0020136513711D8A468EF1AF06AEFEC
:1034CE001AF06CEF1AF0FEEC1AF080A871EF1AF0F9
:1034DE0073EF1AF059EF1AF0020136053711D8A41E
:1034EE007BEF1AF07DEF1AF059EF1AF002EC1CF098
:1034FE0059EF1AF000EF00F09280000E046E000EED
:10350E00036EBFEC20F0F8EC1FF001C0DEF102C03C
:10351E00DFF1E30E136E360E146EFA0E156E3E0EBE
:10352E00166EDEC101F0DFC102F0000E02BEFF0E0C
:10353E00036E046E010E1BEC11F001C00FF002C001
:10354E0010F003C011F004C012F0C7EC06F00FC06B
:10355E0028F010C029F011C02AF012C02BF091EC07
:10356E0015F028C0E0F129C0E1F1E0C132F0E1C16F
:10357E0033F01200AC0EF66E3E0EF76E000EF86EC5
:10358E0002EEBAF010EE31F00900F5CFEEFFE55085
:10359E00E150FAE1C60EF66E400EF76E000EF86EB2
:1035AE0001EEE4F010EE16F00900F5CFEEFFE55057
:1035BE00E150FAE103EE00F0F00EEE6AE806FDE1EE
:1035CE0002EE00F05E0EEE6AE806FDE101EEC8F0D6
:1035DE001C0EEE6AE806FDE100EEF5F00B0EEE6A4B
:1035EE00E806FDE1000EF86E000144EF1AF0D3EC90
:1035FE0020F082EC19F0000E0001F26F010EF16F57
:10360E005CEC1CF034C27AF035C27BF032C27CF036
:10361E0033C27DF030C27EF031C27FF092EC16F0F4
:10362E0080B81CEF1BF01EEF1BF002EF1BF0030E19
:10363E000001F46F080EF36F770EE82EFED7F32F0E
:10364E00FCD7F42FFAD7000E0201376F010E366F3A
:10365E001A0E0001F36FF80EE82EFED7F32FFCD7EB
:10366E0000F01200000E0C6E000E0B6E09500A10C8
:10367E00D8B444EF1BF046EF1BF06EEF1BF0010EBB
:10368E000D6E4EEF1BF0D89009360A360D2A0AAE93
:10369E0053EF1BF055EF1BF04AEF1BF0D8900B3693
:1036AE000C360950075C0A500858D8A061EF1BF081
:1036BE0063EF1BF068EF1BF00950075E0A50085AC3
:1036CE000B80D8900A3209320D2E55EF1BF00BC02D
:1036DE0007F00CC008F0120062C066F063C067F01D
:1036EE00000E0101C96F000EC86F91EF1BF060C094
:1036FE0043F061C044F0660E456E000E466E64C027
:10370E0047F065C048F0A9EC0AF043500101C82704
:10371E004450C92366C0F6FF67C0F7FF0800F55096
:10372E000009D8A49DEF1BF09FEF1BF07EEF1BF05E
:10373E00C8C160F0C9C161F01200BAEF1BF003C03E
:10374E00F6FF04C0F7FFF86A070EF76403D008000F
:10375E00F55005D0F6CFE1FFF7CFE2FFE750DAECF8
:10376E001CF0034A042A03C0F6FF04C0F7FFF86AF0
:10377E00070EF76403D00800F55005D0F6CFE1FF31
:10378E00F7CFE2FFE7500009D8A4D0EF1BF0D2EF3D
:10379E001BF0A6EF1BF012009F0E096EFF0E0A6EB5
:1037AE0007C00BF008C00CF009500B260A500C2273
:1037BE000C500AE11A0E0B5CD8A0E8EF1BF0EBEFF1
:1037CE001BF0010EECEF1BF0000E0D6E0E6A0D508D
:1037DE000E10D8B4F5EF1BF0F7EF1BF0FDEF1BF05A
:1037EE005F0E0714076E086A01EF1CF007C007F0A2
:1037FE0008C008F01200D3EC20F0000E0001F26FAA
:10380E00000EF16F5CEC1CF000EC15F080B812EFBE
:10381E001CF014EF1CF004EF1CF0020E0001F46F0C
:10382E00380EF36FAD0EE82EFED7F32FFCD7F42F24
:10383E00FAD7000E0201376F000E366F1A0E000116
:10384E00F36FF80EE82EFED7F32FFCD700F0120020
:10385E00046ED00E9EEC1FF0045036EC20F0D10E0C
:10386E00B5EC1FF0000E7BEC1EF0036E0350010151
:10387E00D46FD56B000E7BEC1EF0036E035001016E
:10388E00D26FD36B000E7BEC1EF0036E0350010162
:10389E00D06FD16B010E7BEC1EF0036E0350010155
:1038AE00CE6FCF6B8FEC20F0120039EC19F005C003
:1038BE0034F206C035F283EC1AF032C032F233C065
:1038CE0033F204EC1AF00EC030F20FC031F232C2F5
:1038DE00E7F033C2E8F034C2E9F035C2EAF030C2A4
:1038EE00EBF031C2ECF0F1C0EDF0F2C0EEF017ECFF
:1038FE000FF0E7C0EFF0E8C0F0F0C3EC19F01200E3
:10390E00000E026E000E036E80B490EF1CF092EF6C
:10391E001CF093EF1CF0022A1A0E016EF80EE82E20
:10392E00FED7012EFCD700D0032A040E0364A2EFAB
:10393E001CF0A4EF1CF08BEF1CF0020E0264AAEF39
:10394E001CF0ACEF1CF0AFEF1CF0D880B0EF1CF009
:10395E00D89012006C0E0001726F000E736F68C06B
:10396E0074F069C075F0000E776F000E766F000E62
:10397E00796F000E786F740E606F000E616F6AC003
:10398E0062F06BC063F0720E646F000E656F73ECC5
:10399E001BF0000176516825D96E77516921DA6ED8
:1039AE00000EDF6E1200026E02C001F0F00E011664
:1039BE008C500F0B01108C6E8C808C8200F08C92D0
:1039CE00030E016E980EE82EFED7012EFCD702C014
:1039DE0001F0013AF00E01168C500F0B01108C6E97
:1039EE008C8200F08C92080E016ECA0EE82EFED765
:1039FE00012EFCD71200026E02C001F0F00E01166D
:103A0E008C500F0B01108C6E8C908C8200F08C926F
:103A1E00030E016E980EE82EFED7012EFCD702C0C3
:103A2E0001F0013AF00E01168C500F0B01108C6E46
:103A3E008C8200F08C92080E016ECA0EE82EFED714
:103A4E00012EFCD71200046ED00E9EEC1FF0045017
:103A5E0036EC20F0D10EB5EC1FF0000E7BEC1EF014
:103A6E00036E03500101D86FD96B000E7BEC1EF074
:103A7E00036E03500101D66FD76B010E7BEC1EF067
:103A8E00036E03500001F76FF86B8FEC20F01200FD
:103A9E00000E046E000E036E8B80060EE82EFED70F
:103AAE0000D08B9082A25EEF1DF060EF1DF059EFFB
:103ABE001DF068EF1DF0034A042A260EE82EFED7ED
:103ACE0000D082B26DEF1DF06FEF1DF062EF1DF0B2
:103ADE0003C001F004C002F01200056E080E05606E
:103AEE007BEF1DF07DEF1DF097EF1DF00550080DDB
:103AFE00F350400F02EC1DF0000E066E065003242C
:103B0E00D96E000E0420DA6EDF50DAEC1CF0062AB5
:103B1E00070E066495EF1DF097EF1DF085EF1DF073
:103B2E001200000E026EA4EF1DF0022A0D0E016EA1
:103B3E00FC0EE82EFED7012EFCD7640E0260AAEF13
:103B4E001DF0ACEF1DF0BAEF1DF080A4B1EF1DF02B
:103B5E00B3EF1DF0BAEF1DF080B6B8EF1DF0BAEF5F
:103B6E001DF09CEF1DF01200000E106E000E0F6E79
:103B7E00CCEF1DF00EC001F0026A0CC003F00DC0B8
:103B8E0004F06DEC17F00F4A102A0F500A24D96E6C
:103B9E0010500B20DA6EDF500E6E0E50D8A4DAEFF6
:103BAE001DF0DCEF1DF0C1EF1DF01200C150F00B47
:103BBE000D09C16ECF0EC11601500210D8A4EAEF46
:103BCE001DF0ECEF1DF0F0EF1DF0C30EC216F4EF7A
:103BDE001DF0C250C30B0409C26EC050C70B1009B2
:103BEE00C06EC050F80B0109C06EC2801200086E84
:103BFE00020E086005EF1EF007EF1EF010EF1EF02C
:103C0E0005500F0B8009096E095002EC1DF017EFDD
:103C1E001EF005500F0BC009096E095002EC1DF085
:103C2E0006C003F007C004F0A4EC1BF0120014BE93
:103C3E002BEF1EF0145006E11304D8B029EF1EF03E
:103C4E002BEF1EF039EF1EF013C015F014C016F056
:103C5E00151E161E154A162A15C013F016C014F09E
:103C6E003DEF1EF013C013F014C014F0120007C085
:103C7E0009F008C00AF005C00BF006C00CF009C030
:103C8E00D9FF0AC0DAFF094A0A2A0BC0E1FF0CC0AD
:103C9E00E2FF0B4A0C2ADFCFE7FFE750D8A45AEF1A
:103CAE001EF05CEF1EF046EF1EF012009F0E036E2C
:103CBE00FF0E046E200E0110056E000E0210066E31
:103CCE00035005260450062206500AE11A0E055C22
:103CDE00D8A074EF1EF077EF1EF0010E78EF1EF0F5
:103CEE00000E016E026A1200016EC586C7A082EF39
:103CFE001EF084EF1EF07DEF1EF0C9CF02F00150D2
:103D0E00D8A48CEF1EF08EEF1EF092EF1EF0A3ECF7
:103D1E0020F094EF1EF099EC20F0ADEC20F0025064
:103D2E0012000B6E0BC001F0026A000E046E0A0E3A
:103D3E00036E97EC18F001C009F002C00AF00BC038
:103D4E0001F0026A000E046E0A0E036E35EC18F0D6
:103D5E000150100DF350092412009F0E036EFF0E3A
:103D6E00046E01C005F002C006F003500526045093
:103D7E00062206500AE11A0E055CD8A0C9EF1EF005
:103D8E00CCEF1EF0010ECDEF1EF0000E016E026A9A
:103D9E001200BF0E036EFF0E046E01C005F002C0CE
:103DAE0006F0035005260450062206500AE11A0EAC
:103DBE00055CD8A0E5EF1EF0E8EF1EF0010EE9EF6E
:103DCE001EF0000E016E026A1200030E2FEC1CF0A4
:103DDE00B40E0001686F030E696F920E6A6F080EC3
:103DEE006B6FD2C16CF0D3C16DF0D0C16EF0D1C18A
:103DFE006FF0CEC170F0CFC171F0B1EC1CF01200BB
:103E0E0001C003F002C004F00FEF1FF0014A022AB6
:103E1E0001C0D9FF02C0DAFFDF50D8A419EF1FF09E
:103E2E001BEF1FF00DEF1FF00350015C016E0450ED
:103E3E000258026E1200046E020E046029EF1FF08B
:103E4E002BEF1FF034EF1FF003500F0B8009056EA0
:103E5E00055002EC1DF03BEF1FF003500F0BC00995
:103E6E00056E055002EC1DF01200000E956E270E29
:103E7E00036EF50EE82EFED7032EFCD700F0020ED1
:103E8E0002EC1DF0280E02EC1DF0010E02EC1DF0EE
:103E9E000C0E02EC1DF0060E02EC1DF01200000AD4
:103EAE000A001F0E04000A0A0A1F110E0404000065
:103EBE0004021F02040004150E1F0E1504004441D7
:0F3ECE0054453A2030302F30302F323030300012
:103EDE007AEF1FF002C0D9FF03C0DAFFDF5079EC92
:103EEE0020F0024A032A02C0D9FF03C0DAFFDF50D6
:103EFE00D8A484EF1FF086EF1FF071EF1FF01200B1
:103F0E000DC001F00EC002F007EC1FF001500D24A1
:103F1E00056E02500E20066E0FC007F010C008F09E
:103F2E003EEC1EF00DC00DF00EC00EF01200026E33
:103F3E00C580C5B0A5EF1FF0A7EF1FF0A0EF1FF0D3
:103F4E009E96C7B6ADEF1FF0AFEF1FF0B1EF1FF0AB
:103F5E00B4EF1FF0025036EC20F01200026EC58254
:103F6E00C5B2BCEF1FF0BEEF1FF0B7EF1FF09E966D
:103F7E00C7B6C4EF1FF0C6EF1FF0C8EF1FF0CBEFB0
:103F8E001FF0025036EC20F01200066E04500510A1
:103F9E00046ED00E9EEC1FF0000E36EC20F0065094
:103FAE0036EC20F0035036EC20F0045036EC20F0C6
:103FBE008FEC20F01200066ED00E9EEC1FF0030E5A
:103FCE0036EC20F0065036EC20F0035036EC20F0A4
:103FDE00045036EC20F0055036EC20F08FEC20F03B
:103FEE001200C282C2B2FEEF1FF000EF20F0F9EF16
:103FFE001FF0C4CF05F0066A0550036EC350056E60
:10400E0003C006F005C001F006C002F0120056EC27
:10401E0020F007EC17F0ECEC1EF0B40E0D6E030E54
:10402E000E6E780E0F6E030E106E87EC1FF00DC025
:10403E007BF00EC07CF0120001500302F3CF05F0AE
:10404E00F4CF06F001500402F3500626025003028C
:10405E00F350062605C001F006C002F01200016EF4
:10406E0001C0C9FFADEC20F0C5AC40EF20F042EF2F
:10407E0020F045EF20F0010E46EF20F0020E120068
:10408E00700ED312D350FC0B0209D36E720ED36E88
:10409E00F19ED7EC20F0B6EC20F0938812009380BE
:1040AE009382500EC76E280EC66E000EC56E130E8E
:1040BE00C86E9D869E961200286E756C6C290054F3
:1040CE00494D453A2030303A30303A303000026EA9
:1040DE0002C001F00F0E011602380F0B0A0DF3503D
:1040EE0001241200016E9EA87FEF20F081EF20F0D8
:1040FE007AEF20F001C0ADFF1200036E0350020DE7
:10410E00F350800902EC1DF00350DAEC1CF01200A3
:10411E00C584C5B495EF20F097EF20F090EF20F016
:10412E00C7501200C58AC588C5B8A0EF20F0A2EF0F
:10413E0020F09BEF20F01200C59AC588C5B8AAEFF3
:10414E0020F0ACEF20F0A5EF20F012009EA6B2EF0B
:10415E0020F0B4EF20F0ADEF20F09E961200C1508B
:10416E00F00B0D09C16E928492863CEC1FF012008A
:10417E0003C001F004C002F0DDEC1DF0C08E120091
:10418E000F0EC1128B928B90948294901200939C7E
:10419E00939A939693981200010E02EC1DF0120062
:0841AE0056EC20F01200120093
:020000040020DA
:08000000FFFFFFFFFFFFFFFF00
:020000040030CA
:0E00000000081F1EFF8181FF0FC00FE00F40A0
:00000001FF
