:020000040000FA
:04000000EEEF1AF015
:1008000000257320416C65727461206465204C750D
:100810006D696E6F73696461643A20257320506F4F
:10082000726369656E746F200D0A00257320416C38
:10083000657274612064652054656D7065726174C1
:100840007572613A2025732047200D0A0025732018
:10085000416C657274612064652044697374616ED3
:100860006369613A20257320436D200D0A005469A5
:100870006D653A2025783A25783A257820414D0053
:1008800054696D653A2025783A25783A25782050C4
:100890004D00446174653A2025782F25782F2578FE
:1008A000200054696D653A2025783A25783A2578F4
:1008B0002000443A543A4C3A002564636D002564A4
:0D08C0004700256450002020002564000042
:1008CE002B50800B346E2B502B24366E2AAE72EFCB
:1008DE0004F074EF04F075EF04F036803650D8B49F
:1008EE007BEF04F07DEF04F092EF04F03628D8A4ED
:1008FE0083EF04F085EF04F08DEF04F0000E286E08
:10090E00000E296E000E2A6E000E2B6E2A8E000E21
:10091E002B6E9AEF04F0000E286E000E296E000E5C
:10092E002A6E000E2B6E2F50800B356E34503518FC
:10093E00D8B4A4EF04F0A6EF04F0A7EF04F0348CC3
:10094E002F502F24356E2EAEAFEF04F0B1EF04F022
:10095E00B2EF04F035803550D8B4B8EF04F0BAEFEA
:10096E0004F0CFEF04F03528D8A4C0EF04F0C2EFA6
:10097E0004F0CAEF04F0000E2C6E000E2D6E000E69
:10098E002E6E000E2F6E2E8E000E2F6ED7EF04F0F1
:10099E00000E2C6E000E2D6E000E2E6E000E2F6EA3
:1009AE003650355CD8B0DEEF04F0E0EF04F007EF20
:1009BE0005F034ACE5EF04F0E7EF04F0E9EF04F0F6
:1009CE00800E341A36C037F035C036F037C035F0E9
:1009DE0028C037F02CC028F037C02CF029C037F0D3
:1009EE002DC029F037C02DF02AC037F02EC02AF0C6
:1009FE0037C02EF02BC037F02FC02BF037C02FF0A2
:100A0E00000E376E365035C030F0316A305E000E53
:100A1E00315A31BE1CEF05F0315009E11A0E305C2F
:100A2E00D8A01CEF05F01EEF05F055EF05F028508D
:100A3E0029102A102B10D8A427EF05F02AEF05F065
:100A4E00010E2BEF05F0000E376E000E286E000E15
:100A5E00296E000E2A6E000E2B6E35C036F05EEF3C
:100A6E0005F037A03DEF05F03FEF05F045EF05F03F
:100A7E00D89037300109376E47EF05F0D8903732EE
:100A8E0028A04CEF05F04EEF05F04FEF05F0378E36
:100A9E002B342B322A3229322832362A3550365C04
:100AAE00D8A05CEF05F05EEF05F038EF05F034BC32
:100ABE0063EF05F065EF05F0A5EF05F03650D8A40D
:100ACE006BEF05F06DEF05F077EF05F0000E286E79
:100ADE00000E296E000E2A6E000E2B6EC6EF06F06B
:100AEE002C5028262D5029222E502A222F502B22D0
:100AFE002BA084EF05F086EF05F032EF06F037A05D
:100B0E008BEF05F08DEF05F093EF05F0D8903730B1
:100B1E000109376E95EF05F0D890373228A09AEF7D
:100B2E0005F09CEF05F09DEF05F0378E2B342B3240
:100B3E002A3229322832362A32EF06F02C50285C1F
:100B4E002D5029582E502A582B50800A306E2F5077
:100B5E00800A3058D8B0B6EF05F0B8EF05F0E3EFE5
:100B6E0005F028502C5C306E29502D58316E2A50CD
:100B7E002E58326E2B502F58336EFF0E3024286EA7
:100B8E00FF0E3120296EFF0E32202A6EFF0E33200B
:100B9E002B6E800E341A376C3750D8A4D9EF05F06F
:100BAE00DBEF05F0EBEF05F0010E2826000E2922F3
:100BBE002A222B22EBEF05F02C50285E2D50295ABD
:100BCE002E502A5A2F502B5A285029102A102B10EB
:100BDE00D8A4F4EF05F0F6EF05F02BEF06F0375042
:100BEE00D8A4FCEF05F0FEEF05F02BEF06F0000E9B
:100BFE00286E000E296E000E2A6E000E2B6EC6EFAA
:100C0E0006F0D890283629362A362B3637AE12EF14
:100C1E0006F014EF06F015EF06F0288037A01AEF55
:100C2E0006F01CEF06F020EF06F0D880373622EFE4
:100C3E0006F0D89037363650D8B428EF06F02AEFA3
:100C4E0006F02BEF06F036062AAE30EF06F032EF46
:100C5E0006F008EF06F0000E356E37AE39EF06F0EF
:100C6E003BEF06F053EF06F037C030F07F0E301634
:100C7E00D8B444EF06F046EF06F04AEF06F0010E48
:100C8E00356E53EF06F028A04FEF06F051EF06F049
:100C9E0053EF06F046EF06F03550D8B459EF06F094
:100CAE005BEF06F086EF06F0010E2826000E2922D5
:100CBE002A222B222BA066EF06F068EF06F086EFB5
:100CCE0006F028C030F029C031F02AC032F02BC017
:100CDE0033F03334333232323132303230C028F0E6
:100CEE0031C029F032C02AF033C02BF03628D8B4E8
:100CFE0083EF06F085EF06F086EF06F0362A3628EB
:100D0E00D8B48CEF06F08EEF06F096EF06F0365064
:100D1E00D8A494EF06F096EF06F0A8EF06F0000EBA
:100D2E00286E000E296E000E2A6E000E2B6E3650A7
:100D3E00D8A4A4EF06F0A6EF06F0A8EF06F0000E7A
:100D4E00346E36A0ADEF06F0AFEF06F0B2EF06F060
:100D5E002A8EB3EF06F02A9ED89036302B6E34AE24
:100D6E00BBEF06F0BDEF06F0BEEF06F02B8E28C0EF
:100D7E0028F029C029F02AC02AF02BC02BF012002F
:100D8E001250800B1B6E12501224216E11AED2EF38
:100D9E0006F0D4EF06F0D5EF06F021802150D8B43E
:100DAE00DBEF06F0DDEF06F0F0EF06F02128D8A419
:100DBE00E3EF06F0E5EF06F0EDEF06F0000E0F6E36
:100DCE00000E106E000E116E000E126E118EF8EFE8
:100DDE0006F0000E0F6E000E106E000E116E000E5D
:100DEE00126E1650800B1B1A16501624206E15AE5E
:100DFE0003EF07F005EF07F006EF07F02080205015
:100E0E00D8B40CEF07F00EEF07F021EF07F0202813
:100E1E00D8A414EF07F016EF07F01EEF07F0000E40
:100E2E00136E000E146E000E156E000E166E158EDD
:100E3E0029EF07F0000E136E000E146E000E156EE5
:100E4E00000E166E2050D8B42FEF07F031EF07F0DA
:100E5E0039EF07F02150D8A437EF07F039EF07F03C
:100E6E0043EF07F0000E0F6E000E106E000E116EA7
:100E7E00000E126EDBEF08F015500F02F3CF26F0C6
:100E8E00F4CF27F026501C6E1D6A1E6A1F6A27506B
:100E9E00226E236A246A256A14501002F3CF26F0BC
:100EAE00F4CF27F026501C26000E1D221E221F22D4
:100EBE0027502226000E232224222522135011020F
:100ECE00F3CF26F0F4CF27F026501C26000E1D225D
:100EDE001E221F2227502226000E232224222522E4
:100EEE001EC01FF01DC01EF01CC01DF01C6A13504A
:100EFE001002F3CF26F0F4CF27F026501C262750F1
:100F0E001D22000E1E22000E1F2214500F02F3CFC0
:100F1E0026F0F4CF27F026501C2627501D22000E57
:100F2E001E22000E1F221EC01FF01DC01EF01CC070
:100F3E001DF01C6A13500F02F3CF26F0F4CF27F0EA
:100F4E0026501C2627501D22000E1E22000E1F2288
:100F5E0015501002F3CF26F0F4CF27F0265022269C
:100F6E0027502322000E2422000E25221450110297
:100F7E00F3CF26F0F4CF27F0265022262750232237
:100F8E00000E2422000E252215501102F3CF26F05A
:100F9E00F4CF27F02650176E2750186E196A1A6A6A
:100FAE0019C01AF018C019F017C018F0176A1750A8
:100FBE00222618502322195024221A5025221CC0F2
:100FCE0017F01DC018F01EC019F01FC01AF0190E30
:100FDE00F6EF07F0D8901A32193218321732E82E7F
:100FEE00F1EF07F017502226185023221950242211
:100FFE001A5025221EC01FF01DC01EF01CC01DF071
:10100E001C6A205021C017F0186A1726000E1822ED
:10101E00820E1724266EFF0E1820276E2CEF08F076
:10102E00D89022362336243625361FAE21EF08F00F
:10103E0023EF08F024EF08F02280D8901C361D36DE
:10104E001E361F362606D8A0270624AE31EF08F02E
:10105E0033EF08F017EF08F0000E206E1FAE3AEFD8
:10106E0008F03CEF08F060EF08F0FF0E1C14176E4E
:10107E00FF0E1D14186EFF0E1E14196E7F0E1F1418
:10108E001A6E1750181019101A10D8B451EF08F024
:10109E0053EF08F057EF08F0010E206E60EF08F0E6
:1010AE0022A05CEF08F05EEF08F060EF08F053EF5F
:1010BE0008F02050D8B466EF08F068EF08F08CEF17
:1010CE0008F0010E2226000E23222422252225A01E
:1010DE0073EF08F075EF08F08CEF08F022C017F0F0
:1010EE0023C018F024C019F025C01AF01A341A3291
:1010FE0019321832173217C022F018C023F019C057
:10110E0024F01AC025F0264A272A27BE97EF08F0AA
:10111E00275008E12628D8A097EF08F099EF08F09D
:10112E00A3EF08F0000E226E000E236E800E246ECA
:10113E007F0E256ED1EF08F027BEB0EF08F02750D6
:10114E0006E12604D8B0AEEF08F0B0EF08F0BCEF21
:10115E0008F0000E226E000E236E000E246E000E9E
:10116E00256E000E1B6ED1EF08F026C021F0FF0E8B
:10117E002216FF0E23167F0E2416000E251621A012
:10118E00CBEF08F0CDEF08F0CEEF08F0248ED8901C
:10119E002130256E1B50251222C00FF023C010F0F7
:1011AE0024C011F025C012F012001250800B1F6ED9
:1011BE0012501224266E11AEE7EF08F0E9EF08F098
:1011CE00EAEF08F026802650D8B4F0EF08F0F2EFE0
:1011DE0008F007EF09F02628D8A4F8EF08F0FAEF88
:1011EE0008F002EF09F0000E0F6E000E106E000EEA
:1011FE00116E000E126E118E000E126E0FEF09F0B0
:10120E00000E0F6E000E106E000E116E000E126E9E
:10121E001650800B1F1A16501624276E15AE1AEF95
:10122E0009F01CEF09F01DEF09F027802750D8B404
:10123E0023EF09F025EF09F03AEF09F02728D8A49B
:10124E002BEF09F02DEF09F035EF09F0000E136EBC
:10125E00000E146E000E156E000E166E158E000E1C
:10126E00166E42EF09F0000E136E000E146E000E95
:10127E00156E000E166E1350141015101610D8A4FD
:10128E004BEF09F04DEF09F065EF09F0000E0F6E10
:10129E00000E106E000E116E000E126E800E1112E8
:1012AE007F0E12121F5012120FC00FF010C010F04E
:1012BE0011C011F012C012F0A8EF0AF02650D8A4F7
:1012CE006BEF09F06DEF09F077EF09F0000E0F6E7E
:1012DE00000E106E000E116E000E126EA8EF0AF0C8
:1012EE00275026C017F0186A175E000E185A7F0E88
:1012FE001724206E000E1820216E0FC01BF010C098
:10130E001CF011C01DF012C01EF0000E0F6E000E6C
:10131E00106E000E116E000E126E000E226E000E7A
:10132E00236E000E246E000E256E000E276ED8EF73
:10133E0009F02750D8B4A6EF09F0A8EF09F0BFEFD7
:10134E0009F0D8901B361C361D361E36D8900F3637
:10135E0010361136123625AEB7EF09F0B9EF09F097
:10136E00BAEF09F00F80D890223623362436253670
:10137E0013501B5C14501C5815501D5816501E58F7
:10138E00D8A0CCEF09F0CEEF09F0D7EF09F0258CFD
:10139E0013501B5E14501C5A15501D5A16501E5ACF
:1013AE00272A190E2764DEEF09F0E0EF09F0A0EF0F
:1013BE0009F01B501C101D101E10D8B4E9EF09F0D7
:1013CE00EBEF09F003EF0AF0228003EF0AF0D8905A
:1013DE000F3610361136123625AEF8EF09F0FAEF49
:1013EE0009F0FBEF09F00F80D89022362336243611
:1013FE0025362006D8A0210611AE08EF0AF00AEF16
:10140E000AF0EEEF09F0000E276E25AE11EF0AF08E
:10141E0013EF0AF037EF0AF0FF0E2214176EFF0ECD
:10142E002314186EFF0E2414196E7F0E25141A6ED7
:10143E001750181019101A10D8B428EF0AF02AEF06
:10144E000AF02EEF0AF0010E276E37EF0AF00FA00A
:10145E0033EF0AF035EF0AF037EF0AF02AEF0AF011
:10146E002750D8B43DEF0AF03FEF0AF063EF0AF0D1
:10147E00010E0F26000E10221122122212A04AEF88
:10148E000AF04CEF0AF063EF0AF00FC017F010C02D
:10149E0018F011C019F012C01AF01A341A3219329B
:1014AE001832173217C00FF018C010F019C011F013
:1014BE001AC012F0204A212A21BE6EEF0AF02150E6
:1014CE0008E12028D8A06EEF0AF070EF0AF07BEF4B
:1014DE000AF0000E216E2068000E0F6E000E106EC8
:1014EE00000E116E000E126E21BE88EF0AF0215012
:1014FE0006E12004D8B086EF0AF088EF0AF096EFE6
:10150E000AF0000E216E000E206E000E0F6E000E01
:10151E00106E000E116E000E126E000E1F6E20C0A9
:10152E0026F026A09DEF0AF09FEF0AF0A2EF0AF038
:10153E00118EA3EF0AF0119ED8902630126E59EF3D
:10154E0009F0120045C0D9FF46C0DAFFDECFF6FF24
:10155E00DDCFF7FF0800F550250AD8A4B9EF0AF041
:10156E00BBEF0AF016EF0CF045C0D9FF46C0DAFF0C
:10157E00DE2A000EDD22000E0101CB6F000ECA6FB7
:10158E00CAC1F5F0CBC1F6F0CC69CD6945C0D9FF23
:10159E0046C0DAFFDECFF6FFDDCFF7FF0800F550CD
:1015AE00640AD8B4DDEF0AF0DFEF0AF0F1EF0AF0CB
:1015BE0045C0D9FF46C0DAFFDECFF6FFDDCFF7FF1D
:1015CE000800F550690AD8A4EFEF0AF0F1EF0AF01F
:1015DE0031EF0BF045C0D9FF46C0DAFFDE2A000E10
:1015EE00DD2247C0D9FF48C0DAFFDFCF49F0020E37
:1015FE00DE26DFCF4AF0000EDD2249C0D9FF4AC0F9
:10160E00DAFFDECF4DF0DDCF4EF0000E4EBEFF0EF8
:10161E004F6E506E516E526E536E546E43C01CF030
:10162E0044C01DF04DC01EF04EC01FF04FC020F044
:10163E0050C021F051C022F052C023F053C024F00C
:10164E0054C025F032EC0CF01CC043F01DC044F029
:10165E0031EF0CF045C0D9FF46C0DAFFDECFF6FF02
:10166E00DDCFF7FF0800F550730AD8A441EF0BF059
:10167E0043EF0BF06EEF0BF045C0D9FF46C0DAFF1B
:10168E00DE2A000EDD2247C0D9FF48C0DAFFDFCFC9
:10169E0049F0020EDE26DFCF4AF0000EDD2249C0F1
:1016AE00D9FF4AC0DAFFDECF5DF0DDCF5EF043C07A
:1016BE000AF044C00BF05DC00CF05EC00DF08BEC78
:1016CE0013F00AC043F00BC044F031EF0CF045C0EC
:1016DE00D9FF46C0DAFFDECFF6FFDDCFF7FF0800F9
:1016EE00F550780AD8B47EEF0BF080EF0BF092EF46
:1016FE000BF045C0D9FF46C0DAFFDECFF6FFDDCFD7
:10170E00F7FF0800F550580AD8A490EF0BF092EFAF
:10171E000BF0E0EF0BF045C0D9FF46C0DAFFDECF8D
:10172E00F6FFDDCFF7FF0800F5CF5FF045C0D9FF1C
:10173E0046C0DAFFDE2A000EDD2247C0D9FF48C0C0
:10174E00DAFFDFCF49F0020EDE26DFCF4AF0000EC1
:10175E00DD2249C0D9FF4AC0DAFFDECF4BF0DDCF24
:10176E004CF04BC055F04CC056F0576A586A596A47
:10177E005A6A5B6A5C6A43C01CF044C01DF055C0D7
:10178E001EF056C01FF057C020F058C021F059C0AF
:10179E0022F05AC023F05BC024F05CC025F05FC07D
:1017AE0026F0A7EC0DF01CC043F01DC044F031EF45
:1017BE000CF045C0D9FF46C0DAFFDECFF6FFDDCF15
:1017CE00F7FF0800F550250AD8A4F0EF0BF0F2EF62
:1017DE000BF009EF0CF045C0D9FF46C0DAFFDE2A48
:1017EE00000EDD22000E026E250E016E43C003F0C8
:1017FE0044C004F09AEC17F0000E446E010E436ED6
:10180E0031EF0CF045C0D9FF46C0DAFFDE2A000EDC
:10181E00DD22000E446E000E436E31EF0CF045C01B
:10182E00D9FF46C0DAFFDECFF6FFDDCFF7FF0800A7
:10183E00F550016E026A43C003F044C004F09AEC06
:10184E0017F045C0D9FF46C0DAFFDE2A000EDD22B2
:10185E0003EF0CF012001EC036F01FC037F020C090
:10186E0038F021C039F022C03AF023C03BF024C03A
:10187E003CF025C03DF03DBE47EF0CF04AEF0CF0BA
:10188E00010E4BEF0CF0000E346E356A34503510ED
:10189E00D8B454EF0CF056EF0CF066EF0CF03D1E82
:1018AE003C1E3B1E3A1E391E381E371E366C000E6D
:1018BE003722382239223A223B223C223D22010194
:1018CE00CDBF6CEF0CF06EEF0CF070EF0CF0000172
:1018DE00F5930101CDBF7EEF0CF0CD5106E1CC05A5
:1018EE00D8B07CEF0CF07EEF0CF084EF0CF0000E15
:1018FE00316E010E306E88EF0CF0CCC130F0CDC1E0
:10190E0031F0CAC132F0CBC133F034503510D8A407
:10191E0093EF0CF095EF0CF09DEF0CF00001F5A598
:10192E009BEF0CF09DEF0CF0A0EF0CF03206D8A060
:10193E003306000E3F6E1F0E3E6E000E02015D6FEF
:10194E0025EF0DF03E06D8A03F063E0E3E24D96E82
:10195E00020E3F20DA6E36C001F037C002F038C0FA
:10196E0003F039C004F03AC005F03BC006F03CC0AD
:10197E0007F03DC008F00A0E096E000E0A6E000E4A
:10198E000B6E000E0C6E000E0D6E000E0E6E000E27
:10199E000F6E000E106E0CEC15F001C026F002C09A
:1019AE0027F003C028F004C029F005C02AF006C0B5
:1019BE002BF007C02CF008C02DF026C013F028C065
:1019CE0014F04BEC1EF01350300FDF6E3006D8A023
:1019DE0031063206D8A0330636C001F037C002F009
:1019EE0038C003F039C004F03AC005F03BC006F031
:1019FE003CC007F03DC008F00A0E096E000E0A6EDC
:101A0E00000E0B6E000E0C6E000E0D6E000E0E6EA6
:101A1E00000E0F6E000E106EC7EC12F001C036F005
:101A2E0002C037F003C038F004C039F005C03AF0F8
:101A3E0006C03BF007C03CF008C03DF03FBE30EFA3
:101A4E000DF03F5008E13E04D8A030EF0DF032EF1C
:101A5E000DF063EF0DF036503710381039103A1084
:101A6E003B103C103D10D8A43FEF0DF041EF0DF0B0
:101A7E00A9EF0CF031BE4EEF0DF0315006E13004FF
:101A8E00D8B04CEF0DF04EEF0DF0A9EF0CF033BEC9
:101A9E0059EF0DF0335008E13204D8A059EF0DF094
:101AAE005BEF0DF063EF0DF00001F5B361EF0DF09C
:101ABE0063EF0DF0A9EF0CF034503510D8A46AEF97
:101ACE000DF06CEF0DF074EF0DF00001F5A572EF57
:101ADE000DF074EF0DF092EF0DF03E06D8A03F061C
:101AEE0034503510D8A47EEF0DF080EF0DF086EF58
:101AFE000DF0000E2F6E2B0E2E6E8AEF0DF0000ED7
:101B0E002F6E2D0E2E6E3E0E3E24D96E020E3F20EF
:101B1E00DA6E2EC0DFFF1CC011F01DC012F03E0E9B
:101B2E003E24136E020E3F20146E32C015F033C0E9
:101B3E0016F0FFEC17F011C01CF012C01DF01200D1
:101B4E000101CDBFADEF0DF0AFEF0DF0B1EF0DF028
:101B5E000001F5930101CDBFBFEF0DF0CD5106E1B0
:101B6E00CC05D8B0BDEF0DF0BFEF0DF0C5EF0DF009
:101B7E00000E346E010E336EC9EF0DF0CCC133F092
:101B8E00CDC134F0CAC135F0CBC136F00001F5A994
:101B9E00D3EF0DF0D5EF0DF0D9EF0DF0FE0E35268B
:101BAE00FF0E36221EC037F01FC038F020C039F0AD
:101BBE0021C03AF022C03BF023C03CF024C03DF0DF
:101BCE0025C03EF0000E406E1F0E3F6E000E02014D
:101BDE005D6FA5EF0EF03F06D8A040060F0E37142E
:101BEE00416E426A42BE05EF0EF0425009E10A0E06
:101BFE00415CD8A005EF0EF007EF0EF00FEF0EF0E0
:101C0E00570E4124416E000E4220426E15EF0EF02B
:101C1E00300E4124416E000E4220426EBF0E276EE2
:101C2E00FF0E286E2650296E2A6A27502926285024
:101C3E002A222A500AE11A0E295CD8A029EF0EF0AA
:101C4E002CEF0EF0010E2DEF0EF0000E2F6E306AFF
:101C5E002F503010D8B436EF0EF038EF0EF068EF8C
:101C6E000EF09F0E276EFF0E286E200E4110296E6D
:101C7E00000E42102A6E2750292628502A222A505A
:101C8E000AE11A0E295CD8A04FEF0EF052EF0EF0BB
:101C9E00010E53EF0EF0000E316E326A31503210DB
:101CAE00D8B45CEF0EF05EEF0EF068EF0EF041C0B0
:101CBE0007F042C008F000EC1CF007C041F008C06D
:101CCE0042F03E0E3F24D96E020E4020DA6E41C025
:101CDE00DFFF3306D8A034063506D8A0360637C047
:101CEE0027F038C028F039C029F03AC02AF03BC09E
:101CFE002BF03CC02CF03DC02DF03EC02EF0050E5A
:101D0E0092EF0EF0D8902E322D322C322B322A3208
:101D1E00293228322732E82E89EF0EF027C037F00D
:101D2E0028C038F029C039F02AC03AF02BC03BF059
:101D3E002CC03CF02DC03DF02EC03EF040BEB1EFA9
:101D4E000EF0405009E1020E3F5CD8A0B1EF0EF04C
:101D5E00B3EF0EF0E4EF0EF03750381039103A10A2
:101D6E003B103C103D103E10D8A4C0EF0EF0C2EF59
:101D7E000EF0F2EF0DF034BECFEF0EF0345006E160
:101D8E003304D8B0CDEF0EF0CFEF0EF0F2EF0DF032
:101D9E0036BEDAEF0EF0365008E13504D8A0DAEF91
:101DAE000EF0DCEF0EF0E4EF0EF00001F5B3E2EF13
:101DBE000EF0E4EF0EF0F2EF0DF00001F5A9EAEFF0
:101DCE000EF0ECEF0EF002EF0FF03F06D8A040063B
:101DDE003E0E3F24D96E020E4020DA6E26C0DFFF83
:101DEE003F06D8A040063E0E3F24D96E020E40207C
:101DFE00DA6E300EDF6E1CC011F01DC012F03E0EFA
:101E0E003F24136E020E4020146E35C015F036C0FE
:101E1E0016F0FFEC17F011C01CF012C01DF01200EE
:101E2E00000E0201B96F000EB86F0001E8BF29EF76
:101E3E000FF0E85109E1110EE75DD8A029EF0FF080
:101E4E002BEF0FF039EF0FF0E8BF37EF0FF0E8513F
:101E5E0009E11F0EE75DD8A037EF0FF039EF0FF055
:101E6E0076EF0FF002013C510001E7190BE1020180
:101E7E003D510001E819D8B447EF0FF049EF0FF0CC
:101E8E0066EF0FF05E0E686F020E696FC90E6A6F15
:101E9E00080E6B6FE7C06CF0E8C06DF0DEEC1CF066
:101EAE00000E00017E6F010E7D6F5E0E7F6F020EC3
:101EBE00806F41EC16F0E7C03CF2E8C03DF2000145
:101ECE00ED05EE11D8A46EEF0FF070EF0FF073EF7B
:101EDE000FF0050EB4EC20F00201B84BB92B000147
:101EEE00EABF85EF0FF0EA5107E1280EE95DD8B0A1
:101EFE0083EF0FF085EF0FF0C2EF0FF002013A51B2
:101F0E000001E9190BE102013B510001EA19D8B4B5
:101F1E0093EF0FF095EF0FF0B2EF0FF07C0E686FAE
:101F2E00020E696FC90E6A6F080E6B6FE9C06CF016
:101F3E00EAC06DF0DEEC1CF0000E00017E6F020EAA
:101F4E007D6F7C0E7F6F020E806F41EC16F0E9C044
:101F5E003AF2EAC03BF20001ED05EE11D8A4BAEF59
:101F6E000FF0BCEF0FF0BFEF0FF0060EB4EC20F049
:101F7E000201B84BB92B0001ECBFD1EF0FF0EC51C1
:101F8E0007E13D0EEB5DD8B0CFEF0FF0D1EF0FF0C4
:101F9E00DFEF0FF0ECBFDFEF0FF0EC5107E10A0EB1
:101FAE00EB5DD8B0DDEF0FF0DFEF0FF01CEF10F0B0
:101FBE00020138510001EB190BE102013951000108
:101FCE00EC19D8B4EDEF0FF0EFEF0FF00CEF10F0BF
:101FDE009A0E686F020E696FC90E6A6F080E6B6FEC
:101FEE00EBC06CF0ECC06DF0DEEC1CF0000E0001EE
:101FFE007E6F030E7D6F9A0E7F6F020E806F41EC27
:10200E0016F0EBC038F2ECC039F20001ED05EE111E
:10201E00D8A414EF10F016EF10F019EF10F0070E11
:10202E00B4EC20F00201B84BB92B0201B851B91132
:10203E00D8A424EF10F026EF10F033EF10F00001CB
:10204E00ED05EE11D8A42EEF10F030EF10F033EFB7
:10205E0010F0040EB4EC20F0B8C2E7F0B9C2E8F00C
:10206E0012000D6EB4EC1CF0D8B040EF10F042EF41
:10207E0010F039EF10F0CDEF10F00A2A0001F951EF
:10208E00D8A44CEF10F04EEF10F058EF10F0170EE2
:10209E000A6454EF10F056EF10F058EF10F0000EE7
:1020AE000A6EF905D8A45EEF10F060EF10F06AEF3B
:1020BE0010F03B0E0A6466EF10F068EF10F06AEF56
:1020CE0010F0000E0A6E020EF919D8A471EF10F07E
:1020DE0073EF10F07DEF10F01F0E0A6479EF10F021
:1020EE007BEF10F07DEF10F0010E0A6E030EF91962
:1020FE00D8A484EF10F086EF10F090EF10F00C0ED5
:10210E000A648CEF10F08EEF10F090EF10F0010ECD
:10211E000A6E040EF919D8A497EF10F099EF10F08B
:10212E00A3EF10F0630E0A649FEF10F0A1EF10F012
:10213E00A3EF10F0000E0A6E09C003F00D504FEC25
:10214E001FF00AC001F0026A000E046E0A0E036E42
:10215E0062EC18F00150300F07EC1DF00AC001F0D0
:10216E00026A000E046E0A0E036EC4EC18F00150E3
:10217E00300F07EC1DF0040E0C6E0C0E0B6E340EB1
:10218E00E82EFED70B2EFCD70C2EFAD780A6D2EF58
:10219E0010F0D4EF10F044EF10F009C003F00D5022
:1021AE004FEC1FF0C60E07EC1DF00928036E0D5004
:1021BE004FEC1FF0C60E07EC1DF0C5EC1DF009C06C
:1021CE0003F00D504FEC1FF00AC001F0026A000E32
:1021DE00046E0A0E036E62EC18F00150300F07EC1D
:1021EE001DF00AC001F0026A000E046E0A0E036EA4
:1021FE00C4EC18F00150300F07EC1DF0C5EC1DF0CB
:10220E0080B40CEF11F00EEF11F0CDEF10F0B4EC36
:10221E001CF0D8A015EF11F017EF11F0CDEF10F064
:10222E000001F92B0A501200096E0950D8B422EFA2
:10223E0011F024EF11F046EF11F004BE2BEF11F068
:10224E0029EF11F046EF11F001C005F002C006F0C3
:10225E0003C007F004C008F0051E061E071E081E68
:10226E00052A000E06220722082205C00BF006C022
:10227E000CF007C00DF008C00EF04EEF11F001C0CB
:10228E000BF002C00CF003C00DF004C00EF00150B4
:10229E00021003100410D8A457EF11F059EF11F0EB
:1022AE0063EF11F0000E016E000E026E000E036E53
:1022BE00000E046EF4EF11F0960E0A6E6DEF11F033
:1022CE000A2AD8900E320D320C320B32000E0B143D
:1022DE00056E000E0C14066E000E0D14076EFE0E2B
:1022EE000E14086E0550061007100810D8A482EFC1
:1022FE0011F084EF11F067EF11F092EF11F00A2A4E
:10230E00010E0B26000E0C220D220E22D8900E323C
:10231E000D320C320B32000E0B14056E000E0C1427
:10232E00066E000E0D14076EFF0E0E14086E05508D
:10233E00061007100810D8A4A7EF11F0A9EF11F09E
:10234E0086EF11F0B1EF11F00A06D8900B360C366D
:10235E000D360E360DBEB6EF11F0B8EF11F0C0EF20
:10236E0011F0020E0A60BEEF11F0C0EF11F0ABEFEC
:10237E0011F00AB0C5EF11F0C7EF11F0C8EF11F070
:10238E000D9ED8900A320AC005F0066A076A086ADE
:10239E0005C008F0076A066A056A05500B1206505A
:1023AE000C1207500D1208500E120950D8B4E2EF5D
:1023BE0011F0E4EF11F0ECEF11F004BEEBEF11F0C1
:1023CE00E9EF11F0ECEF11F00E8E0BC001F00CC026
:1023DE0002F00DC003F00EC004F012000101D8513E
:1023EE009EEC20F00001FD6F0101D6519EEC20F015
:1023FE000001FE6FF7519EEC20F00001FF6F01010E
:10240E00D2519EEC20F00001FA6F0101D0519EECEA
:10241E0020F00001FB6F0101CE519EEC20F0000177
:10242E00FC6FFFC001F0026A000E046E0A0E036E0E
:10243E0062EC18F00150300F0101F16FFFC001F096
:10244E00026A000E046E0A0E036EC4EC18F0015000
:10245E00300F0101F26FFEC001F0026A000E046E31
:10246E000A0E036E62EC18F00150300F0101F46F8A
:10247E00FEC001F0026A000E046E0A0E036EC4EC7A
:10248E0018F00150300F0101F56FFDC001F0026A26
:10249E00000E046E0A0E036E62EC18F00150300F3F
:1024AE000101F76FFDC001F0026A000E046E0A0E04
:1024BE00036EC4EC18F00150300F0101F86FFAC032
:1024CE0001F0026A000E046E0A0E036E62EC18F042
:1024DE000150300F0201E06FFAC001F0026A000EE7
:1024EE00046E0A0E036EC4EC18F00150300F020198
:1024FE00E16FFBC001F0026A000E046E0A0E036E5D
:10250E0062EC18F00150300F0201E36FFBC001F0D6
:10251E00026A000E046E0A0E036EC4EC18F001502F
:10252E00300F0201E46FFCC001F0026A000E046E6F
:10253E000A0E036E62EC18F00150300F0201E86FC4
:10254E00FCC001F0026A000E046E0A0E036EC4ECAB
:10255E0018F00150300F0201E96F000E056EEB0E00
:10256E00066E010E076E010E2BEC1EF0000E056EB0
:10257E00DA0E066E020E076E020E2BEC1EF0120025
:10258E00000E126E10BED0EF12F0CEEF12F0E2EF90
:10259E0012F0101E0F1E0E1E0D1E0C1E0B1E0A1EFE
:1025AE00096C000E0A220B220C220D220E220F2283
:1025BE001022010E126E08BEE9EF12F0E7EF12F0D4
:1025CE00FBEF12F0081E071E061E051E041E031E3C
:1025DE00021E016C000E0222032204220522062294
:1025EE0007220822010E121A20EE13F0070EDE6AE1
:1025FE00E806FDE209500A100B100C100D100E101B
:10260E000F101010D8B40EEF13F010EF13F062EF9E
:10261E0013F0010E116E1EEF13F0D89009360A3624
:10262E000B360C360D360E360F361036112A10AE0E
:10263E0023EF13F025EF13F014EF13F0D8901336A9
:10264E001436153616361736183619361A36095008
:10265E00015C0A5002580B5003580C5004580D5090
:10266E0005580E5006580F50075810500858D8A04D
:10267E0043EF13F045EF13F056EF13F00950015EE0
:10268E000A50025A0B50035A0C50045A0D50055A58
:10269E000E50065A0F50075A1050085A1380D890F1
:1026AE0010320F320E320D320C320B320A32093228
:1026BE00112E25EF13F01250D8B468EF13F06AEF15
:1026CE0013F07AEF13F01A1E191E181E171E161E7F
:1026DE00151E141E136C000E14221522162217221C
:1026EE00182219221A2213C001F014C002F015C0CC
:1026FE0003F016C004F017C005F018C006F019C09C
:10270E0007F01AC008F0120021EEE4F010EE0FF000
:10271E00060EDBCFE3FFE806FCE20CC01AF00DC09C
:10272E001BF01A501B10D8A49FEF13F0A1EF13F05B
:10273E00A5EF13F00F0E1A6E000E1B6E1AC001F0ED
:10274E001BC002F034EC1FF001C01EF002C01FF0DF
:10275E00CCC11CF0CDC11DF01DBEB8EF13F0BAEF09
:10276E0013F0CFEF13F01E501C5C1D50800A0E6E3E
:10277E001F50800A0E58D8A0C7EF13F0C9EF13F000
:10278E00CBEF13F0CFEF13F01CC01EF01DC01FF0E7
:10279E001EC01CF01FC01DF0CAC118F0CBC119F02D
:1027AE000001F5B1DDEF13F0DFEF13F0FCEF13F0E6
:1027BE00EDEF13F0000E026E200E016E0AC003F054
:1027CE000BC004F09AEC17F01E4A1F2A18501E5C1C
:1027DE001F50800A0E6E1950800A0E58D8A0FAEFBC
:1027EE0013F0FCEF13F0E1EF13F0000E176E000E76
:1027FE00166E15EF14F01AC0D9FF1BC0DAFFDF50AA
:10280E000E6E0E50016E026A0AC003F00BC004F089
:10281E009AEC17F01A4A1B2A164A172A1C50165CF5
:10282E001750800A0E6E1D50800A0E58D8A022EF47
:10283E0014F024EF14F002EF14F00001F5A12AEFCA
:10284E0014F02CEF14F049EF14F03AEF14F0000EE0
:10285E00026E200E016E0AC003F00BC004F09AEC5B
:10286E0017F01E4A1F2A18501E5C1F50800A0E6E4B
:10287E001950800A0E58D8A047EF14F049EF14F003
:10288E002EEF14F01EC00AF01FC00BF0120080B421
:10289E0053EF14F055EF14F0FCEF14F0B4EC1CF001
:1028AE00D8A05CEF14F05EEF14F0FCEF14F0000E05
:1028BE000001F96F060E096EFFC00AF0010E38EC2A
:1028CE0010F00001FF6F090E096EFEC00AF0010E36
:1028DE0038EC10F00001FE6F060E096EFAC00AF019
:1028EE00020E38EC10F00001FA6F090E096EFBC0F3
:1028FE000AF0020E38EC10F00001FB6F0E0E096E9E
:10290E00FCC00AF0020E38EC10F00001FC6F060E4F
:10291E00096EFFC00AF0010E38EC10F00001FF6FD7
:10292E00090E096EFEC00AF0010E38EC10F000011F
:10293E00FE6F060E096EFAC00AF0020E38EC10F0A9
:10294E000001FA6F090E096EFBC00AF0020E38EC98
:10295E0010F00001FB6F0E0E096EFCC00AF0020EA5
:10296E0038EC10F00001FC6FB4EC1CF0D8B0C2EFE4
:10297E0014F0C4EF14F0BBEF14F00001FE51C5ECDF
:10298E001EF00001FE6FFF51C5EC1EF00001FF6F3F
:10299E00FA51C5EC1EF00001FA6FFB51C5EC1EF0AA
:1029AE000001FB6FFC51C5EC1EF00001FC6FFEC078
:1029BE0003F0FFC004F0050E056E000E83EC1FF051
:1029CE00FAC003F0FBC004F0FCC005F0010E12ECDF
:1029DE0020F0030E0F6E080E0E6E770EE82EFED749
:1029EE000E2EFCD70F2EFAD700F0000E57EC1DF06E
:1029FE00030E5CEC1CF0F5EC11F0820E0E6EDE0E8A
:102A0E00E82EFED70E2EFCD71200000E126E08BE58
:102A1E0015EF15F013EF15F027EF15F0081E071E32
:102A2E00061E051E041E031E021E016C000E02224F
:102A3E00032204220522062207220822010E126E0C
:102A4E0010BE2EEF15F02CEF15F03EEF15F0101E08
:102A5E000F1E0E1E0D1E0C1E0B1E0A1E096C000EE6
:102A6E000A220B220C220D220E220F2210220950B6
:102A7E000A100B100C100D100E100F101010D8B4F1
:102A8E004BEF15F04DEF15F095EF15F0010E116EA1
:102A9E005BEF15F0D89009360A360B360C360D362C
:102AAE000E360F361036112A10AE60EF15F062EFAB
:102ABE0015F051EF15F00950015C0A5002580B50F9
:102ACE0003580C5004580D5005580E5006580F5010
:102ADE00075810500858D8A077EF15F079EF15F079
:102AEE0089EF15F00950015E0A50025A0B50035A35
:102AFE000C50045A0D50055A0E50065A0F50075AD4
:102B0E001050085AD89010320F320E320D320C324D
:102B1E000B320A320932112E62EF15F01250D8B470
:102B2E009BEF15F09DEF15F0ADEF15F0081E071E8B
:102B3E00061E051E041E031E021E016C000E02223E
:102B4E0003220422052206220722082201C001F0D8
:102B5E0002C002F003C003F004C004F005C005F08B
:102B6E0006C006F007C007F008C008F012002A34AD
:102B7E002B34316E3150D8A4C7EF15F0C9EF15F0D4
:102B8E00D3EF15F0000E286E000E296E000E2A6E81
:102B9E00000E2B6E40EF16F028C02CF029C02DF041
:102BAE002AC02EF02BC02FF0200EE3EF15F0D89098
:102BBE002F322E322D322C32E82EDEEF15F02C5025
:102BCE00306E2A8EFF0E2816FF0E2916FF0E2A16BD
:102BDE00000E2B16960E315E31BEFAEF15F0F8EFA1
:102BEE0015F010EF16F03150800A970FD8B002EFA3
:102BFE0016F004EF16F006EF16F0C9EF15F0D890A8
:102C0E002B322A3229322832313E06EF16F028EFC7
:102C1E0016F01F0E316416EF16F018EF16F020EFB7
:102C2E0016F0C9EF15F0D890283629362A362B36ED
:102C3E0031063150D8A426EF16F028EF16F01AEF11
:102C4E0016F03050D8B42EEF16F030EF16F038EFF5
:102C5E0016F02B1E2A1E291E286C000E29222A224F
:102C6E002B2228C028F029C029F02AC02AF02BC018
:102C7E002BF0120000017D057E11D8A449EF16F04D
:102C8E004BEF16F06AEF16F03EEC20F07BC0E5F04D
:102C9E007CC0E6F0810E0001686F000E696F2B0E8E
:102CAE006A6F080E6B6FE5C06CF0E6C06DF07FC00A
:102CBE006EF080C06FF0DEEC1CF0810E026E000E26
:102CCE00036EB5EC1FF0020E00017D197E11D8A423
:102CDE0073EF16F075EF16F094EF16F03EEC20F051
:102CEE007BC0E5F07CC0E6F0000E0001686F010EBF
:102CFE00696F4D0E6A6F080E6B6FE5C06CF0E6C023
:102D0E006DF07FC06EF080C06FF0DEEC1CF0000E38
:102D1E00026E010E036EB5EC1FF0030E00017D195D
:102D2E007E11D8A49DEF16F09FEF16F0BEEF16F0B1
:102D3E003EEC20F07BC0E5F07CC0E6F0640E0001B6
:102D4E00686F010E696F010E6A6F080E6B6FE5C03A
:102D5E006CF0E6C06DF07FC06EF080C06FF0DEEC00
:102D6E001CF0640E026E010E036EB5EC1FF0120025
:102D7E00000E056EB20E066E080E076E000E2BECE0
:102D8E001EF020EE82F00F0EDE6AE806FDE2820EE5
:102D9E000001686F000E696FB90E6A6F080E6B6FD7
:102DAE007AC06CF07BC06DF0DEEC1CF020EE92F081
:102DBE000F0EDE6AE806FDE2920E0001686F000E4D
:102DCE00696FBE0E6A6F080E6B6F7CC06CF07DC0B3
:102DDE006DF0DEEC1CF020EEA2F00F0EDE6AE806BF
:102DEE00FDE2A20E0001686F000E696FC20E6A6FDF
:102DFE00080E6B6F7EC06CF07FC06DF0DEEC1CF0C9
:102E0E00C00E2FEC1DF0000E056E820E066E000E2B
:102E1E00076E030E2BEC1EF0060E056E920E066E5E
:102E2E00000E076E030E2BEC1EF00B0E056EA20E9F
:102E3E00066E000E076E030E2BEC1EF00A0E00013E
:102E4E00816F220E806FA10EE82EFED7802FFCD749
:102E5E00812FFAD703EC21F01200050E00017A6FD4
:102E6E00000E57EC1DF0BFEC20F00001F7AD42EF65
:102E7E0017F044EF17F07FEF17F0F7AB49EF17F0AD
:102E8E004BEF17F067EF17F01F0EF715F76FF86B94
:102E9E00780E686F030E696F800E6A6F080E6B6F87
:102EAE00F7C06CF0F8C06DF0D6C16EF0D7C16FF000
:102EBE00D8C170F0D9C171F0DEEC1CF099EF17F0AB
:102ECE00780E686F030E696F6E0E6A6F080E6B6F69
:102EDE00F7C06CF0F8C06DF0D6C16EF0D7C16FF0D0
:102EEE00D8C170F0D9C171F0DEEC1CF099EF17F07B
:102EFE003F0EF715F76FF86B780E686F030E696F5C
:102F0E00A20E6A6F080E6B6FF7C06CF0F8C06DF012
:102F1E00D6C16EF0D7C16FF0D8C170F0D9C171F0C3
:102F2E00DEEC1CF0120003500410D8B4A1EF17F021
:102F3E00A3EF17F0ACEF17F003500410D8A4AAEFCC
:102F4E0017F0ACEF17F0B1EF17F001500AEC21F0CB
:102F5E00FEEF17F020EE04F00350D9260450DA22CB
:102F6E00DE50DE10D8B4BEEF17F0C0EF17F0DBEF77
:102F7E0017F020EE04F00350D9260450DA2210EE9A
:102F8E0002F00350E1260450E222DE50E65CE650E9
:102F9E00800A096EDE50800A0958D8B0D9EF17F0B2
:102FAE00DBEF17F0FEEF17F020EE02F00350D926FC
:102FBE000450DA22DECF05F0DDCF06F003C0D9FFD4
:102FCE0004C0DAFFDECF07F0DDCF08F0055007248E
:102FDE00D96E06500820DA6E01C0DFFF20EE02F037
:102FEE000350D9260450DA22DE2A000EDD2212000A
:102FFE000001F5A105EF18F007EF18F011EF18F02A
:10300E0013C00AF014C00BF011C00CF012C00DF07A
:10301E00E8EC1DF016BE16EF18F018EF18F01EEFC4
:10302E0018F015C01AF016C01BF022EF18F0000EA3
:10303E001B6E000E1A6E000E196E000E186E34EF17
:10304E0018F0000E026E200E016E11C003F012C0B9
:10305E0004F09AEC17F0184A192A1A50185C1950F5
:10306E00800A176E1B50800A1758D8A041EF18F02F
:10307E0043EF18F028EF18F00001F5B149EF18F002
:10308E004BEF18F055EF18F013C00AF014C00BF008
:10309E0011C00CF012C00DF0E8EC1DF013C001F0E1
:1030AE0014C002F034EC1FF01A500124116E1B50A4
:1030BE000220126E1200000E066E04BE6BEF18F0A8
:1030CE0069EF18F071EF18F0036C041ED8B0042AE3
:1030DE00010E066E02BE78EF18F076EF18F07EEF56
:1030EE0018F0016C021ED8B0022A010E061A000E4C
:1030FE00086E000E076E03500410D8B489EF18F056
:10310E008BEF18F0B3EF18F0010E056E93EF18F079
:10311E00D89003360436052A04AE98EF18F09AEFCD
:10312E0018F08FEF18F0D890073608360350015C70
:10313E0004500258D8A0A6EF18F0A8EF18F0ADEF83
:10314E0018F00350015E0450025A0780D8900432E2
:10315E000332052E9AEF18F00650D8B4B9EF18F0D6
:10316E00BBEF18F0BFEF18F0076C081ED8B0082A96
:10317E0007C001F008C002F01200000E066E02BE7B
:10318E00CDEF18F0CBEF18F0D3EF18F0016C021E54
:10319E00D8B0022A010E066E04BEDAEF18F0D8EF90
:1031AE0018F0DEEF18F0036C041ED8B0042A03509A
:1031BE000410D8B4E5EF18F0E7EF18F00BEF19F0A4
:1031CE00010E056EEFEF18F0D89003360436052A7F
:1031DE0004AEF4EF18F0F6EF18F0EBEF18F0035022
:1031EE00015C04500258D8A0FFEF18F001EF19F05F
:1031FE0005EF19F00350015E0450025AD8900432C4
:10320E000332052EF6EF18F00650D8B411EF19F070
:10321E0013EF19F017EF19F0016C021ED8B0022A45
:10322E0001C001F002C002F01200949C948E38C0CE
:10323E0001F039C002F03AC003F03BC004F0010EB9
:10324E001BEC11F001C013F002C014F003C015F016
:10325E0004C016F0000E0F6E240E106EF40E116EDA
:10326E00470E126EDCEC08F00FC028F010C029F0EB
:10327E0011C02AF012C02BF0000E2C6E000E2D6E17
:10328E00800E2E6EBF0E2F6E67EC04F028C03CF041
:10329E0029C03DF02AC03EF02BC03FF03CC028F0C4
:1032AE003DC029F03EC02AF03FC02BF0BEEC15F019
:1032BE002850AF6E200EAC6E900EAB6E1200F7EC77
:1032CE0020F07CEC1DF001C0E2F102C0E3F101013F
:1032DE00E35107E1270EE25DD8B078EF19F07AEFEF
:1032EE0019F08BEF19F0E35109E10D0EE25DD8A054
:1032FE0083EF19F085EF19F08BEF19F0020EE2272C
:10330E00000EE323AAEF19F0E35109E1270EE25D67
:10331E00D8A094EF19F096EF19F09CEF19F0030E68
:10332E00E227000EE323AAEF19F0E35107E10D0E99
:10333E00E25DD8B0A5EF19F0A7EF19F0AAEF19F0DA
:10334E00E207D8A0E307E2C105F0E3C106F01200E0
:10335E0022EED2F010EE07F0070EDBCFE3FFE80609
:10336E00FCE222EECAF010EE0FF0070EDBCFE3FF09
:10337E00E806FCE222EEC2F010EE17F0070EDBCFED
:10338E00E3FFE806FCE222EEBAF010EE1FF0070EA5
:10339E00DBCFE3FFE806FCE21F0E036E000E046EA9
:1033AE00040EA1EC1DF0070E036E000E046E050E4A
:1033BE00A1EC1DF00F0E036E000E046E060EA1ECB6
:1033CE001DF0170E036E000E046E070EA1EC1DF01D
:1033DE0012000001EF51F011D8A4F8EF19F0FAEF36
:1033EE0019F0FFEF19F08A8A8A988A9630EF1AF050
:1033FE00EF05F011D8A406EF1AF008EF1AF00DEF52
:10340E001AF08A9A8A888A9630EF1AF0F0BF18EF6F
:10341E001AF0F05108E1EF05D8A018EF1AF01AEFE4
:10342E001AF02DEF1AF0F0BF28EF1AF0F05107E165
:10343E00040EEF5DD8B026EF1AF028EF1AF02DEF3C
:10344E001AF08A9A8A988A8630EF1AF08A8A8A88BF
:10345E008A8612009282000E046E010E036EEFEC4D
:10346E0020F028EC20F001C0DCF102C0DDF1DCC15F
:10347E0001F0DDC102F0000E046E050E036E53EC7A
:10348E0020F00A0E106ED89002320132102E4AEF42
:10349E001AF001C0DCF102C0DDF1DCC101F0DDC1CA
:1034AE0002F0000E046E640E036E53EC20F001C0A9
:1034BE0007F002C008F0000E0A6E050E096E66ECEB
:1034CE001BF007C0DAF108C0DBF1DAC10EF0DBC188
:1034DE000FF01200800E386E250E396E000E3A6E09
:1034EE00000E3B6E1CEC19F077EC20F069EC1FF02F
:1034FE00FEEC20F0000E0201376F010E366F80A831
:10350E008BEF1AF08DEF1AF099EF1AF00201365187
:10351E003711D8A495EF1AF097EF1AF099EF1AF029
:10352E002BEC1BF080A89EEF1AF0A0EF1AF086EF9E
:10353E001AF0020136053711D8A4A8EF1AF0AAEF37
:10354E001AF086EF1AF02FEC1CF086EF1AF000EF4F
:10355E0000F09280000E046E000E036EEFEC20F071
:10356E0028EC20F001C0DEF102C0DFF1E30E136E95
:10357E00360E146EFA0E156E3E0E166EDEC101F08C
:10358E00DFC102F0000E02BEFF0E036E046E010ECE
:10359E001BEC11F001C00FF002C010F003C011F0CF
:1035AE0004C012F0C7EC06F00FC028F010C029F0CE
:1035BE0011C02AF012C02BF0BEEC15F028C0E0F1BD
:1035CE0029C0E1F1E0C132F0E1C133F01200380E52
:1035DE00F66E3F0EF76E000EF86E02EEBAF010EEBB
:1035EE0031F00900F5CFEEFFE550E150FAE1260E7D
:1035FE00F66E410EF76E000EF86E01EEE4F010EE70
:10360E0016F00900F5CFEEFFE550E150FAE103EEBA
:10361E0000F0F00EEE6AE806FDE102EE00F05E0E3E
:10362E00EE6AE806FDE101EEC8F01C0EEE6AE80651
:10363E00FDE100EEF5F00B0EEE6AE806FDE1000E80
:10364E00F86E000171EF1AF003EC21F0AFEC19F0F7
:10365E00000E0001F26F010EF16F89EC1CF034C206
:10366E007AF035C27BF032C27CF033C27DF030C2CC
:10367E007EF031C27FF0BFEC16F080B849EF1BF040
:10368E004BEF1BF02FEF1BF0030E0001F46F080E33
:10369E00F36F770EE82EFED7F32FFCD7F42FFAD761
:1036AE00000E0201376F010E366F1A0E0001F36F16
:1036BE00F80EE82EFED7F32FFCD700F01200000E06
:1036CE000C6E000E0B6E09500A10D8B471EF1BF081
:1036DE0073EF1BF09BEF1BF0010E0D6E7BEF1BF0DB
:1036EE00D89009360A360D2A0AAE80EF1BF082EF0B
:1036FE001BF077EF1BF0D8900B360C360950075C99
:10370E000A500858D8A08EEF1BF090EF1BF095EFE3
:10371E001BF00950075E0A50085A0B80D8900A32E7
:10372E0009320D2E82EF1BF00BC007F00CC008F013
:10373E00120062C066F063C067F0000E0101C96F2F
:10374E00000EC86FBEEF1BF060C043F061C044F0C6
:10375E00660E456E000E466E64C047F065C048F0BA
:10376E00A9EC0AF043500101C8274450C92366C092
:10377E00F6FF67C0F7FF0800F5500009D8A4CAEF9E
:10378E001BF0CCEF1BF0ABEF1BF0C8C160F0C9C152
:10379E0061F01200E7EF1BF003C0F6FF04C0F7FF65
:1037AE00F86A070EF76403D00800F55005D0F6CF7F
:1037BE00E1FFF7CFE2FFE75007EC1DF0034A042AC2
:1037CE0003C0F6FF04C0F7FFF86A070EF76403D0D4
:1037DE000800F55005D0F6CFE1FFF7CFE2FFE75036
:1037EE000009D8A4FDEF1BF0FFEF1BF0D3EF1BF089
:1037FE0012009F0E096EFF0E0A6E07C00BF008C076
:10380E000CF009500B260A500C220C500AE11A0E2D
:10381E000B5CD8A015EF1CF018EF1CF0010E19EF81
:10382E001CF0000E0D6E0E6A0D500E10D8B422EF65
:10383E001CF024EF1CF02AEF1CF05F0E0714076E2D
:10384E00086A2EEF1CF007C007F008C008F012003F
:10385E0003EC21F0000E0001F26F000EF16F89EC07
:10386E001CF04EEC14F080B83FEF1CF041EF1CF052
:10387E0031EF1CF0020E0001F46F380EF36FAD0E37
:10388E00E82EFED7F32FFCD7F42FFAD7000E020145
:10389E00376F000E366F1A0E0001F36FF80EE82E1A
:1038AE00FED7F32FFCD700F01200046ED00EE4EC1E
:1038BE001FF0045066EC20F0D10EFBEC1FF0000E52
:1038CE00A8EC1EF0036E03500101D46FD56B000EF1
:1038DE00A8EC1EF0036E03500101D26FD36B000EE5
:1038EE00A8EC1EF0036E03500101D06FD16B010ED8
:1038FE00A8EC1EF0036E03500101CE6FCF6BBFEC30
:10390E0020F0120066EC19F005C034F206C035F254
:10391E00B0EC1AF032C032F233C033F231EC1AF09E
:10392E000EC030F20FC031F232C2E7F033C2E8F00F
:10393E0034C2E9F035C2EAF030C2EBF031C2ECF03D
:10394E00F1C0EDF0F2C0EEF017EC0FF0E7C0EFF0C3
:10395E00E8C0F0F0F0EC19F01200000E026E000E4E
:10396E00036E80B4BDEF1CF0BFEF1CF0C0EF1CF077
:10397E00022A1A0E016EF80EE82EFED7012EFCD783
:10398E0000D0032A040E0364CFEF1CF0D1EF1CF01D
:10399E00B8EF1CF0020E0264D7EF1CF0D9EF1CF04A
:1039AE00DCEF1CF0D880DDEF1CF0D89012006C0E0E
:1039BE000001726F000E736F68C074F069C075F00D
:1039CE00000E776F000E766F000E796F000E786F17
:1039DE00740E606F000E616F6AC062F06BC063F0B0
:1039EE00720E646F000E656FA0EC1BF00001765135
:1039FE006825D96E77516921DA6E000EDF6E1200DE
:103A0E00026E02C001F0F00E01168C500F0B011069
:103A1E008C6E8C808C8200F08C92030E016E980E50
:103A2E00E82EFED7012EFCD702C001F0013AF00EAF
:103A3E0001168C500F0B01108C6E8C8200F08C9244
:103A4E00080E016ECA0EE82EFED7012EFCD712000C
:103A5E00026E02C001F0F00E01168C500F0B011019
:103A6E008C6E8C908C8200F08C92030E016E980EF0
:103A7E00E82EFED7012EFCD702C001F0013AF00E5F
:103A8E0001168C500F0B01108C6E8C8200F08C92F4
:103A9E00080E016ECA0EE82EFED7012EFCD71200BC
:103AAE00046ED00EE4EC1FF0045066EC20F0D10E44
:103ABE00FBEC1FF0000EA8EC1EF0036E035001018C
:103ACE00D86FD96B000EA8EC1EF0036E03500101E7
:103ADE00D66FD76B010EA8EC1EF0036E03500001DB
:103AEE00F76FF86BBFEC20F01200000E046E000EA4
:103AFE00036E8B80060EE82EFED700D08B9082A22E
:103B0E008BEF1DF08DEF1DF086EF1DF095EF1DF084
:103B1E00034A042A260EE82EFED700D082B29AEF70
:103B2E001DF09CEF1DF08FEF1DF003C001F004C0DF
:103B3E0002F01200056E080E0560A8EF1DF0AAEF48
:103B4E001DF0C4EF1DF00550080DF350400F2FEC83
:103B5E001DF0000E066E06500324D96E000E0420D2
:103B6E00DA6EDF5007EC1DF0062A070E0664C2EF70
:103B7E001DF0C4EF1DF0B2EF1DF01200000E026E2C
:103B8E00D1EF1DF0022A0D0E016EFC0EE82EFED7AF
:103B9E00012EFCD7640E0260D7EF1DF0D9EF1DF099
:103BAE00E7EF1DF080A4DEEF1DF0E0EF1DF0E7EF74
:103BBE001DF080B6E5EF1DF0E7EF1DF0C9EF1DF02B
:103BCE001200000E106E000E0F6EF9EF1DF00EC0FB
:103BDE0001F0026A0CC003F00DC004F09AEC17F06D
:103BEE000F4A102A0F500A24D96E10500B20DA6E8D
:103BFE00DF500E6E0E50D8A407EF1EF009EF1EF028
:103C0E00EEEF1DF01200C150F00B0D09C16ECF0E7C
:103C1E00C11601500210D8A417EF1EF019EF1EF0B6
:103C2E001DEF1EF0C30EC21621EF1EF0C250C30BC5
:103C3E000409C26EC050C70B1009C06EC050F80BFD
:103C4E000109C06EC2801200086E020E086032EFCB
:103C5E001EF034EF1EF03DEF1EF005500F0B8009E5
:103C6E00096E09502FEC1DF044EF1EF005500F0B9E
:103C7E00C009096E09502FEC1DF006C003F007C0F5
:103C8E0004F0D1EC1BF0120014BE58EF1EF01450CD
:103C9E0006E11304D8B056EF1EF058EF1EF066EF93
:103CAE001EF013C015F014C016F0151E161E154A80
:103CBE00162A15C013F016C014F06AEF1EF013C0CA
:103CCE0013F014C014F0120007C009F008C00AF077
:103CDE0005C00BF006C00CF009C0D9FF0AC0DAFF10
:103CEE00094A0A2A0BC0E1FF0CC0E2FF0B4A0C2A5C
:103CFE00DFCFE7FFE750D8A487EF1EF089EF1EF065
:103D0E0073EF1EF012009F0E036EFF0E046E200E58
:103D1E000110056E000E0210066E035005260450AB
:103D2E00062206500AE11A0E055CD8A0A1EF1EF07D
:103D3E00A4EF1EF0010EA5EF1EF0000E016E026A3A
:103D4E001200016EC586C7A0AFEF1EF0B1EF1EF0D8
:103D5E00AAEF1EF0C9CF02F00150D8A4B9EF1EF0A1
:103D6E00BBEF1EF0BFEF1EF0D3EC20F0C1EF1EF044
:103D7E00C9EC20F0DDEC20F0025012000B6E0BC0EF
:103D8E0001F0026A000E046E0A0E036EC4EC18F007
:103D9E0001C009F002C00AF00BC001F0026A000E69
:103DAE00046E0A0E036E62EC18F00150100DF35003
:103DBE00092412009F0E036EFF0E046E01C005F063
:103DCE0002C006F0035005260450062206500AE1F2
:103DDE001A0E055CD8A0F6EF1EF0F9EF1EF0010EDC
:103DEE00FAEF1EF0000E016E026A1200BF0E036E95
:103DFE00FF0E046E01C005F002C006F0035005264A
:103E0E000450062206500AE11A0E055CD8A012EFE5
:103E1E001FF015EF1FF0010E16EF1FF0000E016ED2
:103E2E00026A1200030E5CEC1CF0B40E0001686F07
:103E3E00030E696F920E6A6F080E6B6FD2C16CF033
:103E4E00D3C16DF0D0C16EF0D1C16FF0CEC170F0A4
:103E5E00CFC171F0DEEC1CF0120001C003F002C005
:103E6E0004F03CEF1FF0014A022A01C0D9FF02C044
:103E7E00DAFFDF50D8A446EF1FF048EF1FF03AEFFD
:103E8E001FF00350015C016E04500258026E1200C6
:103E9E00046E020E046056EF1FF058EF1FF061EF34
:103EAE001FF003500F0B8009056E05502FEC1DF00F
:103EBE0068EF1FF003500F0BC009056E05502FEC75
:103ECE001DF01200000E956E270E036EF50EE82EF5
:103EDE00FED7032EFCD700F0020E2FEC1DF0280E9D
:103EEE002FEC1DF0010E2FEC1DF00C0E2FEC1DF023
:103EFE00060E2FEC1DF01200066E0001F751051094
:103F0E00F76FF851F86FD00EE4EC1FF0000E66EC70
:103F1E0020F0065066EC20F0035066EC20F00450C2
:103F2E0066EC20F0BFEC20F01200000A0A001F0E13
:103F3E0004000A0A0A1F110E0404000004021F02E4
:103F4E00040004150E1F0E150400444154453A207A
:0B3F5E0030302F30302F323030300078
:103F6A00C0EF1FF002C0D9FF03C0DAFFDF50A9EC8F
:103F7A0020F0024A032A02C0D9FF03C0DAFFDF5049
:103F8A00D8A4CAEF1FF0CCEF1FF0B7EF1FF0120052
:103F9A000DC001F00EC002F034EC1FF001500D24E8
:103FAA00056E02500E20066E0FC007F010C008F012
:103FBA006BEC1EF00DC00DF00EC00EF01200026E7A
:103FCA00C580C5B0EBEF1FF0EDEF1FF0E6EF1FF075
:103FDA009E96C7B6F3EF1FF0F5EF1FF0F7EF1FF04D
:103FEA00FAEF1FF0025066EC20F01200026EC58252
:103FFA00C5B202EF20F004EF20F0FDEF1FF09E960D
:10400A00C7B60AEF20F00CEF20F00EEF20F011EF08
:10401A0020F0025066EC20F01200066ED00EE4EC9E
:10402A001FF0030E66EC20F0065066EC20F00350F9
:10403A0066EC20F0045066EC20F0055066EC20F0A7
:10404A00BFEC20F01200C282C2B22EEF20F030EF95
:10405A0020F029EF20F0C4CF05F0066A0550036E60
:10406A00C350056E03C006F005C001F006C002F099
:10407A00120086EC20F034EC17F019EC1FF0B40EA5
:10408A000D6E030E0E6E780E0F6E030E106ECDECD3
:10409A001FF00DC07BF00EC07CF01200015003022D
:1040AA00F3CF05F0F4CF06F001500402F3500626D0
:1040BA0002500302F350062605C001F006C002F0C2
:1040CA001200016E01C0C9FFDDEC20F0C5AC70EF33
:1040DA0020F072EF20F075EF20F0010E76EF20F05D
:1040EA00020E1200700ED312D350FC0B0209D36ECB
:1040FA00720ED36EF19E07EC21F0E6EC20F0938865
:10410A00120093809382500EC76E280EC66E000E60
:10411A00C56E130EC86E9D869E961200286E756C2B
:10412A006C290054494D453A2030303A30303A3003
:10413A003000026E02C001F00F0E011602380F0B9A
:10414A000A0DF35001241200016E9EA8AFEF20F071
:10415A00B1EF20F0AAEF20F001C0ADFF1200036E0C
:10416A000350020DF35080092FEC1DF0035007ECA9
:10417A001DF01200C584C5B4C5EF20F0C7EF20F0CA
:10418A00C0EF20F0C7501200C58AC588C5B8D0EF65
:10419A0020F0D2EF20F0CBEF20F01200C59AC588AC
:1041AA00C5B8DAEF20F0DCEF20F0D5EF20F01200EE
:1041BA009EA6E2EF20F0E4EF20F0DDEF20F09E96DD
:1041CA001200C150F00B0D09C16E9284928669ECFF
:1041DA001FF0120003C001F004C002F00AEC1EF046
:1041EA00C08E12000F0EC1128B928B909482949003
:1041FA001200939C939A939693981200010E2FECB7
:0C420A001DF0120086EC20F012001200E3
:020000040020DA
:08000000FFFFFFFFFFFFFFFF00
:020000040030CA
:0E00000000081F1EFF8181FF0FC00FE00F40A0
:00000001FF
