:04000000CBEF17F03B
:1008000000257320416C65727461206465204C750D
:100810006D696E6F73696461643A20257320506F4F
:10082000726369656E746F200D0A00257320416C38
:10083000657274612064652054656D7065726174C1
:100840007572613A2025732047200D0A0025732018
:10085000416C657274612064652044697374616ED3
:100860006369613A20257320436D200D0A005469A5
:100870006D653A2025783A25783A257820414D0053
:1008800054696D653A2025783A25783A25782050C4
:100890004D00446174653A2025782F25782F2578FE
:1008A000200054696D653A2025783A25783A2578F4
:1008B0002000443A543A4C3A002564636D002564A4
:0D08C0004700256450002020002564000042
:1008CE002B50800B346E2B502B24366E2AAE72EFCB
:1008DE0004F074EF04F075EF04F036803650D8B49F
:1008EE007BEF04F07DEF04F092EF04F03628D8A4ED
:1008FE0083EF04F085EF04F08DEF04F0000E286E08
:10090E00000E296E000E2A6E000E2B6E2A8E000E21
:10091E002B6E9AEF04F0000E286E000E296E000E5C
:10092E002A6E000E2B6E2F50800B356E34503518FC
:10093E00D8B4A4EF04F0A6EF04F0A7EF04F0348CC3
:10094E002F502F24356E2EAEAFEF04F0B1EF04F022
:10095E00B2EF04F035803550D8B4B8EF04F0BAEFEA
:10096E0004F0CFEF04F03528D8A4C0EF04F0C2EFA6
:10097E0004F0CAEF04F0000E2C6E000E2D6E000E69
:10098E002E6E000E2F6E2E8E000E2F6ED7EF04F0F1
:10099E00000E2C6E000E2D6E000E2E6E000E2F6EA3
:1009AE003650355CD8B0DEEF04F0E0EF04F007EF20
:1009BE0005F034ACE5EF04F0E7EF04F0E9EF04F0F6
:1009CE00800E341A36C037F035C036F037C035F0E9
:1009DE0028C037F02CC028F037C02CF029C037F0D3
:1009EE002DC029F037C02DF02AC037F02EC02AF0C6
:1009FE0037C02EF02BC037F02FC02BF037C02FF0A2
:100A0E00000E376E365035C030F0316A305E000E53
:100A1E00315A31BE1CEF05F0315009E11A0E305C2F
:100A2E00D8A01CEF05F01EEF05F055EF05F028508D
:100A3E0029102A102B10D8A427EF05F02AEF05F065
:100A4E00010E2BEF05F0000E376E000E286E000E15
:100A5E00296E000E2A6E000E2B6E35C036F05EEF3C
:100A6E0005F037A03DEF05F03FEF05F045EF05F03F
:100A7E00D89037300109376E47EF05F0D8903732EE
:100A8E0028A04CEF05F04EEF05F04FEF05F0378E36
:100A9E002B342B322A3229322832362A3550365C04
:100AAE00D8A05CEF05F05EEF05F038EF05F034BC32
:100ABE0063EF05F065EF05F0A5EF05F03650D8A40D
:100ACE006BEF05F06DEF05F077EF05F0000E286E79
:100ADE00000E296E000E2A6E000E2B6EC6EF06F06B
:100AEE002C5028262D5029222E502A222F502B22D0
:100AFE002BA084EF05F086EF05F032EF06F037A05D
:100B0E008BEF05F08DEF05F093EF05F0D8903730B1
:100B1E000109376E95EF05F0D890373228A09AEF7D
:100B2E0005F09CEF05F09DEF05F0378E2B342B3240
:100B3E002A3229322832362A32EF06F02C50285C1F
:100B4E002D5029582E502A582B50800A306E2F5077
:100B5E00800A3058D8B0B6EF05F0B8EF05F0E3EFE5
:100B6E0005F028502C5C306E29502D58316E2A50CD
:100B7E002E58326E2B502F58336EFF0E3024286EA7
:100B8E00FF0E3120296EFF0E32202A6EFF0E33200B
:100B9E002B6E800E341A376C3750D8A4D9EF05F06F
:100BAE00DBEF05F0EBEF05F0010E2826000E2922F3
:100BBE002A222B22EBEF05F02C50285E2D50295ABD
:100BCE002E502A5A2F502B5A285029102A102B10EB
:100BDE00D8A4F4EF05F0F6EF05F02BEF06F0375042
:100BEE00D8A4FCEF05F0FEEF05F02BEF06F0000E9B
:100BFE00286E000E296E000E2A6E000E2B6EC6EFAA
:100C0E0006F0D890283629362A362B3637AE12EF14
:100C1E0006F014EF06F015EF06F0288037A01AEF55
:100C2E0006F01CEF06F020EF06F0D880373622EFE4
:100C3E0006F0D89037363650D8B428EF06F02AEFA3
:100C4E0006F02BEF06F036062AAE30EF06F032EF46
:100C5E0006F008EF06F0000E356E37AE39EF06F0EF
:100C6E003BEF06F053EF06F037C030F07F0E301634
:100C7E00D8B444EF06F046EF06F04AEF06F0010E48
:100C8E00356E53EF06F028A04FEF06F051EF06F049
:100C9E0053EF06F046EF06F03550D8B459EF06F094
:100CAE005BEF06F086EF06F0010E2826000E2922D5
:100CBE002A222B222BA066EF06F068EF06F086EFB5
:100CCE0006F028C030F029C031F02AC032F02BC017
:100CDE0033F03334333232323132303230C028F0E6
:100CEE0031C029F032C02AF033C02BF03628D8B4E8
:100CFE0083EF06F085EF06F086EF06F0362A3628EB
:100D0E00D8B48CEF06F08EEF06F096EF06F0365064
:100D1E00D8A494EF06F096EF06F0A8EF06F0000EBA
:100D2E00286E000E296E000E2A6E000E2B6E3650A7
:100D3E00D8A4A4EF06F0A6EF06F0A8EF06F0000E7A
:100D4E00346E36A0ADEF06F0AFEF06F0B2EF06F060
:100D5E002A8EB3EF06F02A9ED89036302B6E34AE24
:100D6E00BBEF06F0BDEF06F0BEEF06F02B8E28C0EF
:100D7E0028F029C029F02AC02AF02BC02BF012002F
:100D8E001250800B1B6E12501224216E11AED2EF38
:100D9E0006F0D4EF06F0D5EF06F021802150D8B43E
:100DAE00DBEF06F0DDEF06F0F0EF06F02128D8A419
:100DBE00E3EF06F0E5EF06F0EDEF06F0000E0F6E36
:100DCE00000E106E000E116E000E126E118EF8EFE8
:100DDE0006F0000E0F6E000E106E000E116E000E5D
:100DEE00126E1650800B1B1A16501624206E15AE5E
:100DFE0003EF07F005EF07F006EF07F02080205015
:100E0E00D8B40CEF07F00EEF07F021EF07F0202813
:100E1E00D8A414EF07F016EF07F01EEF07F0000E40
:100E2E00136E000E146E000E156E000E166E158EDD
:100E3E0029EF07F0000E136E000E146E000E156EE5
:100E4E00000E166E2050D8B42FEF07F031EF07F0DA
:100E5E0039EF07F02150D8A437EF07F039EF07F03C
:100E6E0043EF07F0000E0F6E000E106E000E116EA7
:100E7E00000E126EDBEF08F015500F02F3CF26F0C6
:100E8E00F4CF27F026501C6E1D6A1E6A1F6A27506B
:100E9E00226E236A246A256A14501002F3CF26F0BC
:100EAE00F4CF27F026501C26000E1D221E221F22D4
:100EBE0027502226000E232224222522135011020F
:100ECE00F3CF26F0F4CF27F026501C26000E1D225D
:100EDE001E221F2227502226000E232224222522E4
:100EEE001EC01FF01DC01EF01CC01DF01C6A13504A
:100EFE001002F3CF26F0F4CF27F026501C262750F1
:100F0E001D22000E1E22000E1F2214500F02F3CFC0
:100F1E0026F0F4CF27F026501C2627501D22000E57
:100F2E001E22000E1F221EC01FF01DC01EF01CC070
:100F3E001DF01C6A13500F02F3CF26F0F4CF27F0EA
:100F4E0026501C2627501D22000E1E22000E1F2288
:100F5E0015501002F3CF26F0F4CF27F0265022269C
:100F6E0027502322000E2422000E25221450110297
:100F7E00F3CF26F0F4CF27F0265022262750232237
:100F8E00000E2422000E252215501102F3CF26F05A
:100F9E00F4CF27F02650176E2750186E196A1A6A6A
:100FAE0019C01AF018C019F017C018F0176A1750A8
:100FBE00222618502322195024221A5025221CC0F2
:100FCE0017F01DC018F01EC019F01FC01AF0190E30
:100FDE00F6EF07F0D8901A32193218321732E82E7F
:100FEE00F1EF07F017502226185023221950242211
:100FFE001A5025221EC01FF01DC01EF01CC01DF071
:10100E001C6A205021C017F0186A1726000E1822ED
:10101E00820E1724266EFF0E1820276E2CEF08F076
:10102E00D89022362336243625361FAE21EF08F00F
:10103E0023EF08F024EF08F02280D8901C361D36DE
:10104E001E361F362606D8A0270624AE31EF08F02E
:10105E0033EF08F017EF08F0000E206E1FAE3AEFD8
:10106E0008F03CEF08F060EF08F0FF0E1C14176E4E
:10107E00FF0E1D14186EFF0E1E14196E7F0E1F1418
:10108E001A6E1750181019101A10D8B451EF08F024
:10109E0053EF08F057EF08F0010E206E60EF08F0E6
:1010AE0022A05CEF08F05EEF08F060EF08F053EF5F
:1010BE0008F02050D8B466EF08F068EF08F08CEF17
:1010CE0008F0010E2226000E23222422252225A01E
:1010DE0073EF08F075EF08F08CEF08F022C017F0F0
:1010EE0023C018F024C019F025C01AF01A341A3291
:1010FE0019321832173217C022F018C023F019C057
:10110E0024F01AC025F0264A272A27BE97EF08F0AA
:10111E00275008E12628D8A097EF08F099EF08F09D
:10112E00A3EF08F0000E226E000E236E800E246ECA
:10113E007F0E256ED1EF08F027BEB0EF08F02750D6
:10114E0006E12604D8B0AEEF08F0B0EF08F0BCEF21
:10115E0008F0000E226E000E236E000E246E000E9E
:10116E00256E000E1B6ED1EF08F026C021F0FF0E8B
:10117E002216FF0E23167F0E2416000E251621A012
:10118E00CBEF08F0CDEF08F0CEEF08F0248ED8901C
:10119E002130256E1B50251222C00FF023C010F0F7
:1011AE0024C011F025C012F012001250800B1F6ED9
:1011BE0012501224266E11AEE7EF08F0E9EF08F098
:1011CE00EAEF08F026802650D8B4F0EF08F0F2EFE0
:1011DE0008F007EF09F02628D8A4F8EF08F0FAEF88
:1011EE0008F002EF09F0000E0F6E000E106E000EEA
:1011FE00116E000E126E118E000E126E0FEF09F0B0
:10120E00000E0F6E000E106E000E116E000E126E9E
:10121E001650800B1F1A16501624276E15AE1AEF95
:10122E0009F01CEF09F01DEF09F027802750D8B404
:10123E0023EF09F025EF09F03AEF09F02728D8A49B
:10124E002BEF09F02DEF09F035EF09F0000E136EBC
:10125E00000E146E000E156E000E166E158E000E1C
:10126E00166E42EF09F0000E136E000E146E000E95
:10127E00156E000E166E1350141015101610D8A4FD
:10128E004BEF09F04DEF09F065EF09F0000E0F6E10
:10129E00000E106E000E116E000E126E800E1112E8
:1012AE007F0E12121F5012120FC00FF010C010F04E
:1012BE0011C011F012C012F0A8EF0AF02650D8A4F7
:1012CE006BEF09F06DEF09F077EF09F0000E0F6E7E
:1012DE00000E106E000E116E000E126EA8EF0AF0C8
:1012EE00275026C017F0186A175E000E185A7F0E88
:1012FE001724206E000E1820216E0FC01BF010C098
:10130E001CF011C01DF012C01EF0000E0F6E000E6C
:10131E00106E000E116E000E126E000E226E000E7A
:10132E00236E000E246E000E256E000E276ED8EF73
:10133E0009F02750D8B4A6EF09F0A8EF09F0BFEFD7
:10134E0009F0D8901B361C361D361E36D8900F3637
:10135E0010361136123625AEB7EF09F0B9EF09F097
:10136E00BAEF09F00F80D890223623362436253670
:10137E0013501B5C14501C5815501D5816501E58F7
:10138E00D8A0CCEF09F0CEEF09F0D7EF09F0258CFD
:10139E0013501B5E14501C5A15501D5A16501E5ACF
:1013AE00272A190E2764DEEF09F0E0EF09F0A0EF0F
:1013BE0009F01B501C101D101E10D8B4E9EF09F0D7
:1013CE00EBEF09F003EF0AF0228003EF0AF0D8905A
:1013DE000F3610361136123625AEF8EF09F0FAEF49
:1013EE0009F0FBEF09F00F80D89022362336243611
:1013FE0025362006D8A0210611AE08EF0AF00AEF16
:10140E000AF0EEEF09F0000E276E25AE11EF0AF08E
:10141E0013EF0AF037EF0AF0FF0E2214176EFF0ECD
:10142E002314186EFF0E2414196E7F0E25141A6ED7
:10143E001750181019101A10D8B428EF0AF02AEF06
:10144E000AF02EEF0AF0010E276E37EF0AF00FA00A
:10145E0033EF0AF035EF0AF037EF0AF02AEF0AF011
:10146E002750D8B43DEF0AF03FEF0AF063EF0AF0D1
:10147E00010E0F26000E10221122122212A04AEF88
:10148E000AF04CEF0AF063EF0AF00FC017F010C02D
:10149E0018F011C019F012C01AF01A341A3219329B
:1014AE001832173217C00FF018C010F019C011F013
:1014BE001AC012F0204A212A21BE6EEF0AF02150E6
:1014CE0008E12028D8A06EEF0AF070EF0AF07BEF4B
:1014DE000AF0000E216E2068000E0F6E000E106EC8
:1014EE00000E116E000E126E21BE88EF0AF0215012
:1014FE0006E12004D8B086EF0AF088EF0AF096EFE6
:10150E000AF0000E216E000E206E000E0F6E000E01
:10151E00106E000E116E000E126E000E1F6E20C0A9
:10152E0026F026A09DEF0AF09FEF0AF0A2EF0AF038
:10153E00118EA3EF0AF0119ED8902630126E59EF3D
:10154E0009F0120045C0D9FF46C0DAFFDECFF6FF24
:10155E00DDCFF7FF0800F550250AD8A4B9EF0AF041
:10156E00BBEF0AF016EF0CF045C0D9FF46C0DAFF0C
:10157E00DE2A000EDD22000E0101CB6F000ECA6FB7
:10158E00CAC1F7F0CBC1F8F0CC69CD6945C0D9FF1F
:10159E0046C0DAFFDECFF6FFDDCFF7FF0800F550CD
:1015AE00640AD8B4DDEF0AF0DFEF0AF0F1EF0AF0CB
:1015BE0045C0D9FF46C0DAFFDECFF6FFDDCFF7FF1D
:1015CE000800F550690AD8A4EFEF0AF0F1EF0AF01F
:1015DE0031EF0BF045C0D9FF46C0DAFFDE2A000E10
:1015EE00DD2247C0D9FF48C0DAFFDFCF49F0020E37
:1015FE00DE26DFCF4AF0000EDD2249C0D9FF4AC0F9
:10160E00DAFFDECF4DF0DDCF4EF0000E4EBEFF0EF8
:10161E004F6E506E516E526E536E546E43C01CF030
:10162E0044C01DF04DC01EF04EC01FF04FC020F044
:10163E0050C021F051C022F052C023F053C024F00C
:10164E0054C025F032EC0CF01CC043F01DC044F029
:10165E0031EF0CF045C0D9FF46C0DAFFDECFF6FF02
:10166E00DDCFF7FF0800F550730AD8A441EF0BF059
:10167E0043EF0BF06EEF0BF045C0D9FF46C0DAFF1B
:10168E00DE2A000EDD2247C0D9FF48C0DAFFDFCFC9
:10169E0049F0020EDE26DFCF4AF0000EDD2249C0F1
:1016AE00D9FF4AC0DAFFDECF5DF0DDCF5EF043C07A
:1016BE000AF044C00BF05DC00CF05EC00DF0ADEC56
:1016CE0011F00AC043F00BC044F031EF0CF045C0EE
:1016DE00D9FF46C0DAFFDECFF6FFDDCFF7FF0800F9
:1016EE00F550780AD8B47EEF0BF080EF0BF092EF46
:1016FE000BF045C0D9FF46C0DAFFDECFF6FFDDCFD7
:10170E00F7FF0800F550580AD8A490EF0BF092EFAF
:10171E000BF0E0EF0BF045C0D9FF46C0DAFFDECF8D
:10172E00F6FFDDCFF7FF0800F5CF5FF045C0D9FF1C
:10173E0046C0DAFFDE2A000EDD2247C0D9FF48C0C0
:10174E00DAFFDFCF49F0020EDE26DFCF4AF0000EC1
:10175E00DD2249C0D9FF4AC0DAFFDECF4BF0DDCF24
:10176E004CF04BC055F04CC056F0576A586A596A47
:10177E005A6A5B6A5C6A43C01CF044C01DF055C0D7
:10178E001EF056C01FF057C020F058C021F059C0AF
:10179E0022F05AC023F05BC024F05CC025F05FC07D
:1017AE0026F0A7EC0DF01CC043F01DC044F031EF45
:1017BE000CF045C0D9FF46C0DAFFDECFF6FFDDCF15
:1017CE00F7FF0800F550250AD8A4F0EF0BF0F2EF62
:1017DE000BF009EF0CF045C0D9FF46C0DAFFDE2A48
:1017EE00000EDD22000E026E250E016E43C003F0C8
:1017FE0044C004F070EC15F0000E446E010E436E02
:10180E0031EF0CF045C0D9FF46C0DAFFDE2A000EDC
:10181E00DD22000E446E000E436E31EF0CF045C01B
:10182E00D9FF46C0DAFFDECFF6FFDDCFF7FF0800A7
:10183E00F550016E026A43C003F044C004F070EC30
:10184E0015F045C0D9FF46C0DAFFDE2A000EDD22B4
:10185E0003EF0CF012001EC036F01FC037F020C090
:10186E0038F021C039F022C03AF023C03BF024C03A
:10187E003CF025C03DF03DBE47EF0CF04AEF0CF0BA
:10188E00010E4BEF0CF0000E346E356A34503510ED
:10189E00D8B454EF0CF056EF0CF066EF0CF03D1E82
:1018AE003C1E3B1E3A1E391E381E371E366C000E6D
:1018BE003722382239223A223B223C223D22010194
:1018CE00CDBF6CEF0CF06EEF0CF070EF0CF0000172
:1018DE00F7930101CDBF7EEF0CF0CD5106E1CC05A3
:1018EE00D8B07CEF0CF07EEF0CF084EF0CF0000E15
:1018FE00316E010E306E88EF0CF0CCC130F0CDC1E0
:10190E0031F0CAC132F0CBC133F034503510D8A407
:10191E0093EF0CF095EF0CF09DEF0CF00001F7A596
:10192E009BEF0CF09DEF0CF0A0EF0CF03206D8A060
:10193E003306000E3F6E1F0E3E6E000E0201B36F99
:10194E0025EF0DF03E06D8A03F06940E3E24D96E2C
:10195E00020E3F20DA6E36C001F037C002F038C0FA
:10196E0003F039C004F03AC005F03BC006F03CC0AD
:10197E0007F03DC008F00A0E096E000E0A6E000E4A
:10198E000B6E000E0C6E000E0D6E000E0E6E000E27
:10199E000F6E000E106E70EC12F001C026F002C039
:1019AE0027F003C028F004C029F005C02AF006C0B5
:1019BE002BF007C02CF008C02DF026C013F028C065
:1019CE0014F028EC1AF01350300FDF6E3006D8A04A
:1019DE0031063206D8A0330636C001F037C002F009
:1019EE0038C003F039C004F03AC005F03BC006F031
:1019FE003CC007F03DC008F00A0E096E000E0A6EDC
:101A0E00000E0B6E000E0C6E000E0D6E000E0E6EA6
:101A1E00000E0F6E000E106EE9EC10F001C036F0E5
:101A2E0002C037F003C038F004C039F005C03AF0F8
:101A3E0006C03BF007C03CF008C03DF03FBE30EFA3
:101A4E000DF03F5008E13E04D8A030EF0DF032EF1C
:101A5E000DF063EF0DF036503710381039103A1084
:101A6E003B103C103D10D8A43FEF0DF041EF0DF0B0
:101A7E00A9EF0CF031BE4EEF0DF0315006E13004FF
:101A8E00D8B04CEF0DF04EEF0DF0A9EF0CF033BEC9
:101A9E0059EF0DF0335008E13204D8A059EF0DF094
:101AAE005BEF0DF063EF0DF00001F7B361EF0DF09A
:101ABE0063EF0DF0A9EF0CF034503510D8A46AEF97
:101ACE000DF06CEF0DF074EF0DF00001F7A572EF55
:101ADE000DF074EF0DF092EF0DF03E06D8A03F061C
:101AEE0034503510D8A47EEF0DF080EF0DF086EF58
:101AFE000DF0000E2F6E2B0E2E6E8AEF0DF0000ED7
:101B0E002F6E2D0E2E6E940E3E24D96E020E3F2099
:101B1E00DA6E2EC0DFFF1CC011F01DC012F0940E45
:101B2E003E24136E020E3F20146E32C015F033C0E9
:101B3E0016F0D5EC15F011C01CF012C01DF01200FD
:101B4E000101CDBFADEF0DF0AFEF0DF0B1EF0DF028
:101B5E000001F7930101CDBFBFEF0DF0CD5106E1AE
:101B6E00CC05D8B0BDEF0DF0BFEF0DF0C5EF0DF009
:101B7E00000E346E010E336EC9EF0DF0CCC133F092
:101B8E00CDC134F0CAC135F0CBC136F00001F7A992
:101B9E00D3EF0DF0D5EF0DF0D9EF0DF0FE0E35268B
:101BAE00FF0E36221EC037F01FC038F020C039F0AD
:101BBE0021C03AF022C03BF023C03CF024C03DF0DF
:101BCE0025C03EF0000E406E1F0E3F6E000E02014D
:101BDE00B36FA5EF0EF03F06D8A040060F0E3714D8
:101BEE00416E426A42BE05EF0EF0425009E10A0E06
:101BFE00415CD8A005EF0EF007EF0EF00FEF0EF0E0
:101C0E00570E4124416E000E4220426E15EF0EF02B
:101C1E00300E4124416E000E4220426EBF0E276EE2
:101C2E00FF0E286E2650296E2A6A27502926285024
:101C3E002A222A500AE11A0E295CD8A029EF0EF0AA
:101C4E002CEF0EF0010E2DEF0EF0000E2F6E306AFF
:101C5E002F503010D8B436EF0EF038EF0EF068EF8C
:101C6E000EF09F0E276EFF0E286E200E4110296E6D
:101C7E00000E42102A6E2750292628502A222A505A
:101C8E000AE11A0E295CD8A04FEF0EF052EF0EF0BB
:101C9E00010E53EF0EF0000E316E326A31503210DB
:101CAE00D8B45CEF0EF05EEF0EF068EF0EF041C0B0
:101CBE0007F042C008F073EC18F007C041F008C0FE
:101CCE0042F0940E3F24D96E020E4020DA6E41C0CF
:101CDE00DFFF3306D8A034063506D8A0360637C047
:101CEE0027F038C028F039C029F03AC02AF03BC09E
:101CFE002BF03CC02CF03DC02DF03EC02EF0050E5A
:101D0E0092EF0EF0D8902E322D322C322B322A3208
:101D1E00293228322732E82E89EF0EF027C037F00D
:101D2E0028C038F029C039F02AC03AF02BC03BF059
:101D3E002CC03CF02DC03DF02EC03EF040BEB1EFA9
:101D4E000EF0405009E1020E3F5CD8A0B1EF0EF04C
:101D5E00B3EF0EF0E4EF0EF03750381039103A10A2
:101D6E003B103C103D103E10D8A4C0EF0EF0C2EF59
:101D7E000EF0F2EF0DF034BECFEF0EF0345006E160
:101D8E003304D8B0CDEF0EF0CFEF0EF0F2EF0DF032
:101D9E0036BEDAEF0EF0365008E13504D8A0DAEF91
:101DAE000EF0DCEF0EF0E4EF0EF00001F7B3E2EF11
:101DBE000EF0E4EF0EF0F2EF0DF00001F7A9EAEFEE
:101DCE000EF0ECEF0EF002EF0FF03F06D8A040063B
:101DDE00940E3F24D96E020E4020DA6E26C0DFFF2D
:101DEE003F06D8A04006940E3F24D96E020E402026
:101DFE00DA6E300EDF6E1CC011F01DC012F0940EA4
:101E0E003F24136E020E4020146E35C015F036C0FE
:101E1E0016F0D5EC15F011C01CF012C01DF012001A
:101E2E00000E02015B6F000E5A6F0001E8BF29EF32
:101E3E000FF0E85109E1110EE75DD8A029EF0FF080
:101E4E002BEF0FF039EF0FF0E8BF37EF0FF0E8513F
:101E5E0009E11F0EE75DD8A037EF0FF039EF0FF055
:101E6E006CEF0FF0020192510001E7190BE1020134
:101E7E0093510001E819D8B447EF0FF049EF0FF076
:101E8E0066EF0FF0000E686F020E696FC90E6A6F73
:101E9E00080E6B6FE7C06CF0E8C06DF0FEEC18F04A
:101EAE00000E00017E6F010E7D6F000E7F6F020E21
:101EBE00806FA5EC13F0E7C092F2E8C093F2050E26
:101ECE0071EC1CF002015A4B5B2B0001EABF7BEF59
:101EDE000FF0EA5107E1280EE95DD8B079EF0FF067
:101EEE007BEF0FF0AEEF0FF0020190510001E919F8
:101EFE000BE1020191510001EA19D8B489EF0FF0FC
:101F0E008BEF0FF0A8EF0FF01E0E686F020E696FC9
:101F1E00C90E6A6F080E6B6FE9C06CF0EAC06DF007
:101F2E00FEEC18F0000E00017E6F020E7D6F1E0E8D
:101F3E007F6F020E806FA5EC13F0E9C090F2EAC03D
:101F4E0091F2060E71EC1CF002015A4B5B2B000154
:101F5E00ECBFBDEF0FF0EC5107E13D0EEB5DD8B0DD
:101F6E00BBEF0FF0BDEF0FF0CBEF0FF0ECBFCBEFF1
:101F7E000FF0EC5107E10A0EEB5DD8B0C9EF0FF090
:101F8E00CBEF0FF0FDEF0FF0070E71EC1CF002011E
:101F9E005A4B5B2B8E510001EB190BE102018F5155
:101FAE000001EC19D8B4DEEF0FF0E0EF0FF0FDEF0B
:101FBE000FF03C0E686F020E696FC90E6A6F080E45
:101FCE006B6FEBC06CF0ECC06DF0FEEC18F0000E19
:101FDE0000017E6F030E7D6F3C0E7F6F020E806FD1
:101FEE00A5EC13F0EBC08EF2ECC08FF202015A5149
:101FFE005B11D8A405EF10F007EF10F00AEF10F008
:10200E00040E71EC1CF05AC2E7F05BC2E8F012004D
:10201E00096E0950D8B416EF10F018EF10F03AEF21
:10202E0010F004BE1FEF10F01DEF10F03AEF10F09D
:10203E0001C005F002C006F003C007F004C008F0AE
:10204E00051E061E071E081E052A000E0622072262
:10205E00082205C00BF006C00CF007C00DF008C03A
:10206E000EF042EF10F001C00BF002C00CF003C0F6
:10207E000DF004C00EF00150021003100410D8A48D
:10208E004BEF10F04DEF10F057EF10F0000E016E09
:10209E00000E026E000E036E000E046EE8EF10F0DE
:1020AE00960E0A6E61EF10F00A2AD8900E320D329B
:1020BE000C320B32000E0B14056E000E0C14066E55
:1020CE00000E0D14076EFE0E0E14086E055006104F
:1020DE0007100810D8A476EF10F078EF10F05BEF31
:1020EE0010F086EF10F00A2A010E0B26000E0C22BD
:1020FE000D220E22D8900E320D320C320B32000E03
:10210E000B14056E000E0C14066E000E0D14076EE9
:10211E00FF0E0E14086E0550061007100810D8A4F6
:10212E009BEF10F09DEF10F07AEF10F0A5EF10F08E
:10213E000A06D8900B360C360D360E360DBEAAEFAB
:10214E0010F0ACEF10F0B4EF10F0020E0A60B2EF28
:10215E0010F0B4EF10F09FEF10F00AB0B9EF10F0DE
:10216E00BBEF10F0BCEF10F00D9ED8900A320AC0F3
:10217E0005F0066A076A086A05C008F0076A066A6B
:10218E00056A05500B1206500C1207500D1208501E
:10219E000E120950D8B4D6EF10F0D8EF10F0E0EFD1
:1021AE0010F004BEDFEF10F0DDEF10F0E0EF10F0F6
:1021BE000E8E0BC001F00CC002F00DC003F00EC06D
:1021CE0004F01200000E126E10BEF2EF10F0F0EFDF
:1021DE0010F004EF11F0101E0F1E0E1E0D1E0C1E21
:1021EE000B1E0A1E096C000E0A220B220C220D2257
:1021FE000E220F221022010E126E08BE0BEF11F0EE
:10220E0009EF11F01DEF11F0081E071E061E051E28
:10221E00041E031E021E016C000E02220322042263
:10222E000522062207220822010E121A20EE13F0B2
:10223E00070EDE6AE806FDE209500A100B100C10BC
:10224E000D100E100F101010D8B430EF11F032EF39
:10225E0011F084EF11F0010E116E40EF11F0D890D5
:10226E0009360A360B360C360D360E360F3610364C
:10227E00112A10AE45EF11F047EF11F036EF11F0C5
:10228E00D8901336143615361636173618361936C4
:10229E001A360950015C0A5002580B5003580C5064
:1022AE0004580D5005580E5006580F500758105030
:1022BE000858D8A065EF11F067EF11F078EF11F024
:1022CE000950015E0A50025A0B50035A0C50045A20
:1022DE000D50055A0E50065A0F50075A1050085AF4
:1022EE001380D89010320F320E320D320C320B3268
:1022FE000A320932112E47EF11F01250D8B48AEF7C
:10230E0011F08CEF11F09CEF11F01A1E191E181E11
:10231E00171E161E151E141E136C000E14221522E7
:10232E0016221722182219221A2213C001F014C0E5
:10233E0002F015C003F016C004F017C005F018C067
:10234E0006F019C007F01AC008F0120021EEE6F0F0
:10235E0010EE0FF0060EDBCFE3FFE806FCE20CC03A
:10236E001AF00DC01BF01A501B10D8A4C1EF11F0BB
:10237E00C3EF11F0C7EF11F00F0E1A6E000E1B6EA9
:10238E001AC001F01BC002F034EC1BF001C01EF0AD
:10239E0002C01FF0CCC11CF0CDC11DF01DBEDAEF86
:1023AE0011F0DCEF11F0F1EF11F01E501C5C1D501E
:1023BE00800A0E6E1F50800A0E58D8A0E9EF11F059
:1023CE00EBEF11F0EDEF11F0F1EF11F01CC01EF07C
:1023DE001DC01FF01EC01CF01FC01DF0CAC118F09A
:1023EE00CBC119F00001F7B1FFEF11F001EF12F0C0
:1023FE001EEF12F00FEF12F0000E026E200E016EA5
:10240E000AC003F00BC004F070EC15F01E4A1F2A30
:10241E0018501E5C1F50800A0E6E1950800A0E58FE
:10242E00D8A01CEF12F01EEF12F003EF12F0000E08
:10243E00176E000E166E37EF12F01AC0D9FF1BC0C2
:10244E00DAFFDF500E6E0E50016E026A0AC003F004
:10245E000BC004F070EC15F01A4A1B2A164A172A04
:10246E001C50165C1750800A0E6E1D50800A0E58B6
:10247E00D8A044EF12F046EF12F024EF12F0000154
:10248E00F7A14CEF12F04EEF12F06BEF12F05CEF83
:10249E0012F0000E026E200E016E0AC003F00BC089
:1024AE0004F070EC15F01E4A1F2A18501E5C1F50C7
:1024BE00800A0E6E1950800A0E58D8A069EF12F0DD
:1024CE006BEF12F050EF12F01EC00AF01FC00BF0AF
:1024DE001200000E126E08BE79EF12F077EF12F0B6
:1024EE008BEF12F0081E071E061E051E041E031E8D
:1024FE00021E016C000E0222032204220522062275
:10250E0007220822010E126E10BE92EF12F090EF0B
:10251E0012F0A2EF12F0101E0F1E0E1E0D1E0C1E3C
:10252E000B1E0A1E096C000E0A220B220C220D2213
:10253E000E220F22102209500A100B100C100D1033
:10254E000E100F101010D8B4AFEF12F0B1EF12F052
:10255E00F9EF12F0010E116EBFEF12F0D89009369E
:10256E000A360B360C360D360E360F361036112A4D
:10257E0010AEC4EF12F0C6EF12F0B5EF12F0095024
:10258E00015C0A5002580B5003580C5004580D5061
:10259E0005580E5006580F50075810500858D8A01E
:1025AE00DBEF12F0DDEF12F0EDEF12F00950015EED
:1025BE000A50025A0B50035A0C50045A0D50055A29
:1025CE000E50065A0F50075A1050085AD890103213
:1025DE000F320E320D320C320B320A320932112EFC
:1025EE00C6EF12F01250D8B4FFEF12F001EF13F055
:1025FE0011EF13F0081E071E061E051E041E031EF5
:10260E00021E016C000E0222032204220522062263
:10261E000722082201C001F002C002F003C003F03D
:10262E0004C004F005C005F006C006F007C007F0B0
:10263E0008C008F012002A342B34316E3150D8A461
:10264E002BEF13F02DEF13F037EF13F0000E286E73
:10265E00000E296E000E2A6E000E2B6EA4EF13F0E4
:10266E0028C02CF029C02DF02AC02EF02BC02FF040
:10267E00200E47EF13F0D8902F322E322D322C32FF
:10268E00E82E42EF13F02C50306E2A8EFF0E2816D5
:10269E00FF0E2916FF0E2A16000E2B16960E315E11
:1026AE0031BE5EEF13F05CEF13F074EF13F03150A8
:1026BE00800A970FD8B066EF13F068EF13F06AEF49
:1026CE0013F02DEF13F0D8902B322A322932283204
:1026DE00313E6AEF13F08CEF13F01F0E31647AEF78
:1026EE0013F07CEF13F084EF13F02DEF13F0D8906E
:1026FE00283629362A362B3631063150D8A48AEFA1
:10270E0013F08CEF13F07EEF13F03050D8B492EF3D
:10271E0013F094EF13F09CEF13F02B1E2A1E291EBC
:10272E00286C000E29222A222B2228C028F029C02C
:10273E0029F02AC02AF02BC02BF0120000017D05D3
:10274E007E11D8A4ADEF13F0AFEF13F0CEEF13F070
:10275E00F5EC1BF07BC0E5F07CC0E6F0810E0001CD
:10276E00686F000E696F2B0E6A6F080E6B6FE5C0F7
:10277E006CF0E6C06DF07FC06EF080C06FF0FEECC6
:10278E0018F0810E026E000E036E82EC1BF0020E2C
:10279E0000017D197E11D8A4D7EF13F0D9EF13F0F5
:1027AE00F8EF13F0F5EC1BF07BC0E5F07CC0E6F023
:1027BE00000E0001686F010E696F4D0E6A6F080EF4
:1027CE006B6FE5C06CF0E6C06DF07FC06EF080C040
:1027DE006FF0FEEC18F0000E026E010E036E82EC2E
:1027EE001BF0030E00017D197E11D8A401EF14F029
:1027FE0003EF14F022EF14F0F5EC1BF07BC0E5F0C4
:10280E007CC0E6F0640E0001686F010E696F010E68
:10281E006A6F080E6B6FE5C06CF0E6C06DF07FC09E
:10282E006EF080C06FF0FEEC18F0640E026E010EBA
:10283E00036E82EC1BF01200000E056EB20E066ED9
:10284E00080E076E000E48EC1AF020EE82F00F0E06
:10285E00DE6AE806FDE2820E0001686F000E696F07
:10286E00B90E6A6F080E6B6F7AC06CF07BC06DF09C
:10287E00FEEC18F020EE92F00F0EDE6AE806FDE296
:10288E00920E0001686F000E696FBE0E6A6F080E21
:10289E006B6F7CC06CF07DC06DF0FEEC18F020EE1E
:1028AE00A2F00F0EDE6AE806FDE2A20E0001686FCE
:1028BE00000E696FC20E6A6F080E6B6F7EC06CF0F1
:1028CE007FC06DF0FEEC18F0C00E27EC19F0000E74
:1028DE00056E820E066E000E076E030E48EC1AF0A1
:1028EE00060E056E920E066E000E076E030E48EC77
:1028FE001AF00B0E056EA20E066E000E076E030E7C
:10290E0048EC1AF00A0E0001816F220E806FA10EA4
:10291E00E82EFED7802FFCD7812FFAD7B7EC1CF00C
:10292E001200000E0001F46F000EF36F000EF66F32
:10293E00000EF56F82EC16F005C0F1F006C0F2F055
:10294E008DEC17F032C0F3F033C0F4F04DEC17F00D
:10295E000EC0F5F00FC0F6F0C4EF14F002018C4B70
:10296E008D2B030E0001F06F080EEF6F770EE82E21
:10297E00FED7EF2FFCD7F02FFAD780B8C9EF14F09F
:10298E00CBEF14F0B5EF14F002018DBFD8EF14F0B9
:10299E008D5109E1030E8C5DD8A0D8EF14F0DAEF5B
:1029AE0014F0DEEF14F0000E8D6F010E8C6F8C059F
:1029BE008D11D8A4E5EF14F0E7EF14F0F5EF14F055
:1029CE00F1C07AF0F2C07BF0F3C07CF0F4C07DF081
:1029DE00F5C07EF0F6C07FF023EC14F0F3C0E7F004
:1029EE00F4C0E8F0F1C0E9F0F2C0EAF0F5C0EBF0A7
:1029FE00F6C0ECF017EC0FF0E7C0EDF0E8C0EEF02B
:102A0E00CBEC16F01200050E00017A6F000E77EC7B
:102A1E0019F07CEC1CF00001F9AD18EF15F01AEF6F
:102A2E0015F055EF15F0F9AB1FEF15F021EF15F07E
:102A3E003DEF15F01F0EF915F96FFA6B780E686FF2
:102A4E00030E696F800E6A6F080E6B6FF9C06CF023
:102A5E00FAC06DF0D6C16EF0D7C16FF0D8C170F06C
:102A6E00D9C171F0FEEC18F06FEF15F0780E686FAB
:102A7E00030E696F6E0E6A6F080E6B6FF9C06CF005
:102A8E00FAC06DF0D6C16EF0D7C16FF0D8C170F03C
:102A9E00D9C171F0FEEC18F06FEF15F03F0EF9157D
:102AAE00F96FFA6B780E686F030E696FA20E6A6F7C
:102ABE00080E6B6FF9C06CF0FAC06DF0D6C16EF0F7
:102ACE00D7C16FF0D8C170F0D9C171F0FEEC18F01B
:102ADE00120003500410D8B477EF15F079EF15F00B
:102AEE0082EF15F003500410D8A480EF15F082EF9A
:102AFE0015F087EF15F00150BEEC1CF0D4EF15F079
:102B0E0020EE04F00350D9260450DA22DE50DE10F7
:102B1E00D8B494EF15F096EF15F0B1EF15F020EE56
:102B2E0004F00350D9260450DA2210EE02F00350BE
:102B3E00E1260450E222DE50E65CE650800A096E81
:102B4E00DE50800A0958D8B0AFEF15F0B1EF15F08E
:102B5E00D4EF15F020EE02F00350D9260450DA22FD
:102B6E00DECF05F0DDCF06F003C0D9FF04C0DAFFDB
:102B7E00DECF07F0DDCF08F005500724D96E0650E2
:102B8E000820DA6E01C0DFFF20EE02F00350D926D6
:102B9E000450DA22DE2A000EDD2212000001F7A117
:102BAE00DBEF15F0DDEF15F0E7EF15F013C00AF0CF
:102BBE0014C00BF011C00CF012C00DF0E5EC19F0C2
:102BCE0016BEECEF15F0EEEF15F0F4EF15F015C0A4
:102BDE001AF016C01BF0F8EF15F0000E1B6E000E6B
:102BEE001A6E000E196E000E186E0AEF16F0000E19
:102BFE00026E200E016E11C003F012C004F070ECD4
:102C0E0015F0184A192A1A50185C1950800A176EB6
:102C1E001B50800A1758D8A017EF16F019EF16F0B0
:102C2E00FEEF15F00001F7B11FEF16F021EF16F0D1
:102C3E002BEF16F013C00AF014C00BF011C00CF0FD
:102C4E0012C00DF0E5EC19F013C001F014C002F043
:102C5E0034EC1BF01A500124116E1B500220126E20
:102C6E001200949C948E38C001F039C002F03AC024
:102C7E0003F03BC004F0010E0FEC10F001C013F096
:102C8E0002C014F003C015F004C016F0000E0F6E53
:102C9E00240E106EF40E116E470E126EDCEC08F060
:102CAE000FC028F010C029F011C02AF012C02BF06E
:102CBE00000E2C6E000E2D6E800E2E6EBF0E2F6E21
:102CCE0067EC04F028C03CF029C03DF02AC03EF06D
:102CDE002BC03FF03CC028F03DC029F03EC02AF08A
:102CEE003FC02BF022EC13F02850AF6E200EAC6ECE
:102CFE00900EAB6E1200ABEC1CF09CEC19F001C008
:102D0E00E2F102C0E3F10101E35107E1270EE25DBA
:102D1E00D8B094EF16F096EF16F0A7EF16F0E35139
:102D2E0009E10D0EE25DD8A09FEF16F0A1EF16F0AF
:102D3E00A7EF16F0020EE227000EE323C6EF16F001
:102D4E00E35109E1270EE25DD8A0B0EF16F0B2EF25
:102D5E0016F0B8EF16F0030EE227000EE323C6EFCF
:102D6E0016F0E35107E10D0EE25DD8B0C1EF16F09B
:102D7E00C3EF16F0C6EF16F0E207D8A0E307E2C1E4
:102D8E0005F0E3C106F012000001ED51EE11D8A4DA
:102D9E00D3EF16F0D5EF16F0DAEF16F08A8A8A988E
:102DAE008A960BEF17F0ED05EE11D8A4E1EF16F0B1
:102DBE00E3EF16F0E8EF16F08A9A8A888A960BEF00
:102DCE0017F0EEBFF3EF16F0EE5108E1ED05D8A0C7
:102DDE00F3EF16F0F5EF16F008EF17F0EEBF03EF76
:102DEE0017F0EE5107E1040EED5DD8B001EF17F0CC
:102DFE0003EF17F008EF17F08A9A8A988A860BEF7E
:102E0E0017F08A8A8A888A86120022EECCF010EE9B
:102E1E0007F0070EDBCFE3FFE806FCE222EEC4F07C
:102E2E0010EE0FF0070EDBCFE3FFE806FCE222EE1A
:102E3E00BCF010EE17F0070EDBCFE3FFE806FCE266
:102E4E0022EEB4F010EE1FF0070EDBCFE3FFE80624
:102E5E00FCE21F0E036E000E046E040EC1EC19F0A0
:102E6E00070E036E000E046E050EC1EC19F00F0E68
:102E7E00036E000E046E060EC1EC19F0170E036EF3
:102E8E00000E046E070EC1EC19F012009282000EB5
:102E9E00046E010E036EA3EC1CF0DFEC1BF001C000
:102EAE00DCF102C0DDF1DCC101F0DDC102F0000E8B
:102EBE00046E050E036E0AEC1CF00A0E106ED8900E
:102ECE0002320132102E66EF17F001C0DCF102C0A3
:102EDE00DDF1DCC101F0DDC102F0000E046E640E06
:102EEE00036E0AEC1CF001C007F002C008F0000EE1
:102EFE000A6E050E096E08EC18F007C0DAF108C06C
:102F0E00DBF1DAC10EF0DBC10FF012009280000E81
:102F1E00046E000E036EA3EC1CF0DFEC1BF001C080
:102F2E00DEF102C0DFF1E30E136E360E146EFA0EF2
:102F3E00156E3E0E166EDEC101F0DFC102F0000E00
:102F4E0002BEFF0E036E046E010E0FEC10F001C0F8
:102F5E000FF002C010F003C011F004C012F0C7EC65
:102F6E0006F00FC028F010C029F011C02AF012C0D0
:102F7E002BF022EC13F028C0E0F129C0E1F1E0C102
:102F8E0032F0E1C133F01200D20EF66E360EF76E4D
:102F9E00000EF86E02EEB4F010EE31F00900F5CF2F
:102FAE00EEFFE550E150FAE1B60EF66E380EF76E12
:102FBE00000EF86E01EEE6F010EE16F00900F5CFF9
:102FCE00EEFFE550E150FAE103EE00F0F00EEE6A8E
:102FDE00E806FDE102EE5CF0580EEE6AE806FDE151
:102FEE0001EEC8F01E0EEE6AE806FDE100EEF7F007
:102FFE00090EEE6AE806FDE1000EF86E000168EFBC
:10300E001AF0000E0C6E000E0B6E09500A10D8B49A
:10301E0013EF18F015EF18F03DEF18F0010E0D6ECE
:10302E001DEF18F0D89009360A360D2A0AAE22EF97
:10303E0018F024EF18F019EF18F0D8900B360C3664
:10304E000950075C0A500858D8A030EF18F032EF3C
:10305E0018F037EF18F00950075E0A50085A0B8027
:10306E00D8900A3209320D2E24EF18F00BC007F05B
:10307E000CC008F0120062C066F063C067F0000E6C
:10308E000101C96F000EC86F60EF18F060C043F009
:10309E0061C044F0660E456E000E466E64C047F089
:1030AE0065C048F0A9EC0AF043500101C82744500E
:1030BE00C92366C0F6FF67C0F7FF0800F550000988
:1030CE00D8A46CEF18F06EEF18F04DEF18F0C8C1E1
:1030DE0060F0C9C161F012009F0E096EFF0E0A6EFC
:1030EE0007C00BF008C00CF009500B260A500C223A
:1030FE000C500AE11A0E0B5CD8A088EF18F08BEF7B
:10310E0018F0010E8CEF18F0000E0D6E0E6A0D50B9
:10311E000E10D8B495EF18F097EF18F09DEF18F049
:10312E005F0E0714076E086AA1EF18F007C007F0CC
:10313E0008C008F01200B8EF18F003C0F6FF04C084
:10314E00F7FFF86A070EF76403D00800F55005D0B4
:10315E00F6CFE9FFF7CFEAFFEF504FEC19F0034A35
:10316E00042A03C0F6FF04C0F7FFF86A070EF764DF
:10317E0003D00800F55005D0F6CFE9FFF7CFEAFFF0
:10318E00EF500009D8A4CEEF18F0D0EF18F0A4EF4E
:10319E0018F01200046ED00EB1EC1BF004501DECB2
:1031AE001CF0D10EC8EC1BF0000EC4EC1AF0036E2E
:1031BE0003500101D46FD56B000EC4EC1AF0036EF0
:1031CE0003500101D26FD36B000EC4EC1AF0036EE4
:1031DE0003500101D06FD16B010EC4EC1AF0036ED7
:1031EE0003500101CE6FCF6B7CEC1CF012006C0E05
:1031FE000001726F000E736F68C074F069C075F0D5
:10320E00000E776F000E766F000E796F000E786FDE
:10321E00740E606F000E616F6AC062F06BC063F077
:10322E00720E646F000E656F42EC18F0000176515D
:10323E006825D96E77516921DA6E000EDF6E1200A5
:10324E00026E02C001F0F00E01168C500F0B011031
:10325E008C6E8C908C8200F08C92030E016E980E08
:10326E00E82EFED7012EFCD702C001F0013AF00E77
:10327E0001168C500F0B01108C6E8C8200F08C920C
:10328E00080E016ECA0EE82EFED7012EFCD71200D4
:10329E00026E02C001F0F00E01168C500F0B0110E1
:1032AE008C6E8C808C8200F08C92030E016E980EC8
:1032BE00E82EFED7012EFCD702C001F0013AF00E27
:1032CE0001168C500F0B01108C6E8C8200F08C92BC
:1032DE00080E016ECA0EE82EFED7012EFCD7120084
:1032EE00046ED00EB1EC1BF004501DEC1CF0D10E90
:1032FE00C8EC1BF0000EC4EC1AF0036E0350010173
:10330E00D86FD96B000EC4EC1AF0036E0350010196
:10331E00D66FD76B010EC4EC1AF0036E035000018A
:10332E00F96FFA6B7CEC1CF01200000E046E000EAE
:10333E00036E8B80060EE82EFED700D08B9082A2F5
:10334E00ABEF19F0ADEF19F0A6EF19F0B5EF19F0DC
:10335E00034A042A260EE82EFED700D082B2BAEF18
:10336E0019F0BCEF19F0AFEF19F003C001F004C073
:10337E0002F01200056E080E0560C8EF19F0CAEFD4
:10338E0019F0E4EF19F00550080DF350400F27EC3B
:10339E0019F0000E066E06500324D96E000E04209E
:1033AE00DA6EDF504FEC19F0062A070E0664E2EFD4
:1033BE0019F0E4EF19F0D2EF19F01200000E106EB2
:1033CE00000E0F6EF6EF19F00EC001F0026A0CC07F
:1033DE0003F00DC004F070EC15F00F4A102A0F50D8
:1033EE000A24D96E10500B20DA6EDF500E6E0E507E
:1033FE00D8A404EF1AF006EF1AF0EBEF19F0120052
:10340E00C150F00B0D09C16ECF0EC1160150021046
:10341E00D8A414EF1AF016EF1AF01AEF1AF0C30E22
:10342E00C2161EEF1AF0C250C30B0409C26EC05072
:10343E00C70B1009C06EC050F80B0109C06EC280D8
:10344E00120014BE35EF1AF0145006E11304D8B072
:10345E0033EF1AF035EF1AF043EF1AF013C015F0F0
:10346E0014C016F0151E161E154A162A15C013F096
:10347E0016C014F047EF1AF013C013F014C014F076
:10348E001200086E020E08604FEF1AF051EF1AF09C
:10349E005AEF1AF005500F0B8009096E095027ECF0
:1034AE0019F061EF1AF005500F0BC009096E0950A3
:1034BE0027EC19F006C003F007C004F0A2EC18F0D8
:1034CE001200800E386E250E396E000E3A6E000E0A
:1034DE003B6E38EC16F03FEC1CF04FEC1BF0B2ECF0
:1034EE001CF00CEC17F00D0EC16E000E02018D6F6C
:1034FE00010E8C6F98EC14F081EF1AF000EF00F0D3
:10350E0007C009F008C00AF005C00BF006C00CF0A9
:10351E0009C0D9FF0AC0DAFF094A0A2A0BC0E1FF27
:10352E000CC0E2FF0B4A0C2ADFCFE7FFE750D8A40E
:10353E00A3EF1AF0A5EF1AF08FEF1AF012009F0EFC
:10354E00036EFF0E046E200E0110056E000E0210AB
:10355E00066E035005260450062206500AE11A0E86
:10356E00055CD8A0BDEF1AF0C0EF1AF0010EC1EF46
:10357E001AF0000E016E026A1200016EC586C7A017
:10358E00CBEF1AF0CDEF1AF0C6EF1AF0C9CF02F05A
:10359E000150D8A4D5EF1AF0D7EF1AF0DBEF1AF0DE
:1035AE0090EC1CF0DDEF1AF086EC1CF09AEC1CF09F
:1035BE00025012009F0E036EFF0E046E01C005F046
:1035CE0002C006F0035005260450062206500AE1FA
:1035DE001A0E055CD8A0F6EF1AF0F9EF1AF0010EEC
:1035EE00FAEF1AF0000E016E026A1200BF0E036EA1
:1035FE00FF0E046E01C005F002C006F00350052652
:10360E000450062206500AE11A0E055CD8A012EFED
:10361E001BF015EF1BF0010E16EF1BF0000E016EE6
:10362E00026A1200030ED1EC18F0B40E0001686F9E
:10363E00030E696F920E6A6F080E6B6FD2C16CF03B
:10364E00D3C16DF0D0C16EF0D1C16FF0CEC170F0AC
:10365E00CFC171F0FEEC18F0120001C003F002C0F1
:10366E0004F03CEF1BF0014A022A01C0D9FF02C050
:10367E00DAFFDF50D8A446EF1BF048EF1BF03AEF0D
:10368E001BF00350015C016E04500258026E1200D2
:10369E00000E956E270E036EF50EE82EFED7032E46
:1036AE00FCD700F0020E27EC19F0280E27EC19F0CB
:1036BE00010E27EC19F00C0E27EC19F0060E27EC74
:1036CE0019F01200000A0A001F0E04000A0A0A1F4F
:1036DE00110E0404000004021F02040004150E1F44
:1036EE000E150400444154453A2030302F30302F0F
:0536FE00323030300005
:103704008DEF1BF002C0D9FF03C0DAFFDF5066EC77
:103714001CF0024A032A02C0D9FF03C0DAFFDF50BB
:10372400D8A497EF1BF099EF1BF084EF1BF0120065
:103734000DC001F00EC002F034EC1BF001500D245A
:10374400056E02500E20066E0FC007F010C008F080
:1037540087EC1AF00DC00DF00EC00EF01200026ED0
:10376400C580C5B0B8EF1BF0BAEF1BF0B3EF1BF088
:103774009E96C7B6C0EF1BF0C2EF1BF0C4EF1BF060
:10378400C7EF1BF002501DEC1CF01200026EC58244
:10379400C5B2CFEF1BF0D1EF1BF0CAEF1BF09E9622
:1037A400C7B6D7EF1BF0D9EF1BF0DBEF1BF0DEEF52
:1037B4001BF002501DEC1CF01200C282C2B2E5EFF5
:1037C4001BF0E7EF1BF0E0EF1BF0C4CF05F0066A37
:1037D4000550036EC350056E03C006F005C001F02A
:1037E40006C002F012004EEC1CF00AEC15F019ECC5
:1037F4001BF0B40E0D6E030E0E6E780E0F6E030EDC
:10380400106E9AEC1BF00DC07BF00EC07CF0120021
:1038140001500302F3CF05F0F4CF06F00150040287
:10382400F350062602500302F350062605C001F0A9
:1038340006C002F01200016E01C0C9FF9AEC1CF030
:10384400C5AC27EF1CF029EF1CF02CEF1CF0010E87
:103854002DEF1CF0020E12009250FB0B0409926E25
:103864009230E832010B046EC1500418F00B0418B6
:10387400C16E92864FEC1BF01200700ED312D3501F
:10388400FC0B0209D36E720ED36EF19EBBEC1CF0DE
:103894002EEC1CF09388120093809382500EC76E16
:1038A400280EC66E000EC56E130EC86E9D869E96BB
:1038B4001200286E756C6C290054494D453A20302D
:1038C400303A30303A303000016E9EA86CEF1CF074
:1038D4006EEF1CF067EF1CF001C0ADFF1200036E29
:1038E4000350020DF350800927EC19F003504FECFC
:1038F40019F01200C584C5B482EF1CF084EF1CF0EB
:103904007DEF1CF0C7501200C58AC588C5B88DEF7D
:103914001CF08FEF1CF088EF1CF01200C59AC588CC
:10392400C5B897EF1CF099EF1CF092EF1CF0120051
:103934009EA69FEF1CF0A1EF1CF09AEF1CF09E9640
:10394400120003C001F004C002F007EC1AF0C08EAC
:1039540012000F0EC1128B928B90948294901200DD
:10396400939C939A939693981200010E27EC19F066
:0A39740012004EEC1CF012001200CD
:020000040020DA
:08000000FFFFFFFFFFFFFFFF00
:020000040030CA
:0E00000000081F1EFF8181FF0FC00FE00F40A0
:00000001FF
