:0400000054EF1AF0AF
:1008000000257320416C65727461206465204C750D
:100810006D696E6F73696461643A20257320506F4F
:10082000726369656E746F200D0A00257320416C38
:10083000657274612064652054656D7065726174C1
:100840007572613A2025732047200D0A0025732018
:10085000416C657274612064652044697374616ED3
:100860006369613A20257320436D200D0A005469A5
:100870006D653A2025783A25783A257820414D0053
:1008800054696D653A2025783A25783A25782050C4
:100890004D00446174653A2025782F25782F2578FE
:1008A000200054696D653A2025783A25783A2578F4
:1008B0002000443A543A4C3A002564636D002564A4
:0D08C0004700256450002020002564000042
:1008CE002B50800B346E2B502B24366E2AAE72EFCB
:1008DE0004F074EF04F075EF04F036803650D8B49F
:1008EE007BEF04F07DEF04F092EF04F03628D8A4ED
:1008FE0083EF04F085EF04F08DEF04F0000E286E08
:10090E00000E296E000E2A6E000E2B6E2A8E000E21
:10091E002B6E9AEF04F0000E286E000E296E000E5C
:10092E002A6E000E2B6E2F50800B356E34503518FC
:10093E00D8B4A4EF04F0A6EF04F0A7EF04F0348CC3
:10094E002F502F24356E2EAEAFEF04F0B1EF04F022
:10095E00B2EF04F035803550D8B4B8EF04F0BAEFEA
:10096E0004F0CFEF04F03528D8A4C0EF04F0C2EFA6
:10097E0004F0CAEF04F0000E2C6E000E2D6E000E69
:10098E002E6E000E2F6E2E8E000E2F6ED7EF04F0F1
:10099E00000E2C6E000E2D6E000E2E6E000E2F6EA3
:1009AE003650355CD8B0DEEF04F0E0EF04F007EF20
:1009BE0005F034ACE5EF04F0E7EF04F0E9EF04F0F6
:1009CE00800E341A36C037F035C036F037C035F0E9
:1009DE0028C037F02CC028F037C02CF029C037F0D3
:1009EE002DC029F037C02DF02AC037F02EC02AF0C6
:1009FE0037C02EF02BC037F02FC02BF037C02FF0A2
:100A0E00000E376E365035C030F0316A305E000E53
:100A1E00315A31BE1CEF05F0315009E11A0E305C2F
:100A2E00D8A01CEF05F01EEF05F055EF05F028508D
:100A3E0029102A102B10D8A427EF05F02AEF05F065
:100A4E00010E2BEF05F0000E376E000E286E000E15
:100A5E00296E000E2A6E000E2B6E35C036F05EEF3C
:100A6E0005F037A03DEF05F03FEF05F045EF05F03F
:100A7E00D89037300109376E47EF05F0D8903732EE
:100A8E0028A04CEF05F04EEF05F04FEF05F0378E36
:100A9E002B342B322A3229322832362A3550365C04
:100AAE00D8A05CEF05F05EEF05F038EF05F034BC32
:100ABE0063EF05F065EF05F0A5EF05F03650D8A40D
:100ACE006BEF05F06DEF05F077EF05F0000E286E79
:100ADE00000E296E000E2A6E000E2B6EC6EF06F06B
:100AEE002C5028262D5029222E502A222F502B22D0
:100AFE002BA084EF05F086EF05F032EF06F037A05D
:100B0E008BEF05F08DEF05F093EF05F0D8903730B1
:100B1E000109376E95EF05F0D890373228A09AEF7D
:100B2E0005F09CEF05F09DEF05F0378E2B342B3240
:100B3E002A3229322832362A32EF06F02C50285C1F
:100B4E002D5029582E502A582B50800A306E2F5077
:100B5E00800A3058D8B0B6EF05F0B8EF05F0E3EFE5
:100B6E0005F028502C5C306E29502D58316E2A50CD
:100B7E002E58326E2B502F58336EFF0E3024286EA7
:100B8E00FF0E3120296EFF0E32202A6EFF0E33200B
:100B9E002B6E800E341A376C3750D8A4D9EF05F06F
:100BAE00DBEF05F0EBEF05F0010E2826000E2922F3
:100BBE002A222B22EBEF05F02C50285E2D50295ABD
:100BCE002E502A5A2F502B5A285029102A102B10EB
:100BDE00D8A4F4EF05F0F6EF05F02BEF06F0375042
:100BEE00D8A4FCEF05F0FEEF05F02BEF06F0000E9B
:100BFE00286E000E296E000E2A6E000E2B6EC6EFAA
:100C0E0006F0D890283629362A362B3637AE12EF14
:100C1E0006F014EF06F015EF06F0288037A01AEF55
:100C2E0006F01CEF06F020EF06F0D880373622EFE4
:100C3E0006F0D89037363650D8B428EF06F02AEFA3
:100C4E0006F02BEF06F036062AAE30EF06F032EF46
:100C5E0006F008EF06F0000E356E37AE39EF06F0EF
:100C6E003BEF06F053EF06F037C030F07F0E301634
:100C7E00D8B444EF06F046EF06F04AEF06F0010E48
:100C8E00356E53EF06F028A04FEF06F051EF06F049
:100C9E0053EF06F046EF06F03550D8B459EF06F094
:100CAE005BEF06F086EF06F0010E2826000E2922D5
:100CBE002A222B222BA066EF06F068EF06F086EFB5
:100CCE0006F028C030F029C031F02AC032F02BC017
:100CDE0033F03334333232323132303230C028F0E6
:100CEE0031C029F032C02AF033C02BF03628D8B4E8
:100CFE0083EF06F085EF06F086EF06F0362A3628EB
:100D0E00D8B48CEF06F08EEF06F096EF06F0365064
:100D1E00D8A494EF06F096EF06F0A8EF06F0000EBA
:100D2E00286E000E296E000E2A6E000E2B6E3650A7
:100D3E00D8A4A4EF06F0A6EF06F0A8EF06F0000E7A
:100D4E00346E36A0ADEF06F0AFEF06F0B2EF06F060
:100D5E002A8EB3EF06F02A9ED89036302B6E34AE24
:100D6E00BBEF06F0BDEF06F0BEEF06F02B8E28C0EF
:100D7E0028F029C029F02AC02AF02BC02BF012002F
:100D8E001250800B1B6E12501224216E11AED2EF38
:100D9E0006F0D4EF06F0D5EF06F021802150D8B43E
:100DAE00DBEF06F0DDEF06F0F0EF06F02128D8A419
:100DBE00E3EF06F0E5EF06F0EDEF06F0000E0F6E36
:100DCE00000E106E000E116E000E126E118EF8EFE8
:100DDE0006F0000E0F6E000E106E000E116E000E5D
:100DEE00126E1650800B1B1A16501624206E15AE5E
:100DFE0003EF07F005EF07F006EF07F02080205015
:100E0E00D8B40CEF07F00EEF07F021EF07F0202813
:100E1E00D8A414EF07F016EF07F01EEF07F0000E40
:100E2E00136E000E146E000E156E000E166E158EDD
:100E3E0029EF07F0000E136E000E146E000E156EE5
:100E4E00000E166E2050D8B42FEF07F031EF07F0DA
:100E5E0039EF07F02150D8A437EF07F039EF07F03C
:100E6E0043EF07F0000E0F6E000E106E000E116EA7
:100E7E00000E126EDBEF08F015500F02F3CF26F0C6
:100E8E00F4CF27F026501C6E1D6A1E6A1F6A27506B
:100E9E00226E236A246A256A14501002F3CF26F0BC
:100EAE00F4CF27F026501C26000E1D221E221F22D4
:100EBE0027502226000E232224222522135011020F
:100ECE00F3CF26F0F4CF27F026501C26000E1D225D
:100EDE001E221F2227502226000E232224222522E4
:100EEE001EC01FF01DC01EF01CC01DF01C6A13504A
:100EFE001002F3CF26F0F4CF27F026501C262750F1
:100F0E001D22000E1E22000E1F2214500F02F3CFC0
:100F1E0026F0F4CF27F026501C2627501D22000E57
:100F2E001E22000E1F221EC01FF01DC01EF01CC070
:100F3E001DF01C6A13500F02F3CF26F0F4CF27F0EA
:100F4E0026501C2627501D22000E1E22000E1F2288
:100F5E0015501002F3CF26F0F4CF27F0265022269C
:100F6E0027502322000E2422000E25221450110297
:100F7E00F3CF26F0F4CF27F0265022262750232237
:100F8E00000E2422000E252215501102F3CF26F05A
:100F9E00F4CF27F02650176E2750186E196A1A6A6A
:100FAE0019C01AF018C019F017C018F0176A1750A8
:100FBE00222618502322195024221A5025221CC0F2
:100FCE0017F01DC018F01EC019F01FC01AF0190E30
:100FDE00F6EF07F0D8901A32193218321732E82E7F
:100FEE00F1EF07F017502226185023221950242211
:100FFE001A5025221EC01FF01DC01EF01CC01DF071
:10100E001C6A205021C017F0186A1726000E1822ED
:10101E00820E1724266EFF0E1820276E2CEF08F076
:10102E00D89022362336243625361FAE21EF08F00F
:10103E0023EF08F024EF08F02280D8901C361D36DE
:10104E001E361F362606D8A0270624AE31EF08F02E
:10105E0033EF08F017EF08F0000E206E1FAE3AEFD8
:10106E0008F03CEF08F060EF08F0FF0E1C14176E4E
:10107E00FF0E1D14186EFF0E1E14196E7F0E1F1418
:10108E001A6E1750181019101A10D8B451EF08F024
:10109E0053EF08F057EF08F0010E206E60EF08F0E6
:1010AE0022A05CEF08F05EEF08F060EF08F053EF5F
:1010BE0008F02050D8B466EF08F068EF08F08CEF17
:1010CE0008F0010E2226000E23222422252225A01E
:1010DE0073EF08F075EF08F08CEF08F022C017F0F0
:1010EE0023C018F024C019F025C01AF01A341A3291
:1010FE0019321832173217C022F018C023F019C057
:10110E0024F01AC025F0264A272A27BE97EF08F0AA
:10111E00275008E12628D8A097EF08F099EF08F09D
:10112E00A3EF08F0000E226E000E236E800E246ECA
:10113E007F0E256ED1EF08F027BEB0EF08F02750D6
:10114E0006E12604D8B0AEEF08F0B0EF08F0BCEF21
:10115E0008F0000E226E000E236E000E246E000E9E
:10116E00256E000E1B6ED1EF08F026C021F0FF0E8B
:10117E002216FF0E23167F0E2416000E251621A012
:10118E00CBEF08F0CDEF08F0CEEF08F0248ED8901C
:10119E002130256E1B50251222C00FF023C010F0F7
:1011AE0024C011F025C012F012001250800B1F6ED9
:1011BE0012501224266E11AEE7EF08F0E9EF08F098
:1011CE00EAEF08F026802650D8B4F0EF08F0F2EFE0
:1011DE0008F007EF09F02628D8A4F8EF08F0FAEF88
:1011EE0008F002EF09F0000E0F6E000E106E000EEA
:1011FE00116E000E126E118E000E126E0FEF09F0B0
:10120E00000E0F6E000E106E000E116E000E126E9E
:10121E001650800B1F1A16501624276E15AE1AEF95
:10122E0009F01CEF09F01DEF09F027802750D8B404
:10123E0023EF09F025EF09F03AEF09F02728D8A49B
:10124E002BEF09F02DEF09F035EF09F0000E136EBC
:10125E00000E146E000E156E000E166E158E000E1C
:10126E00166E42EF09F0000E136E000E146E000E95
:10127E00156E000E166E1350141015101610D8A4FD
:10128E004BEF09F04DEF09F065EF09F0000E0F6E10
:10129E00000E106E000E116E000E126E800E1112E8
:1012AE007F0E12121F5012120FC00FF010C010F04E
:1012BE0011C011F012C012F0A8EF0AF02650D8A4F7
:1012CE006BEF09F06DEF09F077EF09F0000E0F6E7E
:1012DE00000E106E000E116E000E126EA8EF0AF0C8
:1012EE00275026C017F0186A175E000E185A7F0E88
:1012FE001724206E000E1820216E0FC01BF010C098
:10130E001CF011C01DF012C01EF0000E0F6E000E6C
:10131E00106E000E116E000E126E000E226E000E7A
:10132E00236E000E246E000E256E000E276ED8EF73
:10133E0009F02750D8B4A6EF09F0A8EF09F0BFEFD7
:10134E0009F0D8901B361C361D361E36D8900F3637
:10135E0010361136123625AEB7EF09F0B9EF09F097
:10136E00BAEF09F00F80D890223623362436253670
:10137E0013501B5C14501C5815501D5816501E58F7
:10138E00D8A0CCEF09F0CEEF09F0D7EF09F0258CFD
:10139E0013501B5E14501C5A15501D5A16501E5ACF
:1013AE00272A190E2764DEEF09F0E0EF09F0A0EF0F
:1013BE0009F01B501C101D101E10D8B4E9EF09F0D7
:1013CE00EBEF09F003EF0AF0228003EF0AF0D8905A
:1013DE000F3610361136123625AEF8EF09F0FAEF49
:1013EE0009F0FBEF09F00F80D89022362336243611
:1013FE0025362006D8A0210611AE08EF0AF00AEF16
:10140E000AF0EEEF09F0000E276E25AE11EF0AF08E
:10141E0013EF0AF037EF0AF0FF0E2214176EFF0ECD
:10142E002314186EFF0E2414196E7F0E25141A6ED7
:10143E001750181019101A10D8B428EF0AF02AEF06
:10144E000AF02EEF0AF0010E276E37EF0AF00FA00A
:10145E0033EF0AF035EF0AF037EF0AF02AEF0AF011
:10146E002750D8B43DEF0AF03FEF0AF063EF0AF0D1
:10147E00010E0F26000E10221122122212A04AEF88
:10148E000AF04CEF0AF063EF0AF00FC017F010C02D
:10149E0018F011C019F012C01AF01A341A3219329B
:1014AE001832173217C00FF018C010F019C011F013
:1014BE001AC012F0204A212A21BE6EEF0AF02150E6
:1014CE0008E12028D8A06EEF0AF070EF0AF07BEF4B
:1014DE000AF0000E216E2068000E0F6E000E106EC8
:1014EE00000E116E000E126E21BE88EF0AF0215012
:1014FE0006E12004D8B086EF0AF088EF0AF096EFE6
:10150E000AF0000E216E000E206E000E0F6E000E01
:10151E00106E000E116E000E126E000E1F6E20C0A9
:10152E0026F026A09DEF0AF09FEF0AF0A2EF0AF038
:10153E00118EA3EF0AF0119ED8902630126E59EF3D
:10154E0009F0120045C0D9FF46C0DAFFDECFF6FF24
:10155E00DDCFF7FF0800F550250AD8A4B9EF0AF041
:10156E00BBEF0AF017EF0CF045C0D9FF46C0DAFF0B
:10157E00DE2A000EDD22000E0101E96F000EE86F7B
:10158E00E8C1F3F0E9C1F4F00001F169F26945C078
:10159E00D9FF46C0DAFFDECFF6FFDDCFF7FF08003A
:1015AE00F550640AD8B4DEEF0AF0E0EF0AF0F2EF7D
:1015BE000AF045C0D9FF46C0DAFFDECFF6FFDDCF19
:1015CE00F7FF0800F550690AD8A4F0EF0AF0F2EF21
:1015DE000AF032EF0BF045C0D9FF46C0DAFFDE2A23
:1015EE00000EDD2247C0D9FF48C0DAFFDFCF49F039
:1015FE00020EDE26DFCF4AF0000EDD2249C0D9FFF3
:10160E004AC0DAFFDECF4DF0DDCF4EF0000E4EBEFB
:10161E00FF0E4F6E506E516E526E536E546E43C02F
:10162E001CF044C01DF04DC01EF04EC01FF04FC048
:10163E0020F050C021F051C022F052C023F053C010
:10164E0024F054C025F033EC0CF01CC043F01DC048
:10165E0044F032EF0CF045C0D9FF46C0DAFFDECFC2
:10166E00F6FFDDCFF7FF0800F550730AD8A442EF5E
:10167E000BF044EF0BF06FEF0BF045C0D9FF46C0F7
:10168E00DAFFDE2A000EDD2247C0D9FF48C0DAFF9E
:10169E00DFCF49F0020EDE26DFCF4AF0000EDD224C
:1016AE0049C0D9FF4AC0DAFFDECF5DF0DDCF5EF074
:1016BE0043C00AF044C00BF05DC00CF05EC00DF0EC
:1016CE005DEC13F00AC043F00BC044F032EF0CF0A7
:1016DE0045C0D9FF46C0DAFFDECFF6FFDDCFF7FFFC
:1016EE000800F550780AD8B47FEF0BF081EF0BF0BD
:1016FE0093EF0BF045C0D9FF46C0DAFFDECFF6FF01
:10170E00DDCFF7FF0800F550580AD8A491EF0BF083
:10171E0093EF0BF0E1EF0BF045C0D9FF46C0DAFFB7
:10172E00DECFF6FFDDCFF7FF0800F5CF5FF045C047
:10173E00D9FF46C0DAFFDE2A000EDD2247C0D9FFF0
:10174E0048C0DAFFDFCF49F0020EDE26DFCF4AF0C7
:10175E00000EDD2249C0D9FF4AC0DAFFDECF4BF0C2
:10176E00DDCF4CF04BC055F04CC056F0576A586A5E
:10177E00596A5A6A5B6A5C6A43C01CF044C01DF029
:10178E0055C01EF056C01FF057C020F058C021F0B3
:10179E0059C022F05AC023F05BC024F05CC025F083
:1017AE005FC026F0A5EC0DF01CC043F01DC044F048
:1017BE0032EF0CF045C0D9FF46C0DAFFDECFF6FFA0
:1017CE00DDCFF7FF0800F550250AD8A4F1EF0BF096
:1017DE00F3EF0BF00AEF0CF045C0D9FF46C0DAFF6D
:1017EE00DE2A000EDD22000E026E250E016E43C0B3
:1017FE0003F044C004F03FEC17F0000E446E010EEF
:10180E00436E32EF0CF045C0D9FF46C0DAFFDE2A38
:10181E00000EDD22000E446E000E436E32EF0CF011
:10182E0045C0D9FF46C0DAFFDECFF6FFDDCFF7FFAA
:10183E000800F550016E026A43C003F044C004F084
:10184E003FEC17F045C0D9FF46C0DAFFDE2A000E86
:10185E00DD2204EF0CF012001EC036F01FC037F070
:10186E0020C038F021C039F022C03AF023C03BF03E
:10187E0024C03CF025C03DF03DBE48EF0CF04BEFD0
:10188E000CF0010E4CEF0CF0000E346E356A345035
:10189E003510D8B455EF0CF057EF0CF067EF0CF095
:1018AE003D1E3C1E3B1E3A1E391E381E371E366C20
:1018BE00000E3722382239223A223B223C223D2288
:1018CE000001F2BF6DEF0CF06FEF0CF070EF0CF04B
:1018DE00F393F2BF7DEF0CF0F25106E1F105D8B0B3
:1018EE007BEF0CF07DEF0CF083EF0CF0000E316E01
:1018FE00010E306E87EF0CF0F1C030F0F2C031F017
:10190E00E8C132F0E9C133F034503510D8A492EF6B
:10191E000CF094EF0CF09BEF0CF0F3A599EF0CF09C
:10192E009BEF0CF09EEF0CF03206D8A03306000EA3
:10193E003F6E1F0E3E6E000E02015D6F23EF0DF027
:10194E003E06D8A03F063E0E3E24D96E020E3F2024
:10195E00DA6E36C001F037C002F038C003F039C07D
:10196E0004F03AC005F03BC006F03CC007F03DC0A5
:10197E0008F00A0E096E000E0A6E000E0B6E000EB7
:10198E000C6E000E0D6E000E0E6E000E0F6E000E23
:10199E00106E20EC14F001C026F002C027F003C038
:1019AE0028F004C029F005C02AF006C02BF007C0AD
:1019BE002CF008C02DF026C013F028C014F0E6EC71
:1019CE001DF01350300FDF6E3006D8A031063206F0
:1019DE00D8A0330636C001F037C002F038C003F08D
:1019EE0039C004F03AC005F03BC006F03CC007F029
:1019FE003DC008F00A0E096E000E0A6E000E0B6E48
:101A0E00000E0C6E000E0D6E000E0E6E000E0F6EA2
:101A1E00000E106E99EC12F001C036F002C037F0D5
:101A2E0003C038F004C039F005C03AF006C03BF0F0
:101A3E0007C03CF008C03DF03FBE2EEF0DF03F500A
:101A4E0008E13E04D8A02EEF0DF030EF0DF061EF5F
:101A5E000DF036503710381039103A103B103C103C
:101A6E003D10D8A43DEF0DF03FEF0DF0A7EF0CF0B9
:101A7E0031BE4CEF0DF0315006E13004D8B04AEFD4
:101A8E000DF04CEF0DF0A7EF0CF033BE57EF0DF04D
:101A9E00335008E13204D8A057EF0DF059EF0DF096
:101AAE0061EF0DF00001F3B35FEF0DF061EF0DF09C
:101ABE00A7EF0CF034503510D8A468EF0DF06AEF94
:101ACE000DF072EF0DF00001F3A570EF0DF072EF57
:101ADE000DF090EF0DF03E06D8A03F0634503510B5
:101AEE00D8A47CEF0DF07EEF0DF084EF0DF0000E1C
:101AFE002F6E2B0E2E6E88EF0DF0000E2F6E2D0E0C
:101B0E002E6E3E0E3E24D96E020E3F20DA6E2EC091
:101B1E00DFFF1CC011F01DC012F03E0E3E24136EEE
:101B2E00020E3F20146E32C015F033C016F0A4EC36
:101B3E0017F011C01CF012C01DF012000001F2BF10
:101B4E00ABEF0DF0ADEF0DF0AEEF0DF0F393F2BF86
:101B5E00BBEF0DF0F25106E1F105D8B0B9EF0DF083
:101B6E00BBEF0DF0C1EF0DF0000E346E010E336EB3
:101B7E00C5EF0DF0F1C033F0F2C034F0E8C135F02E
:101B8E00E9C136F0F3A9CEEF0DF0D0EF0DF0D4EFA2
:101B9E000DF0FE0E3526FF0E36221EC037F01FC08A
:101BAE0038F020C039F021C03AF022C03BF023C0FB
:101BBE003CF024C03DF025C03EF0000E406E1F0EDE
:101BCE003F6E000E02015D6FA0EF0EF03F06D8A033
:101BDE0040060F0E3714416E426A42BE00EF0EF001
:101BEE00425009E10A0E415CD8A000EF0EF002EF60
:101BFE000EF00AEF0EF0570E4124416E000E4220F9
:101C0E00426E10EF0EF0300E4124416E000E422057
:101C1E00426EBF0E276EFF0E286E2650296E2A6A60
:101C2E002750292628502A222A500AE11A0E295C0A
:101C3E00D8A024EF0EF027EF0EF0010E28EF0EF0D5
:101C4E00000E2F6E306A2F503010D8B431EF0EF0D8
:101C5E0033EF0EF063EF0EF09F0E276EFF0E286E21
:101C6E00200E4110296E000E42102A6E2750292692
:101C7E0028502A222A500AE11A0E295CD8A04AEFCF
:101C8E000EF04DEF0EF0010E4EEF0EF0000E316E17
:101C9E00326A31503210D8B457EF0EF059EF0EF0C1
:101CAE0063EF0EF041C007F042C008F0CCEC1BF021
:101CBE0007C041F008C042F03E0E3F24D96E020E1E
:101CCE004020DA6E41C0DFFF3306D8A03406350659
:101CDE00D8A0360637C027F038C028F039C029F012
:101CEE003AC02AF03BC02BF03CC02CF03DC02DF08A
:101CFE003EC02EF0050E8DEF0EF0D8902E322D3206
:101D0E002C322B322A32293228322732E82E84EF17
:101D1E000EF027C037F028C038F029C039F02AC09D
:101D2E003AF02BC03BF02CC03CF02DC03DF02EC045
:101D3E003EF040BEACEF0EF0405009E1020E3F5CAB
:101D4E00D8A0ACEF0EF0AEEF0EF0DFEF0EF0375086
:101D5E00381039103A103B103C103D103E10D8A4EC
:101D6E00BBEF0EF0BDEF0EF0EDEF0DF034BECAEF8F
:101D7E000EF0345006E13304D8B0C8EF0EF0CAEFBF
:101D8E000EF0EDEF0DF036BED5EF0EF0365008E149
:101D9E003504D8A0D5EF0EF0D7EF0EF0DFEF0EF032
:101DAE000001F3B3DDEF0EF0DFEF0EF0EDEF0DF00F
:101DBE000001F3A9E5EF0EF0E7EF0EF0FDEF0EF0E8
:101DCE003F06D8A040063E0E3F24D96E020E40209C
:101DDE00DA6E26C0DFFF3F06D8A040063E0E3F2437
:101DEE00D96E020E4020DA6E300EDF6E1CC011F07E
:101DFE001DC012F03E0E3F24136E020E4020146ED4
:101E0E0035C015F036C016F0A4EC17F011C01CF05A
:101E1E0012C01DF01200000E0201B96F000EB86F55
:101E2E000001E8BF24EF0FF0E85109E1110EE75D64
:101E3E00D8A024EF0FF026EF0FF034EF0FF0E8BF2D
:101E4E0032EF0FF0E85109E11F0EE75DD8A032EF37
:101E5E000FF034EF0FF067EF0FF002013C5100016D
:101E6E00E7190BE102013D510001E819D8B442EF28
:101E7E000FF044EF0FF061EF0FF05E0E686F020E81
:101E8E00696FC90E6A6F080E6B6FE7C06CF0E8C021
:101E9E006DF052EC1CF0000E00017E6F010E7D6F96
:101EAE005E0E7F6F020E806FE6EC15F0E7C03CF21F
:101EBE00E8C03DF2050E5DEC20F00201B84BB92BE7
:101ECE000001EABF76EF0FF0EA5107E1280EE95D57
:101EDE00D8B074EF0FF076EF0FF0A9EF0FF002010C
:101EEE003A510001E9190BE102013B510001EA19D7
:101EFE00D8B484EF0FF086EF0FF0A3EF0FF07C0E47
:101F0E00686F020E696FC90E6A6F080E6B6FE9C0BB
:101F1E006CF0EAC06DF052EC1CF0000E00017E6F0A
:101F2E00020E7D6F7C0E7F6F020E806FE6EC15F059
:101F3E00E9C03AF2EAC03BF2060E5DEC20F0020177
:101F4E00B84BB92B0001ECBFB8EF0FF0EC5107E125
:101F5E003D0EEB5DD8B0B6EF0FF0B8EF0FF0C6EF59
:101F6E000FF0ECBFC6EF0FF0EC5107E10A0EEB5D80
:101F7E00D8B0C4EF0FF0C6EF0FF0F8EF0FF0070E6A
:101F8E005DEC20F00201B84BB92B38510001EB1972
:101F9E000BE1020139510001EC19D8B4D9EF0FF061
:101FAE00DBEF0FF0F8EF0FF09A0E686F020E696F0D
:101FBE00C90E6A6F080E6B6FEBC06CF0ECC06DF063
:101FCE0052EC1CF0000E00017E6F030E7D6F9A0E18
:101FDE007F6F020E806FE6EC15F0EBC038F2ECC0AE
:101FEE0039F20201B851B911D8A400EF10F002EF86
:101FFE0010F005EF10F0040E5DEC20F0B8C2E7F023
:10200E00B9C2E8F012000D6E28EC1CF0D8B012EF39
:10201E0010F014EF10F00BEF10F09FEF10F00A2AF3
:10202E000001F951D8A41EEF10F020EF10F02AEFA6
:10203E0010F0170E0A6426EF10F028EF10F02AEFBA
:10204E0010F0000E0A6EF905D8A430EF10F032EF42
:10205E0010F03CEF10F03B0E0A6438EF10F03AEF40
:10206E0010F03CEF10F0000E0A6E020EF919D8A413
:10207E0043EF10F045EF10F04FEF10F01F0E0A6413
:10208E004BEF10F04DEF10F04FEF10F0010E0A6E07
:10209E00030EF919D8A456EF10F058EF10F062EFB6
:1020AE0010F00C0E0A645EEF10F060EF10F062EFAD
:1020BE0010F0010E0A6E040EF919D8A469EF10F093
:1020CE006BEF10F075EF10F0630E0A6471EF10F005
:1020DE0073EF10F075EF10F0000E0A6E09C003F0EA
:1020EE000D50EAEC1EF00AC001F0026A000E046EFA
:1020FE000A0E036E07EC18F00150300FA3EC1CF023
:10210E000AC001F0026A000E046E0A0E036E69EC3C
:10211E0018F00150300FA3EC1CF0040E0C6E0C0ED8
:10212E000B6E340EE82EFED70B2EFCD70C2EFAD7E4
:10213E0080A6A4EF10F0A6EF10F016EF10F009C075
:10214E0003F00D50EAEC1EF0C60EA3EC1CF00928AD
:10215E00036E0D50EAEC1EF0C60EA3EC1CF060EC04
:10216E001DF009C003F00D50EAEC1EF00AC001F09C
:10217E00026A000E046E0A0E036E07EC18F0015090
:10218E00300FA3EC1CF00AC001F0026A000E046EC0
:10219E000A0E036E69EC18F00150300FA3EC1CF020
:1021AE0060EC1DF080B4DEEF10F0E0EF10F09FEF6A
:1021BE0010F028EC1CF0D8A0E7EF10F0E9EF10F0CB
:1021CE009FEF10F00001F92B0A501200096E095012
:1021DE00D8B4F4EF10F0F6EF10F018EF11F004BED3
:1021EE00FDEF10F0FBEF10F018EF11F001C005F04D
:1021FE0002C006F003C007F004C008F0051E061E5C
:10220E00071E081E052A000E06220722082205C0F8
:10221E000BF006C00CF007C00DF008C00EF020EF5A
:10222E0011F001C00BF002C00CF003C00DF004C0A1
:10223E000EF00150021003100410D8A429EF11F073
:10224E002BEF11F035EF11F0000E016E000E026E45
:10225E00000E036E000E046EC6EF11F0960E0A6E9F
:10226E003FEF11F00A2AD8900E320D320C320B329B
:10227E00000E0B14056E000E0C14066E000E0D14DF
:10228E00076EFE0E0E14086E05500610071008108D
:10229E00D8A454EF11F056EF11F039EF11F064EFAE
:1022AE0011F00A2A010E0B26000E0C220D220E2210
:1022BE00D8900E320D320C320B32000E0B14056E0E
:1022CE00000E0C14066E000E0D14076EFF0E0E148B
:1022DE00086E0550061007100810D8A479EF11F0FB
:1022EE007BEF11F058EF11F083EF11F00A06D89042
:1022FE000B360C360D360E360DBE88EF11F08AEF0A
:10230E0011F092EF11F0020E0A6090EF11F092EFC1
:10231E0011F07DEF11F00AB097EF11F099EF11F077
:10232E009AEF11F00D9ED8900A320AC005F0066A97
:10233E00076A086A05C008F0076A066A056A05504A
:10234E000B1206500C1207500D1208500E120950A7
:10235E00D8B4B4EF11F0B6EF11F0BEEF11F004BE29
:10236E00BDEF11F0BBEF11F0BEEF11F00E8E0BC0F2
:10237E0001F00CC002F00DC003F00EC004F012000C
:10238E000101F45147EC20F00001FD6F0101F25103
:10239E0047EC20F00001FE6FF55147EC20F00001F4
:1023AE00FF6F0101EE5147EC20F00001FA6F0101C1
:1023BE00EC5147EC20F00001FB6F0101EA5147ECB4
:1023CE0020F00001FC6FFFC001F0026A000E046EE7
:1023DE000A0E036E07EC18F00150300F0101DD6F8D
:1023EE00FFC001F0026A000E046E0A0E036E69EC65
:1023FE0018F00150300F0101DE6FFEC001F0026ACD
:10240E00000E046E0A0E036E07EC18F00150300F2A
:10241E000101E06FFEC001F0026A000E046E0A0EAA
:10242E00036E69EC18F00150300F0101E16FFDC031
:10243E0001F0026A000E046E0A0E036E07EC18F02D
:10244E000150300F0101E36FFDC001F0026A000E72
:10245E00046E0A0E036E69EC18F00150300F010184
:10246E00E46FFAC001F0026A000E046E0A0E036EEB
:10247E0007EC18F00150300F0201D86FFAC001F0CE
:10248E00026A000E046E0A0E036E69EC18F001501B
:10249E00300F0201D96FFBC001F0026A000E046E0C
:1024AE000A0E036E07EC18F00150300F0201DB6FBD
:1024BE00FBC001F0026A000E046E0A0E036E69EC98
:1024CE0018F00150300F0201DC6FFCC001F0026AFF
:1024DE00000E046E0A0E036E07EC18F00150300F5A
:1024EE000201E06FFCC001F0026A000E046E0A0EDB
:1024FE00036E69EC18F00150300F0201E16F000E0F
:10250E00056ED70E066E010E076E010EC6EC1DF09F
:10251E00000E056ED20E066E020E076E020EC6EC91
:10252E001DF01200000E126E10BEA2EF12F0A0EF00
:10253E0012F0B4EF12F0101E0F1E0E1E0D1E0C1E0A
:10254E000B1E0A1E096C000E0A220B220C220D22F3
:10255E000E220F221022010E126E08BEBBEF12F0D9
:10256E00B9EF12F0CDEF12F0081E071E061E051E63
:10257E00041E031E021E016C000E02220322042200
:10258E000522062207220822010E121A20EE13F04F
:10259E00070EDE6AE806FDE209500A100B100C1059
:1025AE000D100E100F101010D8B4E0EF12F0E2EF75
:1025BE0012F034EF13F0010E116EF0EF12F0D8900E
:1025CE0009360A360B360C360D360E360F361036E9
:1025DE00112A10AEF5EF12F0F7EF12F0E6EF12F04F
:1025EE00D890133614361536163617361836193661
:1025FE001A360950015C0A5002580B5003580C5001
:10260E0004580D5005580E5006580F5007581050CC
:10261E000858D8A015EF13F017EF13F028EF13F0AA
:10262E000950015E0A50025A0B50035A0C50045ABC
:10263E000D50055A0E50065A0F50075A1050085A90
:10264E001380D89010320F320E320D320C320B3204
:10265E000A320932112EF7EF12F01250D8B43AEFB7
:10266E0013F03CEF13F04CEF13F01A1E191E181E48
:10267E00171E161E151E141E136C000E1422152284
:10268E0016221722182219221A2213C001F014C082
:10269E0002F015C003F016C004F017C005F018C004
:1026AE0006F019C007F01AC008F0120021EED0F0A3
:1026BE0010EE0FF0060EDBCFE3FFE806FCE20CC0D7
:1026CE001AF00DC01BF01A501B10D8A471EF13F0A6
:1026DE0073EF13F077EF13F00F0E1A6E000E1B6EE2
:1026EE001AC001F01BC002F0CFEC1EF001C01EF0AC
:1026FE0002C01FF0F1C01CF0F2C01DF01DBE8AEF2B
:10270E0013F08CEF13F0A1EF13F01E501C5C1D5054
:10271E00800A0E6E1F50800A0E58D8A099EF13F043
:10272E009BEF13F09DEF13F0A1EF13F01CC01EF002
:10273E001DC01FF01EC01CF01FC01DF0E8C118F018
:10274E00E9C119F00001F3B1AFEF13F0B1EF13F0DF
:10275E00CEEF13F0BFEF13F0000E026E200E016EDF
:10276E000AC003F00BC004F03FEC17F01E4A1F2AFC
:10277E0018501E5C1F50800A0E6E1950800A0E589B
:10278E00D8A0CCEF13F0CEEF13F0B3EF13F0000E92
:10279E00176E000E166EE7EF13F01AC0D9FF1BC0AE
:1027AE00DAFFDF500E6E0E50016E026A0AC003F0A1
:1027BE000BC004F03FEC17F01A4A1B2A164A172AD0
:1027CE001C50165C1750800A0E6E1D50800A0E5853
:1027DE00D8A0F4EF13F0F6EF13F0D4EF13F00001DE
:1027EE00F3A1FCEF13F0FEEF13F01BEF14F00CEF60
:1027FE0014F0000E026E200E016E0AC003F00BC024
:10280E0004F03FEC17F01E4A1F2A18501E5C1F5092
:10281E00800A0E6E1950800A0E58D8A019EF14F0C7
:10282E001BEF14F000EF14F01EC00AF01FC00BF0E7
:10283E001200000E126E08BE29EF14F027EF14F0EE
:10284E003BEF14F0081E071E061E051E041E031E77
:10285E00021E016C000E0222032204220522062211
:10286E0007220822010E126E10BE42EF14F040EF46
:10287E0014F052EF14F0101E0F1E0E1E0D1E0C1E25
:10288E000B1E0A1E096C000E0A220B220C220D22B0
:10289E000E220F22102209500A100B100C100D10D0
:1028AE000E100F101010D8B45FEF14F061EF14F08B
:1028BE00A9EF14F0010E116E6FEF14F0D8900936D7
:1028CE000A360B360C360D360E360F361036112AEA
:1028DE0010AE74EF14F076EF14F065EF14F00950AB
:1028EE00015C0A5002580B5003580C5004580D50FE
:1028FE0005580E5006580F50075810500858D8A0BB
:10290E008BEF14F08DEF14F09DEF14F00950015E73
:10291E000A50025A0B50035A0C50045A0D50055AC5
:10292E000E50065A0F50075A1050085AD8901032AF
:10293E000F320E320D320C320B320A320932112E98
:10294E0076EF14F01250D8B4AFEF14F0B1EF14F0DC
:10295E00C1EF14F0081E071E061E051E041E031EE0
:10296E00021E016C000E0222032204220522062200
:10297E000722082201C001F002C002F003C003F0DA
:10298E0004C004F005C005F006C006F007C007F04D
:10299E0008C008F0120080B4D7EF14F0D9EF14F08D
:1029AE0053EF15F028EC1CF0D8A0E0EF14F0E2EF96
:1029BE0014F053EF15F0000E0001F96F060E096EBC
:1029CE00FFC00AF0010E0AEC10F00001FF6F090EB5
:1029DE00096EFEC00AF0010E0AEC10F00001FE6F47
:1029EE00060E096EFAC00AF0020E0AEC10F0000193
:1029FE00FA6F090E096EFBC00AF0020E0AEC10F017
:102A0E000001FB6F0E0E096EFCC00AF0020E0AECFE
:102A1E0010F00001FC6F28EC1CF0D8B019EF15F087
:102A2E001BEF15F012EF15F00001FE5160EC1EF0D9
:102A3E000001FE6FFF5160EC1EF00001FF6FFA51B6
:102A4E0060EC1EF00001FA6FFB5160EC1EF000010D
:102A5E00FB6FFC5160EC1EF00001FC6FFEC003F03A
:102A6E00FFC004F0050E056E000E7BEC1FF0FAC0E1
:102A7E0003F0FBC004F0FCC005F0010E91EC1FF05A
:102A8E00030E0F6E080E0E6E770EE82EFED70E2E6C
:102A9E00FCD70F2EFAD700F0000EF2EC1CF0030E4E
:102AAE00FBEC1BF0C7EC11F0820E0E6EDE0EE82E64
:102ABE00FED70E2EFCD712002A342B34316E315035
:102ACE00D8A46CEF15F06EEF15F078EF15F0000E40
:102ADE00286E000E296E000E2A6E000E2B6EE5EF8C
:102AEE0015F028C02CF029C02DF02AC02EF02BC0D6
:102AFE002FF0200E88EF15F0D8902F322E322D3277
:102B0E002C32E82E83EF15F02C50306E2A8EFF0EED
:102B1E002816FF0E2916FF0E2A16000E2B16960EDD
:102B2E00315E31BE9FEF15F09DEF15F0B5EF15F04C
:102B3E003150800A970FD8B0A7EF15F0A9EF15F016
:102B4E00ABEF15F06EEF15F0D8902B322A322932FA
:102B5E002832313EABEF15F0CDEF15F01F0E31647C
:102B6E00BBEF15F0BDEF15F0C5EF15F06EEF15F0DC
:102B7E00D890283629362A362B3631063150D8A42D
:102B8E00CBEF15F0CDEF15F0BFEF15F03050D8B4F8
:102B9E00D3EF15F0D5EF15F0DDEF15F02B1E2A1E35
:102BAE00291E286C000E29222A222B2228C028F04A
:102BBE0029C029F02AC02AF02BC02BF012000001E8
:102BCE007D057E11D8A4EEEF15F0F0EF15F00FEFA6
:102BDE0016F0BDEC1FF07BC0E5F07CC0E6F0810E78
:102BEE000001686F000E696F2B0E6A6F080E6B6F17
:102BFE00E5C06CF0E6C06DF07FC06EF080C06FF087
:102C0E0052EC1CF0810E026E000E036E1EEC1FF0D5
:102C1E00020E00017D197E11D8A418EF16F01AEFDE
:102C2E0016F039EF16F0BDEC1FF07BC0E5F07CC05E
:102C3E00E6F0000E0001686F010E696F4D0E6A6FAF
:102C4E00080E6B6FE5C06CF0E6C06DF07FC06EF0E5
:102C5E0080C06FF052EC1CF0000E026E010E036E7F
:102C6E001EEC1FF0030E00017D197E11D8A442EF59
:102C7E0016F044EF16F063EF16F0BDEC1FF07BC0BC
:102C8E00E5F07CC0E6F0640E0001686F010E696F1E
:102C9E00010E6A6F080E6B6FE5C06CF0E6C06DF04A
:102CAE007FC06EF080C06FF052EC1CF0640E026EAE
:102CBE00010E036E1EEC1FF01200000E056EB20E1A
:102CCE00066E080E076E000EC6EC1DF020EE82F0AA
:102CDE000F0EDE6AE806FDE2820E0001686F000E3E
:102CEE00696FB90E6A6F080E6B6F7AC06CF07BC09D
:102CFE006DF052EC1CF020EE92F00F0EDE6AE8063C
:102D0E00FDE2920E0001686F000E696FBE0E6A6FD3
:102D1E00080E6B6F7CC06CF07DC06DF052EC1CF039
:102D2E0020EEA2F00F0EDE6AE806FDE2A20E000112
:102D3E00686F000E696FC20E6A6F080E6B6F7EC0F1
:102D4E006CF07FC06DF052EC1CF0C00E7BEC1CF0F2
:102D5E00000E056E820E066E000E076E030EC6EC9A
:102D6E001DF0060E056E920E066E000E076E030E19
:102D7E00C6EC1DF00B0E056EA20E066E000E076E53
:102D8E00030EC6EC1DF00A0E0001816F220E806F3D
:102D9E00A10EE82EFED7802FFCD7812FFAD7A3ECF9
:102DAE0020F01200050E00017A6F000EF2EC1CF0FE
:102DBE0068EC20F00001F5ADE7EF16F0E9EF16F044
:102DCE0024EF17F0F5ABEEEF16F0F0EF16F00CEF78
:102DDE0017F01F0EF515F56FF66B780E686F030E74
:102DEE00696F800E6A6F080E6B6FF5C06CF0F6C0DF
:102DFE006DF0F2C16EF0F3C16FF0F4C170F0F5C179
:102E0E0071F052EC1CF03EEF17F0780E686F030E67
:102E1E00696F6E0E6A6F080E6B6FF5C06CF0F6C0C0
:102E2E006DF0F2C16EF0F3C16FF0F4C170F0F5C148
:102E3E0071F052EC1CF03EEF17F03F0EF515F56FEA
:102E4E00F66B780E686F030E696FA20E6A6F080E2E
:102E5E006B6FF5C06CF0F6C06DF0F2C16EF0F3C1A1
:102E6E006FF0F4C170F0F5C171F052EC1CF012006D
:102E7E0003500410D8B446EF17F048EF17F051EF97
:102E8E0017F003500410D8A44FEF17F051EF17F0BE
:102E9E0056EF17F00150AAEC20F0A3EF17F020EE3A
:102EAE0004F00350D9260450DA22DE50DE10D8B4D6
:102EBE0063EF17F065EF17F080EF17F020EE04F0D8
:102ECE000350D9260450DA2210EE02F00350E12608
:102EDE000450E222DE50E65CE650800A096EDE50B7
:102EEE00800A0958D8B07EEF17F080EF17F0A3EFE5
:102EFE0017F020EE02F00350D9260450DA22DECF6E
:102F0E0005F0DDCF06F003C0D9FF04C0DAFFDECF37
:102F1E0007F0DDCF08F005500724D96E06500820C3
:102F2E00DA6E01C0DFFF20EE02F00350D926045006
:102F3E00DA22DE2A000EDD2212000001F3A1AAEF32
:102F4E0017F0ACEF17F0B6EF17F013C00AF014C07D
:102F5E000BF011C00CF012C00DF083EC1DF016BE7C
:102F6E00BBEF17F0BDEF17F0C3EF17F015C01AF057
:102F7E0016C01BF0C7EF17F0000E1B6E000E1A6E78
:102F8E00000E196E000E186ED9EF17F0000E026EBD
:102F9E00200E016E11C003F012C004F03FEC17F0CA
:102FAE00184A192A1A50185C1950800A176E1B50AD
:102FBE00800A1758D8A0E6EF17F0E8EF17F0CDEF1C
:102FCE0017F00001F3B1EEEF17F0F0EF17F0FAEF94
:102FDE0017F013C00AF014C00BF011C00CF012C0A1
:102FEE000DF083EC1DF013C001F014C002F0CFEC15
:102FFE001EF01A500124116E1B500220126E120088
:10300E00000E066E04BE10EF18F00EEF18F016EF5D
:10301E0018F0036C041ED8B0042A010E066E02BE10
:10302E001DEF18F01BEF18F023EF18F0016C021EC5
:10303E00D8B0022A010E061A000E086E000E076E98
:10304E0003500410D8B42EEF18F030EF18F058EFEC
:10305E0018F0010E056E38EF18F0D89003360436CE
:10306E00052A04AE3DEF18F03FEF18F034EF18F0DC
:10307E00D890073608360350015C04500258D8A089
:10308E004BEF18F04DEF18F052EF18F00350015EB1
:10309E000450025A0780D89004320332052E3FEFB7
:1030AE0018F00650D8B45EEF18F060EF18F064EF29
:1030BE0018F0076C081ED8B0082A07C001F008C027
:1030CE0002F01200000E066E02BE72EF18F070EFE4
:1030DE0018F078EF18F0016C021ED8B0022A010E1B
:1030EE00066E04BE7FEF18F07DEF18F083EF18F038
:1030FE00036C041ED8B0042A03500410D8B48AEF0F
:10310E0018F08CEF18F0B0EF18F0010E056E94EF7A
:10311E0018F0D89003360436052A04AE99EF18F04D
:10312E009BEF18F090EF18F00350015C045002581A
:10313E00D8A0A4EF18F0A6EF18F0AAEF18F00350DD
:10314E00015E0450025AD89004320332052E9BEFD2
:10315E0018F00650D8B4B6EF18F0B8EF18F0BCEF70
:10316E0018F0016C021ED8B0022A01C001F002C094
:10317E0002F01200949C948E38C001F039C002F017
:10318E003AC003F03BC004F0010EEDEC10F001C0AC
:10319E0013F002C014F003C015F004C016F0000EB8
:1031AE000F6E240E106EF40E116E470E126EDCECC6
:1031BE0008F00FC028F010C029F011C02AF012C07C
:1031CE002BF0000E2C6E000E2D6E800E2E6EBF0E8E
:1031DE002F6E67EC04F028C03CF029C03DF02AC0E9
:1031EE003EF02BC03FF03CC028F03DC029F03EC061
:1031FE002AF03FC02BF063EC15F02850AF6E200E76
:10320E00AC6E900EAB6E120097EC20F017EC1DF02A
:10321E0001C0F7F002C0F8F00001F85107E1270EE7
:10322E00F75DD8B01DEF19F01FEF19F030EF19F060
:10323E00F85109E10D0EF75DD8A028EF19F02AEF2D
:10324E0019F030EF19F0020EF727000EF8234FEFAA
:10325E0019F0F85109E1270EF75DD8A039EF19F0F2
:10326E003BEF19F041EF19F0030EF727000EF8238C
:10327E004FEF19F0F85107E10D0EF75DD8B04AEF98
:10328E0019F04CEF19F04FEF19F0F707D8A0F80727
:10329E00F7C005F0F8C006F012000001ED51EE1176
:1032AE00D8A45CEF19F05EEF19F063EF19F08A8A7B
:1032BE008A988A9694EF19F0ED05EE11D8A46AEF6C
:1032CE0019F06CEF19F071EF19F08A9A8A888A96C4
:1032DE0094EF19F0EEBF7CEF19F0EE5108E1ED0519
:1032EE00D8A07CEF19F07EEF19F091EF19F0EEBF38
:1032FE008CEF19F0EE5107E1040EED5DD8B08AEFB8
:10330E0019F08CEF19F091EF19F08A9A8A988A8643
:10331E0094EF19F08A8A8A888A86120021EEC8F004
:10332E0010EE07F0070EDBCFE3FFE806FCE222EE1D
:10333E00CAF010EE0FF0070EDBCFE3FFE806FCE25B
:10334E0022EEC2F010EE17F0070EDBCFE3FFE80619
:10335E00FCE222EEBAF010EE1FF0070EDBCFE3FF19
:10336E00E806FCE21F0E036E000E046E040E3CEC2B
:10337E001DF0070E036E000E046E050E3CEC1DF0E4
:10338E000F0E036E000E046E060E3CEC1DF0170EB3
:10339E00036E000E046E070E3CEC1DF012009282BE
:1033AE00000E046E010E036E8FEC20F0A7EC1FF0E2
:1033BE0001C0F8F102C0F9F1F8C101F0F9C102F053
:1033CE00000E046E050E036EE7EC1FF00A0E106E73
:1033DE00D89002320132102EEFEF19F001C0F8F141
:1033EE0002C0F9F1F8C101F0F9C102F0000E046E4D
:1033FE00640E036EE7EC1FF001C007F002C008F088
:10340E00000E0A6E050E096ECDEC1AF007C0F6F12D
:10341E0008C0F7F1F6C10EF0F7C10FF0120092805E
:10342E00000E046E000E036E8FEC20F0A7EC1FF062
:10343E0001C0FAF102C0FBF1E30E136E360E146EEC
:10344E00FA0E156E3E0E166EFAC101F0FBC102F0B9
:10345E00000E02BEFF0E036E046E010EEDEC10F0B8
:10346E0001C00FF002C010F003C011F004C012F042
:10347E00C7EC06F00FC028F010C029F011C02AF0DA
:10348E0012C02BF063EC15F028C0FCF129C0FDF141
:10349E00FCC132F0FDC133F01200A40EF66E3F0EE9
:1034AE00F76E000EF86E02EEBAF010EE29F009007B
:1034BE00F5CFEEFFE550E150FAE1380EF66E400E14
:1034CE00F76E000EF86E01EEC8F010EE1EF0090059
:1034DE00F5CFEEFFE550E150FAE103EE00F0F00E0D
:1034EE00EE6AE806FDE102EE00F05E0EEE6AE80618
:1034FE00FDE101EEE6F0180EEE6AE806FDE100EEE3
:10350E00F1F00F0EEE6AE806FDE1000EF86E000116
:10351E0091EF1AF0800E386E250E396E000E3A6E4F
:10352E00000E3B6EC1EC18F02BEC20F004EC1FF0FB
:10353E009EEC20F095EC19F080A8A8EF1AF0AAEFF7
:10354E001AF0B6EF1AF0020136513711D8A4B2EFC5
:10355E001AF0B4EF1AF0B6EF1AF007EC1BF080A8D1
:10356E00BBEF1AF0BDEF1AF0A3EF1AF00201360509
:10357E003711D8A4C5EF1AF0C7EF1AF0A3EF1AF05F
:10358E003BEC1BF0A3EF1AF000EF00F0000E0C6EF8
:10359E00000E0B6E09500A10D8B4D8EF1AF0DAEFFD
:1035AE001AF002EF1BF0010E0D6EE2EF1AF0D8903A
:1035BE0009360A360D2A0AAEE7EF1AF0E9EF1AF0CD
:1035CE00DEEF1AF0D8900B360C360950075C0A5015
:1035DE000858D8A0F5EF1AF0F7EF1AF0FCEF1AF032
:1035EE000950075E0A50085A0B80D8900A320932E9
:1035FE000D2EE9EF1AF00BC007F00CC008F0120008
:10360E00A3EC20F0820E0001EF6FDD0EE82EFED748
:10361E00EF2FFCD700D0CBEC1CF034C27AF035C2C1
:10362E007BF032C27CF033C27DF030C27EF031C20C
:10363E007FF064EC16F080B827EF1BF029EF1BF03B
:10364E0012EF1BF0030E0001F06F080EEF6F770EF6
:10365E00E82EFED7EF2FFCD7F02FFAD7000E02017F
:10366E00376F010E366F1200A3EC20F0820E0001B0
:10367E00EF6FDD0EE82EFED7EF2FFCD700D0CBEC90
:10368E001CF0D2EC14F080B84FEF1BF051EF1BF092
:10369E0046EF1BF0020E0001F06F380EEF6FAD0E0D
:1036AE00E82EFED7EF2FFCD7F02FFAD7000E02012F
:1036BE00376F000E366F1A0E0001EF6FF80EE82E00
:1036CE00FED7EF2FFCD700F0120062C066F063C089
:1036DE0067F0000E0101E76F000EE66F8AEF1BF038
:1036EE0060C043F061C044F0660E456E000E466E3B
:1036FE0064C047F065C048F0A9EC0AF043500101E0
:10370E00E6274450E72366C0F6FF67C0F7FF0800C0
:10371E00F5500009D8A496EF1BF098EF1BF077EF49
:10372E001BF0E6C160F0E7C161F01200B3EF1BF0D1
:10373E0003C0F6FF04C0F7FFF86A070EF76403D064
:10374E000800F55005D0F6CFE1FFF7CFE2FFE750C6
:10375E00A3EC1CF0034A042A03C0F6FF04C0F7FFD3
:10376E00F86A070EF76403D00800F55005D0F6CFBF
:10377E00E1FFF7CFE2FFE7500009D8A4C9EF1BF035
:10378E00CBEF1BF09FEF1BF012009F0E096EFF0E8A
:10379E000A6E07C00BF008C00CF009500B260A5039
:1037AE000C220C500AE11A0E0B5CD8A0E1EF1BF0B4
:1037BE00E4EF1BF0010EE5EF1BF0000E0D6E0E6A2E
:1037CE000D500E10D8B4EEEF1BF0F0EF1BF0F6EF2D
:1037DE001BF05F0E0714076E086AFAEF1BF007C0A6
:1037EE0007F008C008F01200046ED00E4DEC1FF06A
:1037FE000450FAEC1FF0D10E64EC1FF0000E43ECF7
:10380E001EF0036E03500101F06FF16B000E43ECDE
:10381E001EF0036E03500101EE6FEF6B000E43ECD2
:10382E001EF0036E03500101EC6FED6B010E43ECC5
:10383E001EF0036E03500101EA6FEB6B68EC20F093
:10384E001200000E026E000E036E80B431EF1CF0FB
:10385E0033EF1CF034EF1CF0022A1A0E016EF80E34
:10386E00E82EFED7012EFCD700D0032A040E0364E7
:10387E0043EF1CF045EF1CF02CEF1CF0020E02641F
:10388E004BEF1CF04DEF1CF050EF1CF0D88051EFB9
:10389E001CF0D89012006C0E0001726F000E736F48
:1038AE0068C074F069C075F0000E776F000E766F09
:1038BE00000E796F000E786F740E606F000E616FE0
:1038CE006AC062F06BC063F0720E646F000E656FBB
:1038DE006CEC1BF0000176516825D96E7751692189
:1038EE00DA6E000EDF6E1200026E02C001F0F00EF4
:1038FE0001168C500F0B01108C6E8C908C8200F088
:10390E008C92030E016E980EE82EFED7012EFCD778
:10391E0002C001F0013AF00E01168C500F0B01108F
:10392E008C6E8C8200F08C92080E016ECA0EE82E00
:10393E00FED7012EFCD71200026E02C001F0F00E6F
:10394E0001168C500F0B01108C6E8C808C8200F047
:10395E008C92030E016E980EE82EFED7012EFCD728
:10396E0002C001F0013AF00E01168C500F0B01103F
:10397E008C6E8C8200F08C92080E016ECA0EE82EB0
:10398E00FED7012EFCD712000BEC19F005C034F255
:10399E0006C035F216EC1AF032C032F233C033F2F2
:1039AE00D6EC19F00EC030F20FC031F232C2E7F091
:1039BE0033C2E8F034C2E9F035C2EAF030C2EBF0BF
:1039CE0031C2ECF012EC0FF0E7C0EDF0E8C0EEF013
:1039DE0054EC19F01200046ED00E4DEC1FF0045092
:1039EE00FAEC1FF0D10E64EC1FF0000E43EC1EF04B
:1039FE00036E03500101F46FF56B000E43EC1EF0E5
:103A0E00036E03500101F26FF36B010E43EC1EF0D7
:103A1E00036E03500001F56FF66B68EC20F0120098
:103A2E00000E046E000E036E8B80060EE82EFED77F
:103A3E0000D08B9082A226EF1DF028EF1DF021EF13
:103A4E001DF030EF1DF0034A042A260EE82EFED795
:103A5E0000D082B235EF1DF037EF1DF02AEF1DF0CA
:103A6E0003C001F004C002F01200056E080E0560DE
:103A7E0043EF1DF045EF1DF05FEF1DF00550080DF3
:103A8E00F350400F7BEC1CF0000E066E0650032424
:103A9E00D96E000E0420DA6EDF50A3EC1CF0062A5D
:103AAE00070E06645DEF1DF05FEF1DF04DEF1DF08C
:103ABE001200000E026E6CEF1DF0022A0D0E016E4A
:103ACE00FC0EE82EFED7012EFCD7640E026072EFBC
:103ADE001DF074EF1DF082EF1DF080A479EF1DF044
:103AEE007BEF1DF082EF1DF080B680EF1DF082EFB0
:103AFE001DF064EF1DF01200000E106E000E0F6E22
:103B0E0094EF1DF00EC001F0026A0CC003F00DC060
:103B1E0004F03FEC17F00F4A102A0F500A24D96E0A
:103B2E0010500B20DA6EDF500E6E0E50D8A4A2EF9E
:103B3E001DF0A4EF1DF089EF1DF01200C150F00B27
:103B4E000D09C16ECF0EC11601500210D8A4B2EFEE
:103B5E001DF0B4EF1DF0B8EF1DF0C30EC216BCEF92
:103B6E001DF0C250C30B0409C26EC050C70B100922
:103B7E00C06EC050F80B0109C06EC2801200086EF4
:103B8E00020E0860CDEF1DF0CFEF1DF0D8EF1DF047
:103B9E0005500F0B8009096E09507BEC1CF0DFEF0E
:103BAE001DF005500F0BC009096E09507BEC1CF07F
:103BBE0006C003F007C004F09DEC1BF0120014BE0B
:103BCE00F3EF1DF0145006E11304D8B0F1EF1DF021
:103BDE00F3EF1DF001EF1EF013C015F014C016F038
:103BEE00151E161E154A162A15C013F016C014F00F
:103BFE0005EF1EF013C013F014C014F0120007C02E
:103C0E0009F008C00AF005C00BF006C00CF009C0A0
:103C1E00D9FF0AC0DAFF094A0A2A0BC0E1FF0CC01D
:103C2E00E2FF0B4A0C2ADFCFE7FFE750D8A422EFC2
:103C3E001EF024EF1EF00EEF1EF012009F0E036E0C
:103C4E00FF0E046E200E0110056E000E0210066EA1
:103C5E00035005260450062206500AE11A0E055C92
:103C6E00D8A03CEF1EF03FEF1EF0010E40EF1EF00D
:103C7E00000E016E026A1200016EC586C7A04AEFE1
:103C8E001EF04CEF1EF045EF1EF0C9CF02F00150B2
:103C9E00D8A454EF1EF056EF1EF05AEF1EF07CEC37
:103CAE0020F05CEF1EF072EC20F086EC20F002505B
:103CBE0012000B6E0BC001F0026A000E046E0A0EAB
:103CCE00036E69EC18F001C009F002C00AF00BC0D7
:103CDE0001F0026A000E046E0A0E036E07EC18F075
:103CEE000150100DF350092412009F0E036EFF0EAB
:103CFE00046E01C005F002C006F003500526045004
:103D0E00062206500AE11A0E055CD8A091EF1EF0AD
:103D1E0094EF1EF0010E95EF1EF0000E016E026A7A
:103D2E001200BF0E036EFF0E046E01C005F002C03E
:103D3E0006F0035005260450062206500AE11A0E1C
:103D4E00055CD8A0ADEF1EF0B0EF1EF0010EB1EF86
:103D5E001EF0000E016E026A1200030EFBEC1BF049
:103D6E00B40E0001686F030E696F920E6A6F080E33
:103D7E006B6FEEC16CF0EFC16DF0ECC16EF0EDC18A
:103D8E006FF0EAC170F0EBC171F052EC1CF0120052
:103D9E0001C003F002C004F0D7EF1EF0014A022A60
:103DAE0001C0D9FF02C0DAFFDF50D8A4E1EF1EF048
:103DBE00E3EF1EF0D5EF1EF00350015C016E0450D0
:103DCE000258026E1200046E020E0460F1EF1EF035
:103DDE00F3EF1EF0FCEF1EF003500F0B8009056E83
:103DEE0005507BEC1CF003EF1FF003500F0BC009C6
:103DFE00056E05507BEC1CF01200000E956E270E22
:103E0E00036EF50EE82EFED7032EFCD700F0020E41
:103E1E007BEC1CF0280E7BEC1CF0010E7BEC1CF0F6
:103E2E000C0E7BEC1CF0060E7BEC1CF0120029EF46
:103E3E001FF002C0D9FF03C0DAFFDF5052EC20F0B2
:103E4E00024A032A02C0D9FF03C0DAFFDF50D8A40A
:103E5E0033EF1FF035EF1FF020EF1FF012000DC0F3
:103E6E0001F00EC002F0CFEC1EF001500D24056ED5
:103E7E0002500E20066E0FC007F010C008F006ECC0
:103E8E001EF00DC00DF00EC00EF01200026EC580B9
:103E9E00C5B054EF1FF056EF1FF04FEF1FF09E9678
:103EAE00C7B65CEF1FF05EEF1FF060EF1FF063EF21
:103EBE001FF00250FAEC1FF01200026EC582C5B25E
:103ECE006BEF1FF06DEF1FF066EF1FF09E96C7B6FB
:103EDE0073EF1FF075EF1FF077EF1FF07AEF1FF003
:103EEE000250FAEC1FF01200066E04500510046E1C
:103EFE00D00E4DEC1FF0000EFAEC1FF00650FAEC4F
:103F0E001FF00350FAEC1FF00450FAEC1FF068ECAF
:103F1E0020F01200066ED00E4DEC1FF0030EFAECE0
:103F2E001FF00650FAEC1FF00350FAEC1FF004508D
:103F3E00FAEC1FF00550FAEC1FF068EC20F01200BE
:103F4E00C282C2B2ADEF1FF0AFEF1FF0A8EF1FF0AD
:103F5E00C4CF05F0066A0550036EC350056E03C04C
:103F6E0006F005C001F006C002F012003AEC20F097
:103F7E00D9EC16F0B4EC1EF0B40E0D6E030E0E6EF0
:103F8E00780E0F6E030E106E36EC1FF00DC07BF028
:103F9E000EC07CF01200000A0A001F0E04000A0A6E
:103FAE000A1F110E0404000004021F020400444103
:0F3FBE0054453A2030302F30302F323030300021
:103FCE0001500302F3CF05F0F4CF06F001500402C6
:103FDE00F350062602500302F350062605C001F0E8
:103FEE0006C002F01200016E01C0C9FF86EC20F07F
:103FFE00C5AC04EF20F006EF20F009EF20F0010E23
:10400E000AEF20F0020E12009250FB0B0409926E82
:10401E009230E832010B046EC1500418F00B0418F4
:10402E00C16E928604EC1FF0120004150E1F0E15C1
:10403E000400286E756C6C290054494D453A2030A9
:10404E00303A30303A303000700ED312D350FC0B71
:10405E000209D36E720ED36EF19EA7EC20F00BEC1C
:10406E0020F09388120093809382500EC76E280E14
:10407E00C66E000EC56E130EC86E9D869E961200FD
:10408E00026E02C001F00F0E011602380F0B0A0D60
:10409E00F35001241200016E9EA858EF20F05AEF43
:1040AE0020F053EF20F001C0ADFF1200036E03505D
:1040BE00020DF35080097BEC1CF00350A3EC1CF0B6
:1040CE001200C584C5B46EEF20F070EF20F069EFDA
:1040DE0020F0C7501200C58AC588C5B879EF20F008
:1040EE007BEF20F074EF20F01200C59AC588C5B89A
:1040FE0083EF20F085EF20F07EEF20F012009EA6D9
:10410E008BEF20F08DEF20F086EF20F09E961200C0
:10411E0003C001F004C002F0A5EC1DF0C08E120029
:10412E000F0EC1128B928B90948294901200939CDE
:10413E00939A939693981200010E7BEC1CF012004A
:08414E003AEC20F0120012000F
:020000040020DA
:08000000FFFFFFFFFFFFFFFF00
:020000040030CA
:0E00000000081F1EFF8181FF0FC00FE00F40A0
:00000001FF
